:020000040800F2
:100000000040002011160008D5150008D71500087B
:10001000D9150008DB150008DD15000800000000F8
:10002000000000000000000000000000DF150008D4
:10003000E115000800000000E3150008E5150008C0
:1000400061160008611600086116000861160008B4
:1000500061160008611600086116000861160008A4
:100060006116000861160008611600086116000894
:100070006116000861160008611600086116000884
:100080006116000861160008611600086116000874
:100090006116000861160008611600086116000864
:1000A00061160008E91500086116000861160008CD
:1000B0006116000800000000000000006116000842
:1000C00061160008611600086116000800000000B3
:1000D0006116000861160008611600086116000824
:1000E0006116000861160008611600080000000093
:1000F0000000000000000000000000000000000000
:100100000000000000000000000000006116000870
:100110000000000000000000611600080000000060
:1001200000000000000000000000000000000000CF
:1001300000000000000000000000000000000000BF
:1001400061160008611600080000000000000000B1
:10015000000000000000000000000000000000009F
:100160006116000861160008611600086116000893
:100170006116000800000000000000000000000000
:080180000000000061160008F8
:1001880010B5054C237833B9044B13B10448AFF3C9
:1001980000800123237010BD0C0000200000000027
:1001A800BC16000808B5034B1BB103490348AFF35D
:1001B800008008BD0000000010000020BC160008E8
:1001C80038B50E4A0E4B054618784FF47A73B3FBD0
:1001D800F0F31068B0FBF3F000F08EF8044658B95D
:1001E8000F2D09D8024629464FF0FF3000F042F89B
:1001F800044B20461D6038BD012038BD0800002092
:100208000000002004000020074A08B5136843F0E6
:1002180010031360032000F01BF80020FFF7D0FF45
:1002280001F06AF9002008BD00200240034A044B8F
:1002380011681B780B441360704700BF280000202A
:1002480000000020014B1868704700BF28000020FC
:10025800074AD36823F4E0631B041B0C43F0BF6315
:10026800000243F4003300F4E0600343D3607047B6
:1002780000ED00E0174B30B5DC68C4F30224C4F18C
:100288000703251D042B28BF0423062D4FF0010565
:1002980005FA03F303F1FF338CBF033C0024194034
:1002A800A14005FA04F4013C2240002842EA010278
:1002B8004FEA0212ADBF00F1604000F00F00064B9C
:1002C80000F56140B5BFD2B2D2B21A5480F800230B
:1002D80030BD00BF00ED00E014ED00E0002808DBB1
:1002E8004209012300F01F0003FA00F0014B43F814
:1002F8002200704700E100E00138B0F1807F0AD2A7
:10030800064B074A5860F02182F823100020072284
:1003180098601A6070470120704700BF10E000E045
:1003280000ED00E02DE9F04F85B00B68DFF864813F
:10033800564A01934FF00F090023019CDC4002D17B
:1003480005B0BDE8F08F012404FA03FA019C14EA11
:100358000A0500F093804C6824F0100BBBF1020FE3
:1003680011D1DF0800EB870703F0070E3E6A4FEA5A
:100378008E0E09FA0EFC26EA0C0C0E6906FA0EF629
:1003880046EA0C063E624FEA430C0327066807FA62
:100398000CF7FF4304F0030E3E400EFA0CFE0BF17F
:1003A800FF3B4EEA0606BBF1010F066011D88668CE
:1003B80006EA070BCE6806FA0CFE4EEA0B068660C4
:1003C800466826EA0A0AC4F300169E4046EA0A0668
:1003D8004660C66837408E6806FA0CF63743E60072
:1003E800C7604BD5D8F8186046F00106C8F8186001
:1003F800D8F8186023F0030707F1804706F00106D4
:1004080007F58037039603F0030E039EBE684FEA94
:100418008E0E09FA0EFCB0F1904F26EA0C0C2FD084
:100428001B4EB0422ED006F58066B0422CD006F5A1
:100438008066B04214BF0526032606FA0EF646EA81
:100448000C06BE601668EF4314F4803F0CBF3E40B4
:100458002E431660566814F4003F0CBF3E402E43EE
:100468005660966814F4801F0CBF3E402E43966079
:10047800D668A40254BF3E402E43D66001335CE7E1
:100488000026DAE70126D8E70226D6E7000401406D
:1004980000040048001002400AB18161704781627F
:1004A800704743690B4218BF090481617047000017
:1004B8002DE9F347054608B901205FE00368DA072C
:1004C80011D42B689B0700F187802B681C0700F16B
:1004D800F8802B68580700F14181E869002840F04E
:1004E800D88100204AE0BB4C636803F00C03042B5E
:1004F80007D0636803F00C03082B16D16368DF0389
:1005080013D54FF4003393FAA3F2216893FAA3F3B7
:10051800B3FA83F303F01F03012202FA03F30B4239
:10052800CFD06B68002BCCD1C6E76A68B2F5803FA4
:1005380027D1236843F480332360E36AA96823F052
:100548000F030B43E36262B3FFF77CFE4FF4003600
:100558008046012796FAA6F3226896FAA6F3B3FA1C
:1005680083F303F01F0307FA03F31342A9D1FFF73C
:1005780069FEA0EB08006428ECD9032002B0BDE8AE
:10058800F087236832B923F480332360236823F487
:100598008023D1E7B2F5A02FF5D143F4802323605F
:1005A800C7E7FFF74FFE4FF400368046012796FA5B
:1005B800A6F3226896FAA6F3B3FA83F303F01F03AF
:1005C80007FA03F313423FF47CAFFFF73BFEA0EBBF
:1005D80008006428EBD9D0E77E4C636813F00C0F51
:1005E80007D0636803F00C03082B22D16368DE038D
:1005F8001FD4022393FAA3F2216893FAA3F3B3FA60
:1006080083F303F01F03012202FA03F30B4203D022
:100618002B6993427FF450AF2168F82393FAA3F330
:10062800B3FA83F26B69934021F0F8021343236015
:100638004BE72A6901260AB396FAA6F3B3FA83F3BD
:1006480003F1845303F584139B0002271E60FFF710
:10065800F9FD804697FAA7F3226897FAA7F3B3FA49
:1006680083F303F01F0306FA03F31342D4D1FFF711
:10067800E9FDA0EB08000228ECD97EE796FAA6F37C
:10068800B3FA83F303F1845303F584139B00022721
:100698001A60FFF7D7FD804697FAA7F3226897FA02
:1006A800A7F3B3FA83F303F01F0306FA03F3134225
:1006B8003FF40BAFFFF7C6FDA0EB08000228EBD90B
:1006C8005BE7AA69434E444901241AB394FAA4F398
:1006D800B3FA83F30B449B0002271C60FFF7B2FDBB
:1006E800804697FAA7F397FAA7F397FAA7F3726ADF
:1006F80097FAA7F3B3FA83F303F01F0304FA03F39B
:1007080013427FF4E6AEFFF79DFDA0EB0800022838
:10071800E7D932E794FAA4F3B3FA83F30B449B00C6
:1007280002271A60FFF78EFD804697FAA7F397FA1B
:10073800A7F397FAA7F3726A97FAA7F3B3FA83F3C2
:1007480003F01F0304FA03F313423FF4C2AEFFF7AA
:1007580079FDA0EB08000228E7D90EE71D4CE369F4
:10076800D90034D4E36943F08053E361E36903F0CB
:1007780080530193019B0126184F3B68DA052FD55A
:10078800EB68012B3DD1236A43F001032362FFF795
:1007980059FD02278246B9464FF0010897FAA7F398
:1007A80097FAA7F3002B6CD0226A99FAA9F3B3FA47
:1007B80083F303F01F0308FA03F3134258D0002E03
:1007C8003FF48BAEE36923F08053E36185E60026AE
:1007D800D2E700BF00100240208190100070004056
:1007E8003B6843F480733B60FFF72CFD80463B6811
:1007F800DB05C5D4FFF726FDA0EB08006428F6D971
:10080800BBE63BBB236A23F001032362236A23F080
:1008180004032362FFF716FD02278246B9464FF00C
:10082800010897FAA7F397FAA7F373B3226A99FA1C
:10083800A9F3B3FA83F303F01F0308FA03F313428F
:10084800BDD0FFF7FFFC41F28833A0EB0A009842C5
:10085800E7D992E6052B236A03D143F00403236208
:1008680091E723F001032362236A23F004038DE751
:10087800FFF7E8FC41F28833A0EB0A0098428DD9D3
:100888007BE697FAA7F3626A8FE797FAA7F3626A9B
:10089800CDE74A4B5A6802F00C02082A1C467BD066
:1008A80002284FF0807352D193FAA3F3B3FA83F37B
:1008B80003F1845303F584139B0000221A60FFF7A9
:1008C800C1FC4FF000778046012697FAA7F322680B
:1008D80097FAA7F3B3FA83F303F01F0306FA03F3B7
:1008E80013422DD162686B6A296A22F474120B4391
:1008F800134363604FF0807393FAA3F3B3FA83F35F
:1009080003F1845303F584139B004FF000751E60B8
:10091800FFF798FC0126074695FAA5F3226895FA91
:10092800A5F3B3FA83F303F01F0306FA03F31342A4
:100938007FF4D7ADFFF786FCC01B0228ECD91CE674
:10094800FFF780FCA0EB08000228BED915E693FA51
:10095800A3F3B3FA83F303F1845303F584139B00E1
:1009680000221A60FFF76EFC4FF00075074601265B
:1009780095FAA5F3226895FAA5F3B3FA83F303F081
:100988001F0306FA03F313423FF4ABADFFF75AFC1B
:10099800C01B0228ECD9F0E501283FF4EFAD5868F8
:1009A8002B6A00F480329A427FF486AD6B6A00F4B9
:1009B8007010C01A18BF0120E0E500BF0010024007
:1009C80010B5134C616801F00C03082B1ED14FF4CD
:1009D800701393FAA3F301F47012B3FA83F322FAB3
:1009E80003F30C4AD05CE36A0F2292FAA2F2B2FA3D
:1009F80082F203F00F03D340074AD25CCB034ABF0D
:100A0800064B074BB3FBF2F3584310BD034810BD28
:100A180000100240D4160008E416000800127A00FC
:100A280000093D002DE9F0410D46044610B90120AA
:100A3800BDE8F0814D4A136803F007038B422FD3BA
:100A48002268910737D4D2073DD4484A136803F087
:100A580007039D4276D32268454D12F0040F7DD1DD
:100A6800130706D56B68226923F4605343EAC2036F
:100A78006B60FFF7A5FF6B68F02292FAA2F2B2FA58
:100A880082F203F0F003D3403A4AD35CD8403A4BA1
:100A980018603A4B1868FFF793FB0020BDE8F08117
:100AA800136823F007030B431360136803F007036D
:100AB8009942BCD1C4E72E49A0684B6823F0F003E3
:100AC80003434B60BFE76268294E012A27D14FF4E0
:100AD800003393FAA3F1316893FAA3F3B3FA83F3DB
:100AE80003F01F0302FA03F30B42A0D0736823F04C
:100AF80003031A437260FFF7A5FB41F288380746E3
:100B08007368626803F00C03B3EB820F9DD0FFF7A4
:100B180099FBC01B4045F3D90320BDE8F081022AA8
:100B28000CBF4FF00073022393FAA3F1306893FAD5
:100B3800A3F3B3FA83F303F01F03012101FA03F3CC
:100B48000342D2E7136823F007032B4313601368AB
:100B580003F007039D427FF46AAF7CE76B68E168A6
:100B680023F4E0630B436B607AE700BF0020024088
:100B780000100240F81600080800002004000020B9
:100B8800084B4FF4E0625B6892FAA2F2B2FA82F282
:100B980003F4E063D340044AD35C044A1068D840A5
:100BA800704700BF00100240081700080800002026
:100BB800084B4FF460525B6892FAA2F2B2FA82F2E2
:100BC80003F46053D340044AD35C044A1068D84005
:100BD800704700BF001002400817000808000020F6
:100BE80003682DE9F347DD03044622D5724DEB690E
:100BF800D80000F18580EB6943F08053EB61EB6925
:100C080003F080530193019B01266C4F3B68D90583
:100C180078D52B6A13F4407340F089802B6A626898
:100C280023F4407313432B621EB1EB6923F0805306
:100C3800EB612068C50706D55F4AA168136B23F0EE
:100C480003030B431363810606D55B4AE168136B04
:100C580023F010030B431363820306D5564A216B16
:100C6800536823F480030B435360430606D5524A66
:100C78002169136B23F020030B431363070406D584
:100C88004D4A6169136B23F040030B4313638605D8
:100C980006D5494AE169536823F400030B435360BE
:100CA800050606D5444AA169D36A23F4F8730B43B1
:100CB800D362C10406D5404A216A136B23F48073BA
:100CC8000B431363420306D53B4A616A136B23F453
:100CD80080630B431363030306D5374AA16A136B7A
:100CE80023F400630B43136310F480101CD0324AC2
:100CF800E16A136B23F400530B431363002013E0E2
:100D0800002682E73B6843F480733B60FFF79AFA5A
:100D180080463B68DA053FF57CAFFFF793FAA0EB16
:100D280008006428F5D9032002B0BDE8F08762689E
:100D380002F4407293423FF471AF296A4FF4803352
:100D480021F4407093FAA3F2DFF874E0B2FA82F269
:100D5800724492000127176093FAA3F3B3FA83F35E
:100D680073449B0000221A60CB0728627FF556AFB8
:100D7800FFF768FA4FF002088246C14698FAA8F3CE
:100D880098FAA8F3A3B12A6A99FAA9F3B3FA83F3F4
:100D980003F01F0307FA03F313427FF43FAFFFF793
:100DA80051FA41F28833A0EB0A009842E6D9BAE733
:100DB80098FAA8F36A6AE7E700100240007000405A
:100DC800008190100368DA6842F00102DA609968DD
:100DD800064A0A40062A06D0B2F5803F1EBF1A68A6
:100DE80042F001021A600020704700BF07000100AE
:100DF800704770477047704703681A69910710B5C4
:100E080004460FD5DA6892070CD56FF002021A6112
:100E18009B6901229907027700F08580FFF7E9FFB7
:100E28000023237723681A69520710D5DA68500718
:100E38000DD56FF004021A619B69022213F4407FFA
:100E48002277204675D0FFF7D4FF00232377236845
:100E58001A6911070FD5DA6812070CD56FF0080266
:100E68001A61DB6904229B072277204667D0FFF7C7
:100E7800C0FF0023237723681A69D00610D5DA68E3
:100E8800D1060DD56FF010021A61DB69082213F440
:100E9800407F2277204658D0FFF7ABFF0023237707
:100EA80023681A69D20708D5DA68D00705D56FF024
:100EB80001021A61204600F063FA23681A691106D4
:100EC80008D5DA68120605D56FF080021A61204647
:100ED80000F09FF823681A69D00508D5DA6811066A
:100EE80005D56FF480721A61204600F093F82368E4
:100EF8001A69520608D5DA68500605D56FF040021F
:100F08001A612046FFF777FF23681A69910622D5F0
:100F1800DA6892061FD56FF0200220461A61BDE8F4
:100F2800104000F075B8FFF763FF2046FFF762FF37
:100F380076E7FFF75DFF2046FFF75CFF85E7FFF7E1
:100F480057FF2046FFF756FF93E7FFF751FF20466C
:100F5800FFF750FFA2E710BD1E4A0368904210B584
:100F680002D0B0F1804F09D14C6823F07003904251
:100F780043EA04030DD0B0F1804F0AD0164A9042DC
:100F880007D002F58062904203D002F58062904259
:100F980003D1CA6823F4407313434A6923F08003DA
:100FA800134303608B68C3620B688362094B9842E2
:100FB8000BD003F5A053984207D003F580639842FD
:100FC80003D003F58063984201D10B6903630123C1
:100FD800436110BD002C01400040014010B504469B
:100FE800A0B190F83D3003F0FF021BB980F83C2017
:100FF80000F09EFA022384F83D302068211DFFF797
:10100800ABFF012384F83D30002010BD012010BD46
:10101800704770477047000038B5C1690368826837
:101028001D680446006902436069024354480A4344
:10103800284002431A605A68E068256A22F4405240
:1010480002435A609868A26920F430602A43024338
:101058009A604C4A934211D14B4B4C4A1B6B03F09C
:101068000303B1F5004FD35C24D0082B20D8DFE868
:1010780003F05B6D701F791F1F1F7C00444A934269
:1010880003D002F58062934274D1B1F5004F4BD181
:10109800FFF776FD61684A0802EB4003B3FBF1F302
:1010A8009BB20020A3F110014FF6EF72914230D9A4
:1010B800012035E0082B29D801A252F823F000BFFF
:1010C80099100008ED100008F31000081511000829
:1010D8000511000815110008151100081511000860
:1010E8000B110008FFF764FDD4E76068430803F5B7
:1010F800740303F51053B3FBF0F3D1E7FFF760FC7B
:10110800C8E76068430803F58033F4E7012000234B
:10111800C8E723F00F022168C3F342031343CB60EF
:1011280000232366636638BDFFF72AFD626800EB7B
:101138005203B3FBF2F39BB20020A3F110014FF668
:10114800EF729142B4D82268D360E9E7FFF730FD27
:10115800ECE76068430803F5F40303F59053B3FB29
:10116800F0F3E8E7FFF72CFCE0E76068430803F5D5
:101178000043F4E7B1F5004FC8D001200023DCE7B5
:10118800F369FFEF0038014000100240F416000830
:1011980000440040436ADA0710B506D50168846A3E
:1011A8004A6822F4003222434A609C0706D5016847
:1011B800C46A4A6822F4803222434A60590706D535
:1011C8000168046B4A6822F4802222434A601A07A5
:1011D80006D50168446B4A6822F4004222434A60FB
:1011E800DC0606D50168846B8A6822F480522243A3
:1011F8008A60990606D50168C46B8A6822F4005291
:1012080022438A605A060FD50168046C4A6822F4A2
:1012180080122243B4F5801F4A6005D14A68446CA5
:1012280022F4C00222434A601B0606D50268816C7C
:10123800536823F400230B43536010BD2DE9F0419C
:10124800069D04460F46164698462168CA6937EA3D
:1012580002030CBF01220022B24202D00020BDE8E6
:10126800F081681CF2D0FEF7EDFFA0EB0800854284
:101278002068036800D37DB923F4D07303608368C2
:1012880023F00103836020236367A367002384F8A6
:1012980070300320BDE8F0815A07D6D5C3691B0515
:1012A800D3D54FF400630362036823F4D07303605B
:1012B800836823F00103836020236367A367E367E0
:1012C800E4E773B504460026C667FEF7BBFF23684C
:1012D8001B681A07054615D423681B685B070AD5DF
:1012E8006FF07E43009300222B464FF48001204686
:1012F800FFF7A4FF90B920230020636784F87000EB
:10130800A3670CE06FF07E430093324603464FF428
:1013180000112046FFF792FF0028DDD0032002B01D
:1013280070BD10B5044640B3436F1BB980F87030E8
:1013380000F01CF9226824236367136823F0010373
:1013480013602046FFF768FE012816D0636A13B1C0
:101358002046FFF71FFF23685A6822F490425A601C
:101368009A6822F02A029A601A6842F0010220461E
:101378001A60BDE81040FFF7A4BF012010BD0000AF
:101388004FF400510148FFF78CB800BF0004004833
:1013980030B59DB02822002105A800F083F9142259
:1013A8000021684600F07EF9342200210FA800F0E1
:1013B80079F901230993102302240A9305A84FF40D
:1013C80060130E9305940C94FFF772F80F23002511
:1013D8008DE8180021464FF4806368460393029510
:1013E8000495FFF71FFB4FF400230FA80F931995DF
:1013F800FFF7F6FB1DB030BD00B58BB0FEF704FF5C
:10140800FFF7C6FF142200210DEB020000F04AF995
:10141800314B32485A6942F400225A615A6902F43F
:1014280000220192019A5A6942F480025A615A696B
:1014380002F480020292029A5A6942F400325A6116
:101448005A6902F400320392039A5A6942F48022DC
:101458005A615B6903F48023002204934FF400511E
:1014680000244FF40055049BFFF716F81C4B1D4849
:10147800059505A906930794FEF754FF012305A9CE
:10148800164805950693184D07940894FEF74AFFE9
:10149800164AAC6040F2E73385E80C00284643F66C
:1014A8007F63EB602C616C61AC61FFF797FD1048BE
:1014B800104984604FF4164380E80A000C23C46086
:1014C800046143618461C46104624462FFF729FFD7
:1014D8002846FFF777FCFEE70010024000040048AA
:1014E8000000211000080048AC0000200044014022
:1014F8002C000020004400400C4B07B59A6942F0CC
:1015080001029A619A6902F001020092009ADA696E
:1015180042F08052DA61DB6903F0805301930720BF
:10152800019BFEF795FE03B05DF804FB0010024036
:1015380007B50D4B02689A4212D103F54C431920A6
:101548009A6942F400329A619B69002203F40033DD
:1015580001931146019BFEF78DFE1920FEF7BEFE92
:1015680003B05DF804FB00BF0044014010B5044619
:1015780088B01422002103A800F094F82268124BC6
:101588009A421ED103F5E63303A9DA6942F4003220
:10159800DA61DA6902F400320192019A5A6942F476
:1015A80000325A615B6903F400330293029B0C23F7
:1015B8000393022304934FF0904007230793FEF709
:1015C800B1FE08B010BD00BF004400407047FEE700
:1015D800FEE7FEE7FEE7704770477047FEF726BE56
:1015E8000148FFF709BC00BFAC000020054BD3F849
:1015F800882042F47002C3F888204FF000629A6095
:10160800704700BF00ED00E0DFF834D0002103E0B0
:101618000C4B5B58435004310B480C4B42189A4210
:10162800F6D30B4A02E0002342F8043B094B9A42E6
:10163800F9D3FFF7DBFF00F011F8FFF7DDFEFEE757
:101648000040002018170008000000200C000020AF
:101658000C000020EC000020FEE7000070B50D4EE5
:101668000D4CA41BA4100025A54209D10B4E0C4C0F
:1016780000F020F8A41BA4100025A54205D170BDD8
:1016880056F8253098470135EEE756F82530984743
:101698000135F2E7101700081017000810170008A6
:1016A8001417000802440346934200D1704703F818
:1016B800011BF9E7F8B500BFF8BC08BC9E467047A7
:0C16C800F8B500BFF8BC08BC9E46704797
:1016D40002030405060708090A0B0C0D0E0F10106F
:1016E4000102030405060708090A0B0C0D0E0F106E
:1016F40000040802000000000000000001020304CE
:0C170400060708090000000001020304B1
:04171000AD0100081F
:04171400890100083F
:0C171800010000001000000000127A0028
:0400000508001611C8
:00000001FF
