:020000040800F2
:1000000098040020951400081D1400081F1400080F
:100010002114000823140008251400080000000023
:10002000000000000000000000000000271400088D
:1000300029140008000000002B1400082D140008EB
:10004000C9140008CD140008D1140008D514000804
:10005000D9140008DD140008E1140008E5140008B4
:10006000E9140008ED140008F1140008F514000864
:10007000F9140008FD140008011500080515000812
:10008000091500080D1500081115000815150008C0
:10009000191500081D150008211500082515000870
:1000A000291500082D150008311500083515000820
:1000B0003915000800000000000000003D15000890
:1000C000411500084515000849150008000000000A
:1000D0004D15000851150008311400085515000889
:1000E000591500085D1500086115000800000000A2
:1000F0000000000000000000000000000000000000
:10010000000000000000000000000000651500086D
:100110000000000000000000691500080000000059
:1001200000000000000000000000000000000000CF
:1001300000000000000000000000000000000000BF
:100140006D15000871150008000000000000000097
:10015000000000000000000000000000000000009F
:1001600075150008791500087D150008811500082F
:1001700085150008000000000000000000000000DD
:10018000000000008915000838B5040009D004F10A
:100190007005696809B900F028F800F00DF8012829
:1001A00001D1012032BD606A08B100F023F800F0EF
:1001B00014F821F02A0109E024216960206802680E
:1001C000520852000260204600F082B9816000F0BF
:1001D00014F8BDE8324000F08CBA2068416821F480
:1001E0009041416020688168704700202870204657
:1001F00000F084BB204600F019BA2068016841F085
:1002000001010160204670472DE9FC47054605F1D4
:100210007004884660682028174699464BD1B8F18B
:10022000000F14BF002F012046D02078012842D0B3
:10023000012121700020E0602122626005F150065A
:1002400000F09AFB378082467780A868B0F5805F1F
:1002500004BF286900281ABF404600274746804649
:100260000DE02868B8F1000F12BF18F8011B37F82D
:10027000021BC1F3080101857088411E718053463D
:100280007088CDF80090002807D0002280212846F1
:1002900000F05CFA0028E4D005E000224021284666
:1002A00000F054FA08B1032006E02020606000212D
:1002B0002170002000E00220BDE8F68730B500F193
:1002C00058031C6A202C46D109B1140001D1012029
:1002D00030BD1C7E012C3ED001251D7641651A8063
:1002E0005A8000219960FF228168B1F5805F04D1B6
:1002F000016991B940F2FF120FE019B9016961B1CA
:100300007F2107E0B1F1805F06D1016909B97F2241
:1003100003E03F21998001E000229A800021596288
:1003200022221A6201688A6842F001028A608168AA
:10033000B1F5805F04BF0169002907BFDFF8C8225B
:100340009A60DFF8C812996000221A760068016886
:1003500041F4907101E0022030BD0160002030BD09
:10036000F8B5044640F60F022768FB693D68BE6891
:100370001A4005F0200003F020010AD1002918BF1F
:10038000002877D0216E002973D02046BDE8F440C4
:100390000847F20702D415F4907F6BD0DA0707D52F
:1003A000EA0505D501223A62E76F47F00107E767E2
:1003B0009A0708D5F70706D5276802223A62E26F46
:1003C00042F00402E2675A0708D5F70706D5276806
:1003D00004223A62E26F42F00202E2671A0709D58C
:1003E00008B9F20706D5276808263E62E26F42F098
:1003F0000802E2671A0509D56B0107D525684FF495
:1004000000622A62E26F42F02002E267E26F002A95
:1004100057D0002918BF002803D0216E09B120460B
:100420008847E06F21688A68510602D410F0280FCF
:100430001AD0204600F0CDF9206881684A060ED512
:1004400000F040F858B10FF2A9314163E06E00F0BE
:1004500099FAB0B3E06E416BBDE8F440084720461E
:10046000BDE8F24000F0B6BA204600F0B3FA002032
:10047000E067F1BDD80209D5710207D54FF48010AD
:1004800038622046BDE8F24000F0A5BA180607D54C
:10049000290605D5616EA1B12046BDE8F4400847A4
:1004A00058060ED569060CD53A6822F040023A602B
:1004B00020206067002262662046BDE8F24000F01E
:1004C0008BBAF1BD816821F040018160E06E704718
:1004D00070B504464E4823681E68A168064020692E
:1004E0000E4361690643E0690E4306431E60002225
:1004F0005968E06821F440510143596000259E6825
:10050000A169206A26F430660E43424906438B42B5
:100510009E600FD14048036803F00303032B11D8FA
:10052000DFE803F00E04060202200CE004200AE0DB
:10053000082008E0394883421CBF3948834201D172
:10054000002000E01020E169B1F5004F4FF6F07691
:100550002CD130B1022807D004280AD0082811D0A5
:1005600018E000F077FC06E060682E4901EB5001CE
:100570000CE000F051FC61684A0802EB4002B2FB5B
:10058000F1F205E06068410801F58031B1FBF0F25D
:1005900092B200E00125A2F11000B0422ED2164026
:1005A000C2F3420006432068C66028E030B102284A
:1005B00007D004280AD0082810D017E000F04AFC21
:1005C00006E06068184901EB50010BE000F024FCE4
:1005D000616800EB5100B0FBF1F205E06068410892
:1005E00001F50041B1FBF0F292B200E00125A2F169
:1005F0001000B04202D22168CA6000E0012500204C
:1006000020666066284670BD2508000801080008BD
:10061000F369FFEF00380140301002400044004011
:10062000004800400024F40000127A0090F82410E2
:10063000CA0706D502685368816A23F400330B4366
:10064000536090F824108A0706D502685368C16A7F
:1006500023F480330B43536090F824104A0706D5E7
:1006600002685368016B23F480230B43536090F8B6
:1006700024100A0706D502685368416B23F400432F
:100680000B43536090F82410CA0606D5026893689D
:10069000816B23F480530B43936090F824108A06F7
:1006A00006D502689368C16B23F400530B43936033
:1006B00090F824104A0610D502685368016C23F4A0
:1006C00080130B435360036CB3F5801F05D153684F
:1006D000416C23F4C0030B43536090F824100A06C6
:1006E00006D501684A68806C22F4002202434A6001
:1006F0007047F8B5044604F170050020E8606FF01B
:100700007E4700F039F90646206801680A0708D5D7
:100710000097334600224FF40011204600F016F8EF
:1007200060B9206801684A070AD50097334600225D
:100730004FF48001204600F009F808B10320F2BD13
:1007400020206860A86000202870F2BD2DE9F041EB
:10075000069C05460E4690461F462868C1693140F2
:10076000B1420CBF01200020404520D114F1010FFF
:10077000F3D000F001F9C01B844200D334B900F07B
:1007800018F8002101700320BDE8F0812868016895
:100790004A07E2D5C1690805DFD54FF400612A6830
:1007A0001162002200F005F8C1600270EBE7002042
:1007B000EAE72868016821F4D0710160286881683F
:1007C00049084900816005F1700020214160816085
:1007D000704701680A6822F490720A6001688A68AA
:1007E000520852008A602021816700220266704709
:1007F000406A00F1520100220A810A8000F0EAB842
:1008000070B500F027F808D100F02AF82B70416D80
:100810004B1C00F019F821B929E0886940F0080064
:10082000886170BD70B500F015F808D100F018F8B7
:100830002B80416D8B1C00F007F821B917E0886907
:1008400040F00800886170BD436525886E1E2680D3
:100850002188704700F1600201689369222B70477C
:100860008B8C456D00F15A0461880B40704701681C
:100870000B6823F490730B6001688B685B085B0066
:100880008B602021916100231360BDE8704000F06F
:1008900015BB30B4002513E050F8042BD30744BF38
:1008A000A9F101039A18091F042942F8045BFAD23E
:1008B00013468C0744BF15809B1CC90748BF1D7099
:1008C00050F8041B0029E7D130BC7047274882B09C
:1008D000016841F001010160026802F0010200922A
:1008E0000099426842F080524260406800F08050B7
:1008F00000900098072002B000F0A1BB10B586B0B0
:1009000004461422002101A800F0EEFB21681848DB
:10091000814228D11748816841F4003181608168A3
:1009200001F4003100910099026842F40032026043
:100930000C21006800F40030009002220098019120
:1009400002920021039104914FF0904007210591FC
:1009500001A900F0D3FB00220021262000F07CFB3F
:10096000262000F096FB06B010BD000018100240D3
:10097000004400401410024001484068704700BF26
:100980000000002038B590F821100024022900F161
:10099000340203D004205060012411E000F012F86A
:1009A0000D686D086D000D60D16895688B406B60B7
:1009B000012180F8211080F82040116801B188479A
:1009C000204632BD01680B6823F00E030B60012343
:1009D0000168704770477047704730B40EE0026896
:1009E000436802440830DC0744BFA9F10104E3185E
:1009F00052F8045B43F8045B091FF9D150F8041B5B
:100A00000029ECD130BC70472DE9F843040019D01F
:100A10002078DFF85854C10716D5686800F00C003C
:100A200004280AD0686800F00C00082802BF686833
:100A300000F48030B0F5803F41D100F0E8F918B102
:100A40006068002800F05F812078DFF8306481075B
:100A50001BD5686810F00C0F07D0686800F00C0018
:100A600008286CD16868C10369D42868C0F34000C5
:100A700000281CBF2069012840F045812968606971
:100A800021F0F80141EAC00129602178080740F10E
:100A90008C80A069DFF8E813002878D001220A6072
:100AA000FFF76AFF0746686AC0F3400000287CD160
:100AB000FFF762FFC01B0228F5D9032026E160681A
:100AC000B0F5803F04D1286840F48030286014E0FD
:100AD00008B928680AE0B0F5A02F286806D140F4CC
:100AE00080202860296841F4803105E020F48030BE
:100AF0002860296821F480212960E86AA16800093A
:100B000041EA0010E862606860B1FFF735FF064611
:100B100000F07DF9002897D1FFF72EFF801B652894
:100B2000F6D3CAE7FFF728FF064600F070F9002861
:100B30008AD0FFF721FF801B6528F6D3BDE7206927
:100B4000B0B101213160FFF717FF07462868C0F3F5
:100B5000400028B9FFF710FFC01B0228F6D9ACE708
:100B60002868616920F0F80040EAC10028608CE73D
:100B70003060FFF701FF07462868C0F340000028F7
:100B800083D0FFF7F9FEC01B0228F5D995E708606E
:100B9000FFF7F2FE0746686AC0F3400028B1FFF78E
:100BA000EBFEC01B0228F6D987E72078410763D502
:100BB000E8690027C10009D4E86940F08050E86185
:100BC0000127E86900F0805000900098DFF8B482B7
:100BD000D8F80000C10513D4D8F8000040F48070A4
:100BE000C8F80000FFF7C8FE8146D8F80000C1052C
:100BF00006D4FFF7C1FEA0EB09006528F5D35CE73A
:100C0000E068012808D008B9286A09E00528286AA0
:100C100006D140F004002862286A40F0010005E097
:100C2000400840002862286A20F00400286241F24F
:100C30008938E06868B1FFF79FFE8146286AC0F3F3
:100C40004000A0B9FFF798FEA0EB09004045F5D39E
:100C500033E7FFF791FE8146286AC0F3400030B1C8
:100C6000FFF78AFEA0EB09004045F5D325E71FB149
:100C7000E86920F08050E861E069002845D06968A3
:100C800001F00C01082931D0022822D100F040F8EF
:100C900007462868C0F3406028B1FFF76DFEC01B0F
:100CA0000228F6D909E76868616A226A20F474109C
:100CB000084310436860012000F02BF804462868C0
:100CC000C0F3406008BBFFF757FE001B0228F6D9AF
:100CD000F3E600F01DF804462868C0F34060A0B1B8
:100CE000FFF74AFE001B0228F6D9E6E601280AD0E3
:100CF0006868226A00F48031914202BF00F47010EB
:100D0000616A884201D0012000E00020BDE8F28342
:100D100000203066FFF730BE2DE9F0410400884620
:100D200045D0594E306800F00700404502D200F02F
:100D300064F83CD120784D4D810705D56A68A068DC
:100D400022F0F00202436A602178C80727D5616863
:100D5000012902D100F05BF804E00229286803D1E0
:100D6000C0F3406018B922E0C0F34000F8B16868F1
:100D7000800841EA80016960FFF7FEFD0746686868
:100D8000616800F00C00B0EB810F08D0FFF7F4FDB4
:100D9000C01B41F289318842F1D303202BE0306837
:100DA00000F00700804504D200F027F801D00120B0
:100DB00021E02078410705D56A68E06822F4E06206
:100DC00002436A602178080706D56968206921F422
:100DD000605141EAC001696000F01EF86A682B4961
:100DE000234BC2F30312895CC84018602248006894
:100DF00000F060FA0020BDE8F0813168C90848EAD7
:100E0000C1013160306800F0070040457047286834
:100E1000C0F340407047000010B51D490A6802F059
:100E20000C00082814D100BF1CA3C2F38340D203D6
:100E3000185C896A09D500BF1CA40E4B01F00F0194
:100E4000625CB3FBF2F2504310BD1249484310BD3F
:100E5000084810BD06480E4A006813680E49C3F3DF
:100E60000222FFE7895CC840704700000010024082
:100E70000C00002000127A0008000020000042420E
:100E80008004424200700040002002409C13000891
:100E90000410024000093D00C014000802030405CC
:100EA000060708090A0B0C0D0E0F101001020304AF
:100EB00005060708090A0B0C0D0E0F1000683D49C6
:100EC000884200D0704738B53B4C04F1800564235C
:100ED000012229462046FFF797F929462046BDE81A
:100EE00038400122FFF7EAB938B586B000F002FABF
:100EF00000F06CF81422002101A800F0F5F82F484A
:100F00002F4C016841F4002101604FF40055026844
:100F100002F4002200920099026842F4800202600A
:100F2000036803F4800300930099026842F40032DE
:100F30000260036803F4003300930099026842F4EE
:100F4000802202600022006800F4802000904FF4AC
:100F500000510098204600F09CF91A4902910022A5
:100F60000392019501A9184800F0C8F801210291E7
:100F7000002203920492019501A9204600F0BEF8D8
:100F80000D4C0C4820604FF416510C20002260617B
:100F90006160A260E2602261A261E261226262623B
:100FA0002046FFF7F1F8012204F180012046FFF707
:100FB00085F9FEE7004400401000002014100240B4
:100FC00000040048000021100008004800B58FB060
:100FD0002822002105A800F087F814220021684685
:100FE00000F082F8022101220591099210210222CB
:100FF0000A910C9200214FF460120D910E9205A8F7
:10100000FFF702FD022101910F204FF48061009053
:10101000002203910292049202216846FFF77CFEAF
:101020000FB000BD0901020002D429488154704765
:10103000284B02F00F021A4402F8041C7047264B9A
:1010400019684FF6FF020002114000F4E060084307
:10105000224908431860704770B51F4B1C68C4F3E1
:1010600002230124C3F10705052D2EBF0F2504FA25
:1010700005F56D1E1E1D072E34BF0023DB1E294003
:10108000994004FA03F3BDE870405B1E1A40114317
:10109000C8E7010007D4012200F01F01104B8A406D
:1010A000400943F82020704710B5401EB0F1807F02
:1010B00001D3012010BD0B4C60600F214FF0FF30B9
:1010C000FFF7B0FF0021A16007202060002010BDC5
:1010D00000E400E018ED00E00CED00E00000FA058F
:1010E00000E100E010E000E010B5044610460A46BA
:1010F0000146204600F010F9204610BD2DE9F84FBA
:101100004FF0000E654A664BDFF898814FF00F09EB
:1011100082460F4633E0644DAA4514BF05250325DA
:101120008D40254343F82C50C143146801EA040C58
:101130007C68E50348BF40EA0C0CC2F800C0546864
:1011400001EA040C7C68A50348BF40EA0C0CC2F815
:1011500004C0946801EA040C7C68E50248BF40EAD8
:101160000C0CC2F808C0D46801EA040C79688C023F
:1011700048BF40EA0C0CC2F80CC00EF1010E3968F1
:1011800031FA0EF000F08380012000FA0EFC1CEA18
:101190000100F2D07C68022C18BF122C4FEA8E019D
:1011A00010D14FEADE040AEB840401F01C05266A24
:1011B00009FA05FB26EA0B06D7F810B00BFA05F57D
:1011C000354325624FEA4E040325DAF8006097F8AC
:1011D00004B0A540ED430BF0030B2E400BFA04FBCB
:1011E0004BEA0606CAF800607E68012E18BF022E80
:1011F00003D0112E18BF122E17D1DAF80860D7F8D5
:101200000CB02E400BFA04FB4BEA0606CAF8086045
:10121000DAF8046026EA0C0C7E68C6F3001606FABB
:101220000EF646EA0C06CAF80460DAF80C6035409F
:10123000BE6806FA04F42C43CAF80C407C68E4004B
:101240009BD5D8F8004044F00104C8F800404FEAAC
:101250009E0CD8F8005005F00105009501F00C0136
:10126000009C53F82C5009FA01F425EA0404BAF161
:10127000904F08BF002509D00C4DAA4508BF012595
:1012800004D00B4DAA457FF446AF022548E7BDE8E0
:10129000F18F0AB18161704781627047000401409B
:1012A0000800014018100240000C004800040048EB
:1012B0000008004838B50D4D0D4B2A7804464FF410
:1012C0007A711868B1FBF2F2B0FBF2F0FFF7ECFEB6
:1012D00050B9102C08D2002221464FF0FF30FFF702
:1012E000BBFEAC60002032BD012032BD00000020FA
:1012F0000C00002080B50748016841F01001016032
:101300000320FFF79CFE0020FFF7D4FFFFF7DEFA73
:10131000002002BD0020024062F30F2262F31F4250
:10132000401810F0030308D0C91A1FD3DB0748BFC9
:1013300000F8012D28BF20F8022D130030B4144608
:101340001546103928BF20E93C00FAD8490728BFC4
:1013500020E90C0048BF40F8042D890028BF20F880
:10136000022D48BF00F8012D30BC7047C91818BFC6
:1013700000F8012DCB0728BF00F8012D70470000B1
:101380000448054A016841F4700101604FF00060B3
:101390001060704788ED00E008ED00E000000000FC
:1013A00000000000010203040607080910B5074900
:1013B00079441831064C7C44163404E00A68081D50
:1013C000114488470146A142F8D110BD2C0000000D
:1013D0004C0000004EF68851CEF20001086840F43F
:1013E00070000860BFF34F8FBFF36F8F4FF0007036
:1013F000E1EE100A704700009BF4FFFF840000003C
:101400001000002000000000D3F5FFFF10000000D6
:101410009400000000000020000000007047FEE77C
:10142000FEE7FEE7FEE770477047704700F006B83A
:101430000148FEF795BF00001000002002484168F7
:1014400002788A18426070470000002000F00DF812
:10145000002801D0FFF7AAFFAFF300800020AFF310
:101460000080FFF741FD00F002F80120704700F016
:1014700001B800000746384600F002F8FBE700001C
:1014800080B5AFF30080024A11001820ABBEFBE725
:1014900026000200014880470148004781130008E8
:1014A000B51400080100000000000000100000005A
:1014B00000127A00AFF30080FFF78CFFFFF7C6FF42
:1014C0000000000001020304FFF7FEBFFFF7FEBFAC
:1014D000FFF7FEBFFFF7FEBFFFF7FEBFFFF7FEBF40
:1014E000FFF7FEBFFFF7FEBFFFF7FEBFFFF7FEBF30
:1014F000FFF7FEBFFFF7FEBFFFF7FEBFFFF7FEBF20
:10150000FFF7FEBFFFF7FEBFFFF7FEBFFFF7FEBF0F
:10151000FFF7FEBFFFF7FEBFFFF7FEBFFFF7FEBFFF
:10152000FFF7FEBFFFF7FEBFFFF7FEBFFFF7FEBFEF
:10153000FFF7FEBFFFF7FEBFFFF7FEBFFFF7FEBFDF
:10154000FFF7FEBFFFF7FEBFFFF7FEBFFFF7FEBFCF
:10155000FFF7FEBFFFF7FEBFFFF7FEBFFFF7FEBFBF
:10156000FFF7FEBFFFF7FEBFFFF7FEBFFFF7FEBFAF
:10157000FFF7FEBFFFF7FEBFFFF7FEBFFFF7FEBF9F
:0C158000FFF7FEBFFFF7FEBFFFF7FEBF46
:04000005080014B526
:00000001FF
