:020000040800F2
:1000000000400020C901000819020008D11E0008A4
:100010001902000819020008190200080000000077
:1000200000000000000000000000000019020008AD
:10003000190200080000000019020008391F00081A
:100040001902000819020008190200081902000824
:100050001902000819020008190200081902000814
:100060001902000819020008190200081902000804
:1000700019020008190200081902000819020008F4
:100080001902000819020008FD1D000819020008E5
:1000900019020008190200081902000819020008D4
:1000A0002D1E0008151E000819020008190200087C
:1000B00019020008000000000000000019020008FA
:1000C00019020008190200081902000800000000C7
:1000D0001902000819020008691E00081902000828
:1000E000691F00081902000819020008000000003A
:1000F0000000000000000000000000000000000000
:1001000000000000000000000000000019020008CC
:1001100000000000000000001902000800000000BC
:1001200000000000000000000000000000000000CF
:1001300000000000000000000000000000000000BF
:100140001902000819020008000000000000000069
:10015000000000000000000000000000000000009F
:100160001902000819020008190200081902000803
:10017000190200080000000000000000000000005C
:08018000000000001902000854
:1001880010B5054C237833B9044B13B10448AFF3C9
:1001980000800123237010BD080700200000000024
:1001A800107A000808B5034B1BB103490348AFF3A5
:1001B800008008BD000000000C070020107A00082D
:1001C800DFF834D0002103E00C4B5B584350043176
:1001D8000B480C4B42189A42F6D30B4A02E0002314
:1001E80042F8043B094B9A42F9D302F0D9FE07F0D2
:1001F800DFFB00F079F8FEE700400020187D0008DA
:10020800000000200807002008070020CC0A002072
:10021800FEE70000024A136843F0010313607047C9
:100228000074004010B5002290F8301002F012FB64
:100238004FF4700393FAA3F34FF48012B3FA83F3E5
:10024800DA40094C094954F8223000B223F47F43BC
:1002580023F0F00300F50040184344F822004B68EF
:1002680043F001034B6010BD087400400074004067
:1002780030B500219DB00C4605A8282207F0BCFB2C
:1002880021460FA834220194009402940394049404
:1002980007F0B2FB4FF480330322022501210592B7
:1002A800069310220D9305A84FF4E01309910A92C2
:1002B8000E930C9503F0B8FD29460F224FF4806386
:1002C80068460092039301950294049404F092F80E
:1002D8004FF481524FF480730FA812940F92179322
:1002E80004F0D2F91DB030BD2DE98048A1B000243A
:1002F80002F088FEFFF7BCFFB54A159414941694D3
:10030800179418945169B348B34DDFF8F882B34E87
:1003180041F400215161516901F4002101910199D1
:10032800516941F480015161516901F480010291E0
:100338000299516941F400315161516901F4003168
:1003480003910399516941F480215161526902F482
:10035800802204924FF400512246049F03F0B6FC19
:1003680022464FF4E0519E4803F0B0FC9D4A9C4859
:1003780015924FF4005314A901271493169403F00F
:10038800BBFB4FF4005314A9924814934FF0020991
:100398004FF0030A16941794159703F0ADFB4FF42A
:1003A800E05214A98E4814921597CDF85890CDF8BC
:1003B8005CA003F0A1FB2146282214A807F01CFB2F
:1003C8004FF0040B4FF0A0414FF480322023284611
:1003D80085E80600EB60AC602F616C7685F82040FC
:1003E800EC62AF62C5F81C9085F830402C766F63DC
:1003F800C5F814B00D940E940F941094119412949F
:1004080002F036FE0022402314A92846CDE91C2319
:10041800149715971794CDF868A0CDF858B08DF8B3
:100428006D408DF86C408DF86E701994189403F037
:10043800C9F8072314A928461493CDF8549003F05B
:10044800C1F8062314A928461493CDF854A003F044
:10045800B9F805220DA928460F92CDF834900E97C9
:1004680010941194129402F021FF08230DA9284634
:100478000D93CDF8389002F019FF5B485B4A026093
:1004880014941594169403F0FDFA14A93C232246FB
:1004980055481493CDF8549003F00AFB544B554A31
:1004A800C8F80840404688E80C00C8F80C70C8F83E
:1004B8001040C8F81440C8F81840C8F81C40C8F8DC
:1004C800204003F009FC2146404603F05BFC21462E
:1004D800404603F081FC21462C2214A80894059478
:1004E8000D940E940F9410941194129413940994EB
:1004F8000A940B940C940694079407F07DFA202331
:100508003D4AB3604FF480784FF41663304632604A
:10051800F36074607761B461C6F8108004F0B4F9D0
:10052800304604F015FA1023062208A9304608922E
:100538000993702504F032FC05A930460595069408
:10054800079404F0A7FC4FF0600E4FF49663224620
:100558000DA93046CDF834E00E930F941094119401
:100568001294139404F056FA5A460DA9304604F032
:1005780051FA08220DA9304604F04CFA40F65F13F0
:100588000DA90C2230460D950E9304F043FA4FF452
:1005980000534FF0807E4FF4806214A94FF4006539
:1005A800199330460723CDF86CE01D9315921495E6
:1005B800CDF85880179418941A941C941E9404F03B
:1005C800A3FC304601F0F2FD0C4B0D4D9C601BE086
:1005D800001002400004004898070020100800207E
:1005E8000008004800002110E807002000740040BF
:1005F8000E09002000540040002C0140540800203F
:10060800004400404407002018464FF4E1310C2212
:1006180059605A61DC601C619C61DC611C625C622F
:100628001D6004F063FD01F053FA3A46594618205C
:1006380003F0C4F9182003F0F7F9224621461920DF
:1006480003F0BCF9192003F0EFF9224649461220BD
:1006580003F0B4F9122003F0E7F93A465146262090
:1006680003F0ACF9262003F0DFF928202246514692
:1006780003F0A4F9282003F0D7F964214FF47A7025
:1006880000F02CF800F01EF841F2883002F0DEFC91
:1006980000F01EF84FF4FA7002F0D8FC6421084804
:1006A80000F01CF800F00EF841F2883002F0CEFCA1
:1006B80000F00EF84FF4FA7002F0C8FCDDE700BF56
:1006C80018FCFFFF014B186800F044B8B809002077
:1006D800014B186800F048B8B8090020024B0A46D8
:1006E8000146186800F014B8B8090020014B1868D2
:1006F80000F082B8B809002010B400240473C0F8D0
:100708000E40C482047680E80E005DF8044B704702
:100718000123C181C282037303764376704700BF09
:1007280030B4002302250124057304760182C282B5
:10073800437630BC704700BF10B401220324002365
:1007480083B0C0F8121004730276437603B05DF8E4
:10075800044B704710B503210446006806F07CF985
:1007680008B10123237610BD0068072106F074B98B
:10077800006806F0E9B900BF0068012106F06CB90D
:1007880010B1037E012B00D07047017B022910B500
:1007980004460FD0032904D001291DD00323237652
:1007A80010BD8268D0F81210116182F8243002233B
:1007B800237610BD83684068002183F8241006F072
:1007C80087F8E28AB4F91010606806F085F8002806
:1007D800EDD10323237610BD83684068002283F897
:1007E800242006F075F8E28AB4F90E10606806F065
:1007F80073F80028EDD0DAE7006806F0A3B900BF67
:10080800407E7047037B022B15D0032B0BD0012BA6
:1008180001D001207047B0F90E30002BACBF012089
:100828004FF0FF307047B0F91230002BACBF0120F9
:100838004FF0FF307047B0F91030002BACBF0120EB
:100848004FF0FF30704700BF037B012B0CBFB0F99E
:100858000E000020704700BF406806F087B800BF50
:1008680008B5406806F01AF8BDE8084005F0C2BFB0
:10087800406806F01DB800BF8368186883B263F348
:100888000F0082B002B070478368586883B263F380
:100898000F0082B002B070478368D86883B263F3F0
:1008A8000F0082B002B070478368186983B263F39F
:1008B8000F0082B002B070478368D3F8160083B285
:1008C80063F30F0082B002B0704700BF8368D3F8AB
:1008D8001A0083B263F30F0082B002B0704700BF02
:1008E8008368B3F91E0070478368598299827047FC
:1008F800034610B540689C6806F07AF8C0F30F43C9
:100908002082638210BD00BF44F6E61102B2030CD8
:1009180012FB01F013FB01F34042A0EB4300C013AC
:10092800B0F5004F84B004DA10F5004F0CDA084B2C
:1009380001E047F6FF7392B200209BB262F30F000A
:1009480063F31F4004B0704703B2F4D1004BF2E7E1
:100958000180FFFF00F50040C0F3891000F44071EA
:10096800B1F5807F82B031D021D9B1F5007F15D0A3
:10097800B1F5407F09D1C0B21A49C34331F81020FC
:10098800DBB2524231F9133012B292B200209BB25C
:1009980062F30F0063F31F4002B07047C0B2C34355
:1009A800DBB2104931F9132031F91030EDE7002995
:1009B800EBD1C0B2C343DBB20A4931F8132031F896
:1009C800103052425B4212B21BB2DEE7C0B2C343E0
:1009D800044ADBB232F8133032F910205B421BB202
:1009E800D3E700BF287A000830B585B004B201907B
:1009F80005140846FFF7AEFF01B204FB01F300142B
:100A080005FB1033DB13B3F5004F04DA13F5004F81
:100A18001BDA114A01E047F6FF7201FB05F104FBFE
:100A28000010C013B0F5004F04DA10F5004F0FDACC
:100A3800094B01E047F6FF7392B200209BB262F3C4
:100A48000F0063F31F4005B030BD1AB2E5D1E0E7EF
:100A580003B2F1D1004BEFE70180FFFF30B585B05D
:100A680004B2051401900846FFF774FF031405FB50
:100A780003F200B204FB002200FB05F004FB1303A1
:100A8800C2F3CF320020C3F3CF3362F30F0063F316
:100A98001F4005B030BD00BFF8B500EBC0031A4ACF
:100AA80000EB43035B0003EB020E0024054603F151
:100AB8000C0103F1160726269C5006FB0526CEF8E6
:100AC8000440BB1801EB020E10488C5050F825006A
:100AD800CEF804402146F483BC505C60348404F0B2
:100AE80025FD0B4B214653F8250004F01FFD094B4B
:100AF80053F8250005F0D4FE074B53F82500BDE850
:100B0800F84004F00BBF00BF00090020F4080020E3
:100B1800B0090020B4090020EC0800202DE9F04FAE
:100B280089B0634F04906348059105F075FF6249E9
:100B3800624B634A6348644D1A6000240C70DFF806
:100B4800D4B1386005F0A4F904F074FD5F48DFF80B
:100B5800C891DFF8C8A1DFF8C8815D4E04F0D2FC67
:100B68005C4B5A4A5C482B60CBF8002006F028FE04
:100B7800DBF80010584A286805F07AFE574806F056
:100B880051F93B682968554A00935548554B06F07A
:100B980041FA554804F0B6FC484604F0B3FC534A01
:100BA800534B51491160534ACAF800301846C2F8ED
:100BB800009005F01BFD504BDAF80020C3F8102117
:100BC8004E4AC3F80C614046136004F055FC4C4B88
:100BD8004C494D4AC1F80080184613604FF001098E
:100BE80005F07EFD2046FFF757FF86F82490286819
:100BF800DFF8308105F0FCFE0346C0F30F42338274
:100C08007282286805F0F4FE40492A68C8F8001086
:100C18004FEA104E3346A6F814E008462549FFF778
:100C28006BFD2868D8F8006005F0D8FE224601461A
:100C38003046FFF76DFDD8F8002003922D4A344B5B
:100C480010682A682D4D3968D5F800C0049D2D4FCD
:100C5800264EDBF800E03668D7F800B0DAF8007006
:100C6800A846039DC8F800505A621D4A5A611A4A9C
:100C78009A611A4A1A620F4AC3F800E05E609860E7
:100C88001961C3F82CB01F63C3F83CC0DC60DC6199
:100C98009A625C639C631C645C649C64DC64059A73
:100CA8001C651360044B83F8009009B0BDE8F08F11
:100CB800EC080020A0090020240700207C0900205F
:100CC8000000002088020020B4090020480100200C
:100CD80000090020F4040020CC0300208005002037
:100CE80040030020B80300201C010020F408002065
:100CF80018030020B009002074010020AC0900206E
:100D080000030020E8080020A8090020840900202A
:100D180028090020F0080020F000002080090020A9
:100D280028050020F8080020704700BF074B10B5C1
:100D3800262404FB003494F8243033B9044B53F8C8
:100D4800200005F017FEE083208210BD0009002076
:100D5800B4090020014B1880704700BF2A07002003
:100D6800034B188880B2B0FA80F04009704700BF82
:100D78002A07002030B583B002A9002321F8083DD6
:100D88008B488C4C06F01AFC0546206804F01CFCC5
:100D9800894805F0D7FE033810284ED8DFE810F050
:100DA8007200110084009B00AA00BD00C6004D001F
:100DB8004D004D004D004D004D004D00D300E000AA
:100DC8004F007E4806F0ACF9002800F0E4807C4B28
:100DD800186805F0CFFD7B4BB3F9142018825A82AE
:100DE8000DF10201784806F06FF8BDF9021070485D
:100DF80006F01EFD04460146734806F0F5F8E4B116
:100E08006B48704D714C05F0F1FC01466868FFF7BE
:100E1800EBFD0190206805F063FCB5F9101020681F
:100E2800002205F09DFCBDF904102068002205F0A1
:100E380097FC1321604805F00FFE03B030BD5F48F2
:100E480006F06EF9002800F0AC8001A95E4806F0B3
:100E58003BF804465C4806F0D5F80CB90028ECD0FD
:100E68005B4A584B1468B3F91050204604F062FBF3
:100E780005FB00F1204604F059FB05214E4805F01A
:100E8800EBFDDAE7534B1868FFF7BCFC01464B480B
:100E980006F0FEF8504B0021186804F043FD1121BC
:100EA800454805F0D9FDC8E7454C4149206805F09B
:100EB800F3FC0020FFF738FF0020FFF737FF06217B
:100EC8003D4805F0C9FD206805F09EFD414B1868B6
:100ED800FFF756FCB1E73F4B1868FFF751FC0020BD
:100EE800FFF724FF002DA8D12A462021324805F01B
:100EF80099FDA2E7384B186804F0FAFE0020FFF7C6
:100F0800CBFD206804F076FA4FF44870FFF722FF13
:100F18000821294805F0A0FD8FE7FFF721FF0028E9
:100F28008BD00921244805F097FD86E7244B2649F4
:100F3800186805F0B1FC244805F060FF00211E4840
:100F480005F08AFD79E7244B0121186804F0EAFCD2
:100F580000283FF472AF1221174805F07DFD6CE7B9
:100F6800174A184B10681849012283F8242005F005
:100F780093FC0F4806F0F4FB04210F4805F06CFDC4
:100F880000283FF45AAF0020FFF786FD124B18687F
:100F980004F06CFE51E702461021074805F042FDB7
:100FA8001EE702461021044805F03CFD45E700BF56
:100FB800CC030020AC090020A00900204003002039
:100FC800B40900200009002080050020A80900209D
:100FD800F0080020F8080020EC08002038B5124B73
:100FE8001C78012C00D038BD104D2B889BB2B3B1B2
:100FF8002B88013B9BB22B800D4A13889BB24BB9BF
:101008000C4A13889BB2002BEDD01388013B9BB28E
:10101800138038BD1388013B9BB21380F0E7FFF7BC
:10102800A9FE2C80E8E700BF24070020280700203D
:10103800260700202A0700202DE9F043584B594C79
:101048001B78D4F81A0089B0132B059000F09C8007
:10105800554806F0C5F9054600282FD0524806F035
:1010680089F9524A524B044610680690186804F0F1
:1010780041F905A9ADF81C004E4806F0B5F94D48F0
:1010880006F03EFB002C7BD0454805F05BFD031FB6
:10109800DBB2012B05D9132803D0002009B0BDE825
:1010A800F083444805F0A2FB08A921F8100D424836
:1010B80005F0BCFE002009B0BDE8F0833F4BDFF827
:1010C8001081186805F0EAFB064605F08FFB074615
:1010D800304605F093FB02A9D8F8000004F000FBA5
:1010E8000298FFF711FC39460390FFF77DFC344B5B
:1010F800B4F91010009000B2091A186804F022FA26
:10110800BDF902202F4BB4F912108146891A1868CC
:1011180004F018FA2C4BADF804901B68ADF80600E3
:101128000199184604F0EEF8034630460FFA83F9A1
:101138001E14019305F062FB39460198FFF78EFCF7
:1011480003460146D8F80000049304F0CBFA0146A0
:1011580002982060039860600098E0600129049874
:10116800A4F8169026832784C4F81A007FF476AF73
:101178002A460B4805F056FC002009B0BDE8F0836C
:101188000C4806F0F9FB7FE7104D286805F0CCFA0B
:1011980000287FF45DAF286805F0AAFA208257E797
:1011A800A0090020000900204003002004090020B5
:1011B80080090020CC03002080050020B40900200D
:1011C800F4080020B00900207C090020A8090020AC
:1011D800EC080020F8B5204B204F054653F82000B6
:1011E80004F05CF9044657F8250004F0C5FB04F048
:1011F8000E040443A4B235B3194E05EB450306EBC0
:101208004306E24392B22146304605F00BFC3046D5
:1012180005F098FC0A2808D00B2805D157F82500B6
:10122800BDE8F84004F07ABBF8BD57F8250004F093
:1012380075FB2846FFF730FC0A4B53F82500BDE83C
:10124800F84004F0D7B8084B186805F0E7F900F043
:101258000E000443D0E700BFE8080020EC08002097
:10126800A0090020AC0900208009002008B5064B21
:101278001B78012B00D008BD0020FFF7ABFFBDE8AD
:10128800084000F05BBD00BF2407002008B5064BEE
:101298001B7803B908BDFFF7A1FEFFF7E7FFBDE81C
:1012A800084001F055B800BF2407002008B5054BD9
:1012B800186804F01DFD002280210348BDE808409D
:1012C80005F0B0BBEC080020A0090020F0B54FF0F5
:1012D8009042334BD3614FF48071D1618DB0D361AB
:1012E800D3690B934FF400714FF481330B98D3619A
:1012F800D161D361D3690A934FF484304FF4006508
:101308000A9BD061D561D061D36909934FF48231CA
:101318004FF48064099BD161D461D161214BD669B6
:1013280008964FF480574FF48836DDF820E0DE61E8
:10133800DF61DE61DE690796079ED861DD61D861ED
:10134800D86906900698D961DC61D961D969059197
:10135800022415490598D161D461D161D0690490FE
:1013680001254FF00110049ED061D561D061D2698A
:101378000392039AD861DD61D861DA690292029A10
:10138800D961DC61D961DA6901920199074ADA61A8
:101398000421D961DA61DB690093009B0DB0F0BDCF
:1013A80000010100000800480200010004000100DB
:1013B8002DE9F0438DB0002716464A090C46994698
:1013C8008DF80970054637D1122900F28E82DFE8C0
:1013D80011F0290077000B019D018C028C02440258
:1013E800FC011102AA01D00113007102E9018C026B
:1013F8008C028C028C0229007A4C04960C2321461C
:1014080004A88DF814908DF80E3001F00FFA8DF8BD
:101418000900002840F01A839DF809301846002872
:1014280040F0B7816C6B286B01230DF10E02FF2190
:10143800A0470DB0BDE8F08302F1FF3842463946B7
:1014480000F0E8FFA0B3D5F8C40004F01F0418B1F9
:101458004246394600F0DEFF122C00F2EA8201A370
:1014680053F824F05D180008C9140008F1150008A5
:10147800151700083B1A00083B1A000863180008F3
:10148800D3170008FD1700082F1700087B1700085E
:1014980001140008BD180008AD1700083B1A000821
:1014A8003B1A00083B1A00083B1A00085D180008A0
:1014B8009DF809000B238DF80E300028B2D068E1A2
:1014C800317805238DF80E30882900F2B782DFE8DD
:1014D80011F02302B502B5025602B5024C024C02C5
:1014E8004C024C024C024C024C024C024C024C0284
:1014F8004C023C023C02B502B5024C024C024C02C2
:101508004C024C02B502B502B50232028102B502A4
:10151800B502B502B502B502B502B502B502B5020B
:10152800B502B502B502B502B502B502B502B502FB
:10153800B502B502B502B502B502B502B502B502EB
:10154800B502B502B502B502B502B502B502B502DB
:10155800B502B5024C02B502B502B502B5023C02AD
:101568003C023C02B502B502B502B502B502B502AD
:101578004C02B502B502B5024C024C024C024C02B8
:101588004C024C024C02B5023C02B502B502B5024F
:10159800B502B5024C02B502B5024C024C02B502C6
:1015A800B502B502B502B502B502B502B502B5027B
:1015B800B502B502B502B502B50256023C023C02BC
:1015C8003C023C023C02B502B502B5023C023C02B8
:1015D800B502B502B502B502B502B502B5024C02B4
:1015E8004C024C022C070020317803238DF80E3072
:1015F800882900F22F81DFE811F0DB017D01DB0192
:10160800DB017D01C901C901C901C901C901C901BC
:10161800C901C901C901C901C901C901C901C90172
:10162800C901C901C901C901C901C901C901C90162
:10163800C9010B02F7017D01C901C901C901DB011B
:101648002D012D012D012D012D012D012D012D0122
:101658002D012D012D012D012D012D012D012D0112
:101668002D012D012D012D012D012D012D012D0102
:101678002D012D012D012D012D012D01C9012D0156
:101688002D012D012D017D017D017D01C901C901BA
:10169800C901C901DB017D01C901C901C901C9012C
:1016A800C901C901C901C901C901C901C901DB01D0
:1016B8007D012D01C901C901C901C901C9012D0156
:1016C8002D01C901C901DB01DB017D017D017D011E
:1016D8007D017D01DB01C901C9017D012D01C90120
:1016E800C901DB017D017D017D017D017D017D0158
:1016F8007D017D017D017D017D01DB012D01DB0186
:101708007D017D017D01C901C901C9010723317826
:101718008DF80E30284600F0E5FF8DF80900002806
:101728003FF480AE35E0B4787378F078317996F884
:1017380006E0C14A377A03EB042303EB00437079D0
:10174800F47903EB016300EB0E20317882FB03622E
:10175800A2EBE37300B204EB072200901BB292B233
:10176800284601F037F88DF8090000283FF45AAEF2
:101778000FE0F0787378B278317802EB002201EB51
:10178800032112B209B2284601F03EF801238DF870
:10179800093000231A466C6B286BF021A0470DB066
:1017A800BDE8F083707932797378317802EB0022E2
:1017B80001EB032192B209B2284600F0E3FF8DF84D
:1017C800090000283FF42EAEE3E777783378707984
:1017D800B4783279F17803EB072303EB044302EB87
:1017E800002203EB016192B2284600F0B9FF8DF8A0
:1017F800090014E60DF10E03317800930DF10A0289
:1018080003AB284600F0C8FFBDF90C30BDF80A004C
:10181800BDF90E108DF8141003EB43035B00002292
:101828001C1263F3070264F30F221C1464F31742BB
:101838001B1663F31F620912030A04928DF8151030
:101848008DF816008DF817306C6B286B082304AAE6
:10185800F021A0479DF80900E1E504AC00212046ED
:10186800202206F0C9F8D5F8C0600DF11200711EEB
:10187800002305E001331D2B00F8012F00F0E28062
:1018880011F8012F092AF5D1591DDA1D0933715CA8
:101898008DF81010B25C8DF81120F35C8DF81230C1
:1018A800224620236C6B286BF021A04701238DF87A
:1018B80009306EE7D5F8C02004AC013A23460CAED7
:1018C80003E003F8011B9E42EAD012F8011F181B1F
:1018D800C0B20029F5D11F28E2D8C0F11F02D2B248
:1018E8000132204406F088F8DAE7002001238DF859
:1018F8000E3094E50DF10902284600F0ABFF9DF883
:1019080009300490002B3FF489AD6C6B286B0423DD
:1019180004AAF021A0478CE57478D5F8C4002246C3
:10192800002100F077FD22460021284600F072FDD4
:101938008DF8090073E57278D5F8C400002100F02D
:101948007FFF01238DF8093023E7B4787378F078A6
:10195800327903EB042303EB004303EB02622846CE
:1019680000F058FD8DF8090059E5B27873782846DB
:1019780003EB022200F04EFD8DF809004FE5727866
:10198800284600F047FD8DF8090048E50DF10902E9
:10199800284600F05FFF9DF809300490002B3FF4C3
:1019A8003DAD6C6B286B022304AAF021A04740E5EB
:1019B8000DF10902284600F04DFF9DF8093004900A
:1019C800002B3FF42BAD6C6B286B012304AAF0218C
:1019D800A0472EE57278D5F8C400012100F030FF49
:1019E80001238DF80930D4E6D5F8C40000283FF467
:1019F80031AF012100F028FF0CAA012302F8200DC5
:101A08006C6B286BF021A04701238DF80930C0E6E4
:101A1800D5F8C40000283FF41DAF002100F014FFE2
:101A28000CAA6C6B02F8200D0123286BF021A0474B
:101A3800FFE49DF8090059E7ABAAAA2A02238DF80A
:101A48000E3007E726232422222120E76E6B286B1D
:101A580023792268F021B047EBE400BF10B5C36BCF
:101A68000446006B9847802384F8C830206BA36B2A
:101A7800BDE81040184700BFF0B583B004461E46C5
:101A8800099B01630B4FC4F8C4300A9BC4F8C030EB
:101A98000846154621460097074B089F074A03F05A
:101AA8008BFC6563A663E7632046FFF7D7FF03B0A7
:101AB800F0BD00BFC91A0008B9130008D11A000800
:101AC80008B5FFF7CBFF08BD08B5FFF7C7FF08BD8E
:101AD80030B583B002F0A2FD0B4B0C4D0C4CA3FBB0
:101AE8000030C00901F0AEFF29462046FFF716F87E
:101AF800FFF7ECFB074B009322462B4601210648D3
:101B080000F0B6FB03B030BDD34D6210BC09002015
:101B1800B8090020AC7C0008F4060020664A116869
:101B2800F0B5002900F0AF800B790479A34200F0EA
:101B38008E8053680121002B00F0AA80FF211D79B7
:101B4800AC4200F08B809368002B00F0A5801D79D3
:101B5800A54200F08A80D368002B00F0A6801D798A
:101B6800A54200F08980032960D803689C68534D1A
:101B780042F82100002245F83120E2071ED45A68B5
:101B8800042422F004025A601C605A68202422F0BF
:101B980020025A601C609A6822F0404222F03F02FC
:101BA80042F000429A609A68002AFCDB9A6822F0A8
:101BB800004222F03F0242F001029A601A6B22F0C2
:101BC8000F021A630479092C33D804EB4406A206E1
:101BD800022542EA065205FA04F422434FF0007740
:101BE80097FAA7F7B7FA87F402F00077E7401433BB
:101BF80002F0F87253F827504FF0F87494FAA4F6EC
:101C0800B6FA86F694FAA4F44FF0070E8068B4FA90
:101C180084F422FA06F60EFA06F6E240904025EA27
:101C28000602024343F827200846F0BDFF21084674
:101C3800F0BD0222A24042F0007203256FF01D069B
:101C480042EA846215FB046442EA0452C6E7096862
:101C5800036899427FF46DAF002187E71D68036828
:101C68009D427FF470AF012180E71D6803689D42A3
:101C78007FF471AF022179E71C6803689C427FF406
:101C880072AF032172E753680BB1047957E719461D
:101C9800936823B104795AE7052928BF0221D3683C
:101CA800002B3FF460AF047959E704297FF65BAF56
:101CB800032103685AE700BFE8090020C40900208F
:101CC80010B41D4B53F8203019791A68092925D802
:101CD80001EB41048B06022043EA045300FA01F1A8
:101CE8000B434FF4407191FAA1F1116B1B0D03F4F2
:101CF800F86321F4F8610B431363136C936823F0C2
:101D0800004323F03F0343F00403936013685B0729
:101D1800FCD5106C5DF8044B80B2704702238B40F1
:101D280043F0007303206FF01D0443EA816310FB46
:101D3800014143EA0153D4E7E809002070B4284C74
:101D48002378012B01D070BC7047264A264B1078A7
:101D580053F8203019791A68092933D801EB41065C
:101D68008B06022543EA065305FA01F10B434FF4AB
:101D7800407191FAA1F1116B1B0D03F4F86321F482
:101D8800F8610B431363136C936823F0004323F04B
:101D98003F0343F00403936013685B07FCD5134BC0
:101DA800116C134E53F8305089B2022231802270E0
:101DB800002DC8D003EBC00300265A6826702B46B6
:101DC80070BC184702238B4043F0007303256FF063
:101DD8001D0643EA816315FB016143EA0153C6E727
:101DE800E4090020C0090020E8090020C4090020F7
:101DF800F809002008B54FF0A04340221A60FFF709
:101E08001BF9BDE8084000F0C5BA00BF034B044801
:101E18006FF001021A6104F04BBA00BF002C0140B8
:101E28008802002008B50C4B1A69110605D56FF019
:101E380080021A61094804F075FA074B1A69D2053D
:101E480005D56FF480721A61044804F04BFABDE8B6
:101E58000840FFF7C3B800BF002C014088020020EB
:101E680010B5184CD4F82031DA6991060BD5998C45
:101E78002046C9B204F04EFF0388012B1AD0022B6A
:101E88001DD0D4F82031DA69120604D50D4804F0C3
:101E98006FFED4F82031DB691B0700D410BD094858
:101EA80004F09AFFD4F8203108221A62BDE81040E5
:101EB80000F080BA00F084FAD4F82031E3E700F0AB
:101EC80079FADEE7B805002070B5FFF7EFF9174D8E
:101ED80008262C46D5F82031DA691107204608D59E
:101EE80004F07AFFD5F820311E6200F063FAD5F8C5
:101EF8002031DA6912F0800F204603D004F038FE52
:101F0800D5F82031DA699206E6D5998C2046C9B20F
:101F180004F000FF0388012B04D0022BDAD100F073
:101F280049FAD7E700F04CFAD4E700BFB80500201B
:101F380010B50A4C2378022B06D00133DBB223708C
:101F4800BDE81040FFF7A2B901F06EF801F096FD68
:101F580001232370BDE81040FFF798B9F806002068
:101F6800044B5A69920400D470474FF400525A61E6
:101F780000F02CBA000401400D4B00B59A6942F0FC
:101F880001029A619A6983B002F001020092009AF4
:101F9800DA6942F08052DA61DB6903F08053019319
:101FA8000420019B01F0F8FC03B05DF804FB00BFBE
:101FB8000010024030B5036889B00024B3F1A04F87
:101FC8000494039405940694079401D009B030BD95
:101FD80003F1704303F5043303255A69154842F0A9
:101FE80080525A615A6902F080520092009A5A69E6
:101FF80042F400225A615A6902F400220192019ABD
:102008005A6942F400325A615B69049503F400335B
:10201800029303A90723029A039301F06DFD03A914
:102028004FF0904003950495059401F065FD09B0C3
:1020380030BD00BF0008004810B50168164A88B0D6
:10204800002391420493039305930693079301D0C9
:1020580008B010BD03F1804303F5043303A9DA691E
:1020680042F00052DA61DA6902F000520192019AF4
:102078005A6942F400325A615B6903F400330293EF
:10208800102203234FF09040029C0392049301F026
:1020980033FD08B010BD00BF007400402DE9F041C9
:1020A8000168244A88B0002391420493039305935E
:1020B8000693079302D008B0BDE8F0811E4C63690F
:1020C80043F400336361636903F400330093009BB6
:1020D800636943F480236361636903F48023019394
:1020E8004FF012084FF4004301270326042503A9E3
:1020F8004FF09040019A0393CDF81080059706960B
:10210800079501F0F9FC802303A90C480393CDF847
:10211800108005970696079501F0EEFCE36943F4F5
:102128000013E361E36903F400130293029B08B010
:10213800BDE8F0810054004000100240000400484F
:1021480070B50168184A88B000239142049303933C
:1021580005930693079301D008B070BD03F180433F
:1021680003F5043303A99A6942F400629A619A69F3
:1021780002F400620192019A5A6942F400325A61EB
:102188005B6903F40033029301220C234FF40065CA
:1021980002244FF09040029E039504940592079301
:1021A80001F0AAFC08B070BD002C014070B50168B0
:1021B800144A86B000239142029301930393049337
:1021C800059301D006B070BD03F1804303F50433D5
:1021D80001A95A6942F400325A615B6903F4003379
:1021E8000093062202234FF4E06503244FF0904049
:1021F800009E0195029303930494059201F07CFCE0
:1022080006B070BD002C014030B50168174A89B08E
:10221800002391420493039305930693079301D0F7
:1022280009B030BD03F1804303F5043303A9DA692B
:1022380042F40032DA61DA6902F400320192019A5A
:102248005A6942F400325A615B6903F4003302931D
:10225800022207230C244FF09040029D039404921D
:10226800079301F049FC09B030BD00BF00440040AD
:102278002DE9F04F87B02D4D109C05942C468246D1
:102288000F46904699460FCCDFF8B8C0284EDFF8C5
:10229800B8B0C6F800C0E646AEE80F000FCCAEE80E
:1022A8000F0094E80F00CDF800A08EE80F004B4611
:1022B80060464246394600F095F8306800F0B8FAB2
:1022C80030682322002100F0BBFA30682422012163
:1022D80000F0B6FAAC46BCE80F00DFF870E07546CF
:1022E8000FC5BCE80F000FC594E80F00114C85E836
:1022F8000F005846C4F800E004F038FC326805992D
:102308000D4B206802910192594600930B4A0C4BE1
:10231800FFF7B2FB2068CDF840A04B46424639464D
:1023280007B0BDE8F04F00F05DB800BF50050020D1
:10233800380700203C070020FD6D0008016C0008EC
:10234800DD6B0008B4000020B8050020FC0900205F
:102358000D4A13889BB21BB11388013B9BB21380B3
:102368000A4A13889BB2012B03D91388013B9BB2FD
:102378001380074A13889BB2012B03D91388013BAA
:102388009BB21380704700BF360700203407002037
:10239800FA06002038B5064C0546206800F036F8E5
:1023A800A84200D038BD2068BDE8384000F044BAE3
:1023B80038070020014B00221A807047340700209C
:1023C800014B4F221A8070473407002008B5FEF7EA
:1023D8008DF918B1BDE80840FEF77AB9BDE80840A4
:1023E800FEF770B930B4029C8462002580F82C5046
:1023F80001770262436230BC704700BF037F8B42A3
:1024080086BF80F82C1001200020704790F82C001F
:10241800704700BF30B5144690F82C30056A426A00
:1024280055F8235052F8232083B05B2900F23B81F2
:10243800DFE811F06900390139016D0039017E00CA
:1024480084008A0090009C00A200A800AE00BA0098
:10245800C000C600CC00E6003901390100011901AD
:102468003901390139013901390139013901390194
:102478003901390139013901390139013901390184
:102488003901390139013901390139013901390174
:102498003901390139013901390139013901390164
:1024A8003901390139013901390139013901390154
:1024B800390139013901320139013901390139014B
:1024C8003901390139013901390139013901390134
:1024D8003901390139013901390139013901390124
:1024E800390139013901390139015C007C4981FB25
:1024F8000431A1EBE471284609B20022FEF708F97D
:10250800012003B030BDE1B2FFF778FFF9E714F01E
:10251800FF0400F0CA80012C40F0C2802846FEF774
:10252800A7F9002201462846FEF7F2F82046E8E718
:10253800106821B202F0EEFF0120E2E7106821B234
:1025480002F0EAFF0120DCE7106821B202F0F4FF94
:102558000120D6E72846FEF7A7F90190ADF8044018
:1025680028460199FEF7E8F80120CAE7506821B229
:1025780002F0D0FF0120C4E7506821B202F0CCFF7E
:102588000120BEE7506821B202F0D6FF0120B8E76B
:102598002846FEF789F90190ADF8064028460199CA
:1025A800FEF7CAF80120ACE7906821B202F0B2FF4A
:1025B8000120A6E7906821B202F0AEFF0120A0E753
:1025C800906821B202F0B8FF01209AE7816A51F8B9
:1025D8002330190F0929C3F303637CD0092B5FD17A
:1025E800D569002D5CD001AA0DF10201284605F03D
:1025F80095F921B22846BDF9042005F097F94FE076
:10260800816A51F82330190F0929C3F303635AD09B
:10261800092B45D1D569002D42D001AA0DF102013F
:10262800284605F07BF922B22846BDF9021005F0CC
:102638007DF935E0816A51F82330190F0929C3F370
:1026480003633CD0092B2BD1D5694DB301AA0DF1F9
:102658000201284605F06EF922B22846BDF902109B
:1026680005F076F91CE0816A51F82330190F092921
:10267800C3F303632BD0092B12D1D56985B101AA05
:102688000DF10201284605F055F921B22846BDF999
:10269800042005F05DF903E021B22846FEF724F98D
:1026A800012003B030BD00202BE72846FEF718F9BB
:1026B800224601462846FEF733F8012021E7092B78
:1026C8009569C2D1C0E7092B9569A4D1A2E7092B66
:1026D8009569D3D1D1E7092B956982D180E700BFED
:1026E800ABAAAA2A10B5036A90F82C20013953F82E
:1026F80022400D292CD8DFE801F01712070C0C0E28
:102708001C26212B2B2B2B122046FEF775F80628AA
:1027180020D0012010BD2046FEF76EF820B12046DB
:10272800FEF722F8012010BD2046FEF713F801201D
:1027380010BD2046FEF71CF8012010BD2046FEF70C
:10274800D7F8012010BD2046FEF716F8012010BD6D
:10275800002010BD2046FEF77FF8012010BD00BF05
:1027680010B5074B90F82C40006A83FB01E3A3EBFC
:10277800E17150F8240009B2FDF7CAFF012010BD2D
:10278800ABAAAA2A10B5036A90F82C4053F8240083
:10279800FDF7C6FF012010BDF8B590F82C40406A3F
:1027A80050F82400446994B120461E4617460D4649
:1027B80004F0FCFD29463880204604F0FDFD29463A
:1027C8003080204604F000FE069B01241880204635
:1027D800F8BD00BFF8B51F4690F82C40436ABDF914
:1027E800186053F824305C690D46204604F0CCFD8F
:1027F8003A462946204604F0CDFD20463246294671
:1028080004F0CEFD0120F8BD00B583B0036AADF831
:10281800041090F82C10ADF8062053F82100019907
:10282800FDF78AFF03B05DF804FB00BF0020704786
:10283800436903B118477047836903B11847704764
:10284800436803B118477047836803B11847892064
:10285800704700BF70B5456A90F82C30046A55F887
:10286800235054F8236090B0002A00F0918001248E
:102878001470812900F25083DFE811F0D2010B02B5
:102888001C032B02240320039B01CE019401CA01DF
:10289800C601C2018200BC01B801B4019F01170240
:1028A8004E034E03470233024E034E034E032F02DC
:1028B80013020F020202FE016E020003FB024E0326
:1028C800F402EF020A03050306020003FB02940167
:1028D80082008E02890214030F034E034E03CE02B8
:1028E800BB025A02A70293023B034E034E034E0358
:1028F8004E034E034E033403E802E1022D03820027
:102908007502EA014E034E034E034E034E034E0377
:102918004E034E034E034E034E034E034E034E0327
:102928004E034E034E034E034E034E034E034E0317
:102938004E03DD014E034E034E034E034E034E037A
:102948004E034E034E034E034E034E034E034E03F7
:102958004E034E034E034E03D901D50199014E0390
:102968002B03C0014E034E034E034E034E034E038A
:102978004E034E034E034E034E034E034E03880090
:102988003046FDF791FF001410B070BD0020FBE742
:102998008129FBD801A252F821F000BF292C000898
:1029A8009B2C0008BD2E0008DB2C0008CD2E00084B
:1029B800C52E0008BB2B0008212C0008AD2B0008F1
:1029C800192C0008112C0008092C00088929000876
:1029D800FD2B0008F52B0008ED2B0008C32B000881
:1029E800B32C00089529000895290008132D000824
:1029F800EB2C00089529000895290008952900085E
:102A0800E32C0008AB2C0008A32C0008892C000834
:102A1800812C0008612D0008852E00087B2E0008F7
:102A2800952900086D2E0008632E0008992E0008CD
:102A38008F2E0008912C0008852E00087B2E000898
:102A4800AD2B000889290008A12D0008972D000842
:102A5800AD2E0008A32E0008952900089529000826
:102A6800212E0008FB2D0008392D0008D32D000861
:102A7800AB2D0008FB2E00089529000895290008B1
:102A88009529000895290008952900089529000826
:102A9800ED2E0008552E0008472E0008DF2E0008EE
:102AA800892900086F2D0008592C0008952900086D
:102AB80095290008952900089529000895290008F6
:102AC80095290008952900089529000895290008E6
:102AD80095290008952900089529000895290008D6
:102AE80095290008952900089529000895290008C6
:102AF80095290008952900089529000895290008B6
:102B080095290008952900083F2C000895290008F8
:102B18009529000895290008952900089529000895
:102B28009529000895290008952900089529000885
:102B38009529000895290008952900089529000875
:102B48009529000895290008952900089529000865
:102B580095290008372C00082F2C0008B72B0008EF
:102B680095290008DB2E0008052C00089529000887
:102B78009529000895290008952900089529000835
:102B88009529000895290008952900089529000825
:102B98009529000895290008952900089529000815
:102BA800952900083046FDF77FFE00B2ECE6C048E4
:102BB800EAE6286802F0B6FCE6E6826A52F82330B4
:102BC8001A0F092AC3F3036300F0DF81092B40F0D1
:102BD8009980E869002800F095800FAA0EA904F0F2
:102BE8009DFE8FE0A86802F0A9FCCDE6A86802F077
:102BF80099FCC9E6A86802F091FCC5E60220C3E684
:102C0800686802F09BFCBFE6686802F08BFCBBE6D4
:102C1800686802F083FCB7E6286802F08FFCB3E628
:102C2800FFF7F4FBB0E6286802F084FCACE62868FD
:102C380002F07EFCA8E63046FDF7E2FD01283046AA
:102C480000F0A881FDF714FE00EB400040009BE671
:102C5800826A52F823301A0F092AC3F3036300F07B
:102C68006D81092B7FF492AEE86900283FF48EAE9F
:102C780004F08AFE001487E60121FFF7E5FD83E6EC
:102C88000021FFF7E1FD7FE63046FDF7FDFD00146A
:102C98007AE6A86A03F064FF76E6E86B02F0D6FBF2
:102CA80072E6E86A02F018FC6EE6826A52F823308F
:102CB8001A0F092AC3F3036300F03681092B05D1E3
:102CC800E86918B10FAA0EA904F028FEBDF93C0066
:102CD8005AE63046FDF794FD56E6286B02F00CFBE9
:102CE80052E6826A52F823301A0F092AC3F30363A3
:102CF80000F01F81092B05D1E86918B10FAA0EA9A8
:102D080004F018FEBDF938003EE6826A52F8233016
:102D18001A0F092AC3F3036300F02D81092BD5D1BB
:102D2800E8690028D2D00FAA0EA904F003FECDE767
:102D3800826A52F823301A0F092AC3F3036300F09A
:102D48000B81092B7FF422AEE86900283FF41EAE00
:102D580004F0D0FD00B217E63046FDF781FD00EB28
:102D68004000400010E6826A52F823301A0F092A00
:102D7800C3F3036300F0E780092B7FF407AEE8692B
:102D880000283FF403AE04F0FBFD0014FCE53046D8
:102D9800FDF792FD0014F7E53046FDF78DFD00B212
:102DA800F2E5826A52F823301A0F092AC3F3036343
:102DB80000F0DC80092B7FF4E9ADE86900283FF4D6
:102DC800E5AD04F08BFD00B2DEE5826A52F82330EF
:102DD8001A0F092AC3F3036300F0A180092B7FF4BB
:102DE800D5ADE86900283FF4D1AD04F083FD0014A7
:102DF800CAE5826A52F823301A0F092AC3F303631B
:102E080000F0BE80092B7FF4C1ADE86900283FF4CB
:102E1800BDAD03F023FDB7E5826A52F823301A0FDF
:102E2800092AC3F3036300F09C80092B7FF4AEAD3D
:102E3800E86900283FF4AAAD03F0D8FCA4E5686A65
:102E480003F0D0FD00EB400040009DE50369002B36
:102E58003FF49CAD0121984796E53046FDF70CFDFF
:102E680000B291E5686900283FF490AD04F0B4FA27
:102E78008AE53046FDF710FD001485E53046FDF77C
:102E88000BFD00B280E53046FDF7FEFC00B27BE5A5
:102E98003046FDF7F1FC001476E53046FDF716FDE7
:102EA800001471E53046FDF711FD00B26CE500BF76
:102EB8007A84A634A86A03F045FE65E5286802F01E
:102EC8002DFB61E53046FDF7D3FC00EB40004000E8
:102ED8005AE5012058E5686A03F086FD00EB4000DA
:102EE800400051E50369002B3FF450AD002198479D
:102EF8004AE5826A52F823301A0F092AC3F303639A
:102F080026D0092B7FF442ADE86900283FF43EAD96
:102F180004F0E4FC001437E50020107034E5092BB8
:102F2800A8697FF45FAF5CE7092BA8697FF4C9AE95
:102F3800C6E6092BA8697FF4E0AEDDE6092BA8698F
:102F48007FF493AE90E6092BA8697FF419AF16E7D2
:102F5800092BA869D9D1D7E7092BA8697FF4F5AE61
:102F6800F2E6092BA8697FF464AF61E7092BA86929
:102F78007FF424AF21E7092BA8697FF4D2AECFE60E
:102F8800092BA8697FF442AF3FE7092BA8697FF4B2
:102F980021AE1EE6FDF758FC00EB40004000F3E4CC
:102FA800054BD3F888204FF0006142F47002C3F853
:102FB80088209960704700BF00ED00E038B50E4AE0
:102FC8000E4B12781B6805464FF47A70B0FBF2F08E
:102FD800B3FBF0F000F036FD08B90F2D01D9012040
:102FE80038BD0446024629464FF0FF3000F0E6FCA3
:102FF800034B20461D6038BD00070020FC0600205A
:1030080004070020074A08B5136843F0100313604B
:10301800032000F0C1FC0420FFF7D0FFFEF7ACFF4F
:10302800002008BD00200240034A044B11681B78A9
:103038000B441360704700BFC80A00200007002037
:10304800014B1868704700BFC80A002038B504460D
:10305800FFF7F6FF631C054602D0044B1B781C449F
:10306800FFF7EEFF401B8442FAD838BD0007002066
:10307800F0B583B000230193002800F08F80036C23
:1030880013F01003044616D1056C002D79D00268A0
:103098009168C90069D591688F0066D4216CCE0605
:1030A80000D463B1236C23F0120343F01003012012
:1030B800236403B0F0BD036CDB06F3D402689068A8
:1030C80010F00400EED1216C21F4817141F002016D
:1030D8002164936803F00303012B00F09F806F497C
:1030E80065688B6823F440332B438B60676BE1681A
:1030F800A368657E94F82060012F43EA010318BF96
:103108004FF4805043EA4533012E43EA00037DD053
:10311800A16A012902D0E06A01430B43916811F0CA
:103128000C0F0CD1D06894F83010257E20F4804024
:10313800490020F0020041EA8531D0600B43D56890
:103148005749206929400B430128D36056D0136B97
:1031580023F00F03136300206064236C23F0030340
:1031680043F00103236403B0F0BD236C23F0120382
:1031780043F010032364636C43F001036364236C1E
:1031880090E74564C564856480F83C50FEF712FFFB
:1031980022689368DE0004D5002379E7012003B094
:1031A800F0BD936803F00303012B47D0236CD806C6
:1031B800F2D4216C3B4B3C481B6821F4885121F028
:1031C800020141F002012164916821F040519160AF
:1031D800A0FB03139B0C916803EB83035B0041F096
:1031E800805191600193019B002B3FF451AF019BEB
:1031F800013B0193019B002BF9D149E7116BE3696E
:1032080021F00F01013B0B431363A4E75DB9616A29
:10321800013943EA414343F4803379E71368DD0712
:103228007FF55DAF62E7216C21F0220141F02001BA
:103238002164616C41F00101616469E71368DD078D
:10324800B4D5936803F00D03012B0AD0236C43F027
:1032580010032364636C43F001036364236C01234C
:1032680016E79368032143F0020393601160FFF7A8
:10327800E7FE054604E0FFF7E3FE401B022809D8F5
:103288002268936813F00103F5D1216CC9063FF554
:10329800FFAE8EE7236C2268D9E700BF0003005019
:1032A80007C0F0FFFC06002083DE1B43F0B5034691
:1032B80083B093F83C200020012A019047D01A6877
:1032C800CC68956801206D0783F83C0008D51A6C16
:1032D80042F020021A64002283F83C2003B0F0BDBB
:1032E8004868042836D9092870D800EB4000400007
:1032F8001E38566B0D681F27874026EA070605FA11
:1033080000F030435063906810F00C0F33D1092D52
:103318004ED905EB45071E3F90698E684FF0070EA2
:103328000EFA07FE20EA0E00BE4030439061D068D6
:103338000E694F69C0F3C1004000013E07FA00F072
:10334800032E00F2F280DFE806F07D73695F022049
:1033580003B0F0BD00EB4000166B0D6840001F275E
:10336800874026EA070605FA00F0304310639068A4
:1033780010F00C0FCBD0906800F00300012813D098
:10338800012C00F0A480D2F8B0100120A84021EA56
:103398000001C2F8B010102D72D0112D00F0AE80CF
:1033A800122D59D0002096E71068C007E8D5F9E734
:1033B80005EB450E50698E68072707FA0EF720EAD5
:1033C800070006FA0EF630435061B0E70E2800EB0E
:1033D80040004FEA40000BD83C38966B0D681F2719
:1033E800874026EA070605FA00F0304390638AE72B
:1033F8005A38D66B0D681F27874026EA070605FA54
:1034080000F03043D0637EE7D76E6A4E3E4046F008
:103418000046304340EA8560D066ACE7976E654E5B
:103428003E4046F00046304340EA85609066A2E799
:10343800576E604E3E4046F00046304340EA856095
:10344800506698E7176E5B4E3E4046F000463043A4
:1034580040EA856010668EE7574989684D02A1D415
:10346800916801F00301012940F09C801268D0079F
:1034780040F198801A6C42F020021A6401202AE771
:103488004D4989680F028DD4916801F00301012923
:1034980000F08380B2F1A04F84D14749474C8A6835
:1034A800474842F400028A602268A0FB0212920C8C
:1034B80002EB820252000192019A002A3FF472AF95
:1034C800019A013A0192019A002AF9D16AE7D2F8E1
:1034D800B000AC400443092DC2F8B04040D905EB18
:1034E80045008E689469A0F11B0107278F4006FAF2
:1034F80001F024EA0701014391614CE72E498968EC
:10350800CE013FF54FAF916801F00301012902D1C7
:103518001168C907AED4B2F1A04F7FF443AF264972
:103528008A6842F080728A603CE7166EA80606F048
:10353800F84686422CD0566E06F0F846B04222D0A5
:10354800966E06F0F846B04218D0D66E06F0F846E9
:10355800B0427FF410AFD06E20F00040D0660AE78A
:10356800681C8E68546900EB400107278F4006FAF3
:1035780001F024EA0701014351610EE7966E26F037
:1035880000469666E1E7566E26F000465666D7E78F
:10359800166E26F000461666CDE71168CC073FF593
:1035A80069AF77E704498A6842F480028A6000209C
:1035B80091E600BF00F0FF8300030050FC060020E6
:1035C80083DE1B43F0B5024683B092F83C300020FE
:1035D800012B019000F0A0801369012082F83C00C3
:1035E800002B4CD14B68012B00F03F81106C136805
:1035F80040F02000106401209C6825070DD44C7F02
:10360800002C40F09B800C7F8E7FDD68240544EA07
:10361800465425F440152C43DC609C6814F00C0FCC
:103628005AD10C6A4D7F012CDC6824F0007400F03C
:103638004781012DDC6000F00D810C68092C6ED8E3
:1036480004EB440E5D698E68072707FA0EF725EA32
:10365800070506FA0EF635435D61DD680E694F69A8
:10366800C5F3C1056D00013E07FA05F5032E00F20A
:103678003E81DFE816F0CC00C0002600B4008C695B
:103688008442AFD0D06C002869D10B6AD464012B76
:10369800906400F06681486A013C034323434D6807
:1036A8000E68D46405EB4505680002301F24844089
:1036B80023EA040306FA00F0034393641368002026
:1036C8009AE7D3F868E0AF4EA70647F000470EEA3E
:1036D800060637433D439D669C6804F00304012CAD
:1036E80000F0BE80CC68012C00F0D0800D68D3F8C3
:1036F800B0100124AC4021EA0401C3F8B010102D29
:1037080047D0112D00F08F80122D00F0DD800023AE
:1037180082F83C3003B0F0BD022003B0F0BD04EBEA
:1037280044071E3F9D698E684FF0070E0EFA07FE8C
:1037380025EA0E05BE4035439D618EE7DC688E7F25
:103748000D7F24F4401444EA4654012DDC607FF4D4
:1037580064AF146C44F02004284614645DE74B6899
:103768000E68956C03EB43035B0002331F249C40F7
:1037780025EA040506FA03F301381D439564D0646D
:1037880000289BD11368804CDE6C26403543DD64ED
:1037980032E77E4989680F02B9D4996801F00301BC
:1037A800012900F0E480B3F1A04FB0D17749784DFA
:1037B8008B68784C43F400038B602B68A4FB0313DD
:1037C8009B0C03EB83035B000193019B002B9ED0B2
:1037D800019B013B0193019B002BF9D197E7D3F89B
:1037E8006CE0684EA70647F000470EEA0606374326
:1037F8003D43DD6670E7D3F864E0624EA70647F004
:1038080000470EEA060637433D435D6664E7D3F892
:1038180060E05C4EA70647F000470EEA060637430D
:103828003D431D6658E759498968CE013FF56FAF9A
:10383800996801F00301012902D11968CC0750D415
:10384800B3F1A04F7FF463AF50498B6843F08073A6
:103858008B605CE7146C44F0200428461464ECE6A2
:103868001C68E4073FF553AF3CE70B6A012B7BD09C
:10387800486A0C68034343EA04241368424DD86C31
:1038880028402043D86400209464B5E60D68D3F836
:10389800B060AC403443092DC3F8B04042D905EBC1
:1038A80045048F689E69A4F11B014FF0070E0EFABC
:1038B80001FE07FA01F426EA0E01214399611EE789
:1038C80044EA4564DC60B8E6304989684D023FF552
:1038D8001EAF996801F0030101294CD11B68DB0771
:1038E80049D5136C43F02003136401200FE71D6EC4
:1038F800A40605F0F845A54224D05D6E05F0F8450C
:10390800AC4229D09D6E05F0F845AC421FD0DD6E63
:1039180005F0F845AC427FF4DFAEDC6E24F00044DD
:10392800DC66D9E66C1C8F685E6904EB44014FF0D5
:10393800070E0EFA01FE07FA01F426EA0E012143EA
:103948005961DEE61D6E25F000451D66D5E79D6EC2
:1039580025F000459D66DAE75D6E25F000455D6659
:10396800D0E7631E1C469AE60C68240285E71968AE
:10397800C907B6D417E705498B6843F480038B6001
:10398800C5E600BF00F0FF83002008820003005056
:10399800FC06002083DE1B43074AD3684FF6FF016D
:1039A8000B40000243F0BF6300F4E06043F40033CF
:1039B8000343D360704700BF00ED00E0184B70B4BC
:1039C800DC68C4F30224C4F10706042E04F10403DE
:1039D80028BF0426062B17D9033C0125A540013D25
:1039E8002A400123B340013B1940A140002841EA85
:1039F80002010CDB00F1604000F561400901C9B229
:103A080080F8001370BC704700221446E9E7054BA4
:103A180000F00F0009010344C9B2197670BC704761
:103A280000ED00E0FCEC00E0002807DB00F01F01DF
:103A380001234009024A8B4042F82030704700BFFA
:103A480000E100E00138B0F1807F0ED2084B10B4DD
:103A5800084C5860F02084F8230000220721104603
:103A68009A6019605DF8044B70470120704700BFE9
:103A780010E000E000ED00E0704700BF08B5FFF778
:103A8800FBFF08BD88B1037910B503F0FF020446B7
:103A98003BB10023022101222171184623612271C2
:103AA80010BD4271FEF7C8FAF3E70120704700BF66
:103AB8004379012B1DD0022370B40371046891E887
:103AC800480040F6FE7521689540334321EA050118
:103AD80093400B4323602368C02101FA02F20125B9
:103AE800002123EA020222600571417170BC084678
:103AF80070470223184670478C460968002900F071
:103B0800D9802DE9F04FDFF8C0E183B000254FF0F0
:103B1800010879E04FEA45090323D0F800B003FA19
:103B280009F3DB4304F003060BEA030B06FA09F674
:103B38000AF1FF3A46EA0B06BAF1010F066040F2B5
:103B48009880C668DCF80820334002FA09F21A4364
:103B5800E300C26054D5584B574A9B6943F00103B0
:103B68009361936925F0030606F1804603F001038B
:103B780006F58036019305F00303019AB2689B00AD
:103B88004FF00F0909FA03F9B0F1904F22EA090A38
:103B980000F08680494A904200F08480484A90426A
:103BA80000F08380474A90420BBF4FF0030905227B
:103BB80009FA03F302FA03F343EA0A03B360DEF8EF
:103BC8000030FA43E60354BF13403B43CEF80030BD
:103BD800DEF80430A60354BF13403B43CEF804304C
:103BE800DEF80830E60254BF13403B43CEF80830F5
:103BF800DEF80C30A40254BF13403B43CEF80C301F
:103C0800013531FA05F348D008FA05F212EA01073E
:103C1800F6D0DCF8044024F0100ABAF1020F7FF461
:103C280079AF4FEAD50900EB890905F00703D9F800
:103C380020609B004FF00F0A0AFA03FB26EA0B0AE2
:103C4800DCF8106006FA03F343EA0A03C9F82030E7
:103C58004FEA45090323D0F800A003FA09F3DB4330
:103C680004F0030603EA0A0A06FA09F646EA0A060F
:103C78000660866806EA030ADCF80C6006FA09F6AC
:103C880046EA0A068660D0F804A0C4F300162AEAB9
:103C98000202AE401643466053E703B0BDE8F08F1A
:103CA800002389E708FA03F386E74FF0020909FAC7
:103CB80003F381E7704700BF00100240000400488A
:103CC80000080048000C0048000401400AB981625D
:103CD80070478161704700BF002851D0F8B590F84F
:103CE8004130044603F0FF02002B40D02368E0680F
:103CF800242284F841201968626821F0010122F029
:103D0800706219601A619A68012822F400429A6068
:103D1800A26831D042F4044202289A6004BF4FF4EA
:103D280000625A6059682269D4F814E0A769E0690A
:103D3800266A41F0007141F400415960DD6842EAA9
:103D48000E0242EA0722304325F40045DD60DA60BE
:103D580018601968002241F00101202519601046F9
:103D6800626484F84150226384F84220F8BD80F8E8
:103D78004020FEF793F9B9E742F400429A60D1E790
:103D88000120704790F84130DBB2202B01D002208F
:103D98007047024690F840000128F8D010B4106827
:103DA800242482F84140046824F001040460046873
:103DB80024F48054046004682143016001680024ED
:103DC80041F001010160204682F8404082F841300C
:103DD8005DF8044B704700BF90F84130DBB2202BF0
:103DE80001D002207047024690F840000128F8D020
:103DF80010B41068242482F84140046824F00104B7
:103E08000460046824F4706444EA012101600168D4
:103E1800002441F001010160204682F8404082F808
:103E280041305DF8044B7047002800F0DE822DE930
:103E3800F0430368D90783B0044643D5B8494A68B4
:103E480002F00C02042A00F0B2814A6802F00C0267
:103E5800082A00F0A8816368B3F5803F00F01A8251
:103E6800002B00F06381B3F5A02F00F0B182AC4BBA
:103E78001A6822F480321A601A6822F480221A60C2
:103E8800A74DA268EB6A23F00F031343EB62FFF719
:103E9800D7F84FF400380746012605E0FFF7D0F8B9
:103EA800C01B642800F27B8198FAA8F32A6898FA64
:103EB800A8F3B3FA83F303F01F0306FA03F31342DC
:103EC800ECD023689F0742D5954A516811F00C0F32
:103ED80000F0CA80516801F00C01082900F0C08088
:103EE8002269002A00F0B081012292FAA2F3B3FA03
:103EF80083F303F1845303F584139B0016461A6079
:103F0800FFF79EF84FF002080746854D05E0FFF7DA
:103F180097F8C01B022800F2428198FAA8F32A6891
:103F280098FAA8F3B3FA83F303F01F0306FA03F32E
:103F38001342ECD02968F82292FAA2F26369B2FA25
:103F480082F221F0F80193400B432B6023681D0790
:103F580021D458074DD5724BDA69D10040F1C2809F
:103F68004FF000086F4D2B68DA0540F10881E368CF
:103F7800012B00F0A681002B00F03081052B684B47
:103F88001A6A00F0C88122F001021A621A6A22F045
:103F980004021A629AE1A269002A7CD0012292FAEC
:103FA800A2F1614B5E4EB1FA81F10B449B001546BC
:103FB8001A60FFF745F84FF00208074605E0FFF7DB
:103FC8003FF8C01B022800F2EA8098FAA8F398FA92
:103FD800A8F398FAA8F3726A98FAA8F3B3FA83F3E5
:103FE80003F01F0305FA03F31342E8D023685807C8
:103FF800B1D4E06980B34A4D6B6803F00C03082B19
:1040080000F04E8102284FF0807300F08C8193FA03
:10401800A3F3B3FA83F303F1845303F584139B00EA
:1040280000221A60FFF70CF84FF0007407460126CB
:1040380005E0FFF705F8C01B022800F2B08094FAEB
:10404800A4F32A6894FAA4F3B3FA83F303F01F03E2
:1040580006FA03F31342ECD1002003B0BDE8F08365
:104068005268D6033FF53CAF022292FAA2F12C49DE
:10407800086892FAA2F2B2FA82F202F01F02012153
:1040880001FA02F2024239D022698A4236D001206E
:1040980003B0BDE8F083012595FAA5F1224B204E27
:1040A800B1FA81F10B449B004FF002081A60FEF749
:1040B800C7FF074604E0FEF7C3FFC01B02286ED8FF
:1040C80098FAA8F398FAA8F398FAA8F3726A98FAF3
:1040D800A8F3B3FA83F303F01F0305FA03F31342BB
:1040E800E9D183E7DA6942F08052DA61DB6903F0EB
:1040F80080530193019B4FF0010833E7084DF821E5
:10410800286891FAA1F16269B1FA81F120F0F8000A
:104118008A4002432A601D077FF51BAF3BE700BFBB
:10412800001002400070004020819010B04D2B68B4
:1041380023F480332B602B6823F480232B60EB6AF5
:10414800A26823F00F031343EB62FEF779FF4FF4E5
:1041580000380746012604E0FEF772FFC01B6428FA
:104168001DD898FAA8F32A6898FAA8F3B3FA83F343
:1041780003F01F0306FA03F31342EDD1A1E62B68FF
:1041880043F480732B60FEF75BFF06462B68DB0564
:104198003FF5EDAEFEF754FF801B6428F6D90320E7
:1041A80003B0BDE8F0834A68D2037FF554AE4FF4FC
:1041B800003292FAA2F18E49086892FAA2F2B2FA93
:1041C80082F202F01F02012101FA02F202423FF4D8
:1041D80079AE6268002A7FF475AE58E7844D2B6A81
:1041E80023F001032B622B6A23F004032B62FEF7F2
:1041F80027FF4FF002090746012613E099FAA9F3B1
:104208006A6A99FAA9F3B3FA83F303F01F0306FA6B
:1042180003F313420ED0FEF713FF41F28833C01B9D
:104228009842BCD899FAA9F399FAA9F3002BE5D0DA
:104238002A6AE6E7B8F1000F3FF4DBAE6C4AD369AF
:1042480023F08053D361D4E6012595FAA5F3B3FA98
:1042580083F303F1845303F584139B004FF00208A2
:104268001A60FEF7EDFE624E074604E0FEF7E8FE30
:10427800C01B022893D898FAA8F3326898FAA8F3D2
:10428800B3FA83F303F01F0305FA03F31342EDD1E6
:1042980023685CE6564A136843F480331360EFE5FD
:1042A80001283FF4DAAE6B68226A03F48031914248
:1042B8007FF4EDAE606A03F47013181A18BF01207A
:1042C800CBE64B4A136A43F001031362FEF7B8FECC
:1042D8004FF002090746464E012514E099FAA9F362
:1042E800726A99FAA9F3B3FA83F303F01F0305FA84
:1042F80003F313429ED1FEF7A3FE41F28833C01B9D
:1043080098423FF64CAF99FAA9F399FAA9F3002B12
:10431800E4D0326AE5E742F004021A621A6A42F00F
:1043280001021A62D2E793FAA3F3B3FA83F303F113
:10433800845303F584139B0000221A60FEF780FE65
:104348004FF000780746012605E0FEF779FEC01B0E
:1043580002283FF624AF98FAA8F32A6898FAA8F337
:10436800B3FA83F303F01F0306FA03F31342ECD105
:104378006A68636A216A22F474120B4313436B6000
:104388004FF0807393FAA3F3B3FA83F303F18453E2
:1043980003F584139B004FF000741E60FEF750FE77
:1043A800134E0746012505E0FEF74AFEC01B02280A
:1043B8003FF6F5AE94FAA4F3326894FAA4F3B3FA8C
:1043C80083F303F01F0305FA03F31342ECD043E62B
:1043D80003F18043A3F53C331A6842F480221A6043
:1043E8001A6842F480321A604AE50120704700BF1B
:1043F8000010024078B1664A136803F007038B4245
:104408000BD2136823F007030B431360136803F000
:104418000703994201D00120704703682DE9F04154
:104428009F0706D55B4C8568626822F0F0022A4334
:104438006260DE0704460D4630D54268012A00F066
:104448009480022A0CBF4FF00073022393FAA3F161
:104458005049086893FAA3F3B3FA83F303F01F03F0
:10446800012101FA03F3034228D04A4E736823F06E
:10447800030313437360FEF7E3FD41F28837804678
:1044880005E0FEF7DDFDA0EB0800B8426AD87368C6
:10449800626803F00C03B3EB820FF2D13C4A136855
:1044A80003F007039D420CD2136823F007032B4344
:1044B8001360136803F007039D4202D00120BDE892
:1044C800F0812368580706D53249E0684A6822F423
:1044D800E06202434A60190707D52E4A21695368EA
:1044E80023F4605343EAC10353602A4B5A6802F02D
:1044F8000C01082917D02849264BF0225B6892FA4C
:10450800A2F2B2FA82F203F0F003D340234A24481D
:10451800D35C244A006821FA03F31360FEF74EFDCA
:104528000020BDE8F0814FF4701191FAA1F1B1FAC1
:1045380081F102F47010C8401B4CD96A235C0F202B
:1045480090FAA0F0B0FA80F001F00F01C1401748CE
:10455800D203405C4ABF10491549B1FBF0F101FB99
:1045680003F1C9E70320BDE8F0814FF4003393FA63
:10457800A3F10849096893FAA3F3B3FA83F303F0A4
:104588001F0302FA03F30B427FF46FAF96E700BFF5
:10459800002002400010024000127A00CC7C000883
:1045A80004070020FC060020E47C0008F47C0008D6
:1045B80000093D00144A536803F00C01082921D171
:1045C8004FF4701191FAA1F103F47010B1FA81F16E
:1045D80020FA01F10D48D26A405C0F2191FAA1F14D
:1045E800DB03B1FA81F102F00F024CBF084B094B13
:1045F80022FA01F208498A5C48BFB3FBF2F303FBD5
:1046080000F070470248704700100240E47C000840
:1046180000127A0000093D00F47C0008014B18687C
:10462800704700BFFC060020084B4FF4E0625B684F
:1046380092FAA2F2B2FA82F203F4E063D340044998
:10464800044ACB5C1068D840704700BF0010024095
:10465800DC7C0008FC060020084B4FF460525B68C5
:1046680092FAA2F2B2FA82F203F46053D3400449F8
:10467800044ACB5C1068D840704700BF0010024065
:10468800DC7C0008FC0600202DE9F04304460068A5
:10469800C50383B03CD5794BDA69D10040F1A180DC
:1046A800774D2B68DA054FF0000640F1AA80734D6C
:1046B8002B6A13F4407320D0616801F4407293426E
:1046C8001CD0296A4FF4803321F4407093FAA3F286
:1046D8006C4FB2FA82F23A4492004FF0010EC2F8DF
:1046E80000E093FAA3F3B3FA83F33B449B00002260
:1046F800CF071A60286200F19B8061685F4A136ADD
:1047080023F440730B431362002E40F08C80206822
:10471800C50706D5594AA168136B23F003030B4359
:104728001363810606D5554AE168136B23F010031D
:104738000B431363820306D5504A216B536823F455
:1047480080030B435360430606D54C4A2169136B1B
:1047580023F020030B431363070406D5474A616916
:10476800136B23F040030B431363860506D5434AB6
:10477800E169536823F400030B435360050606D52B
:104788003E4AA169D36A23F4F8730B43D362C10488
:1047980006D53A4A216A136B23F480730B431363DB
:1047A800420306D5354A616A136B23F480630B43D1
:1047B800136303030DD410F4801007D02F4AE16A65
:1047C800136B23F400530B431363002003B0BDE8BD
:1047D800F0832A4AA16A136B23F400630B43136323
:1047E800E9E7DA69264D42F08052DA61DB6903F0C5
:1047F80080530193019B2B68DA054FF001063FF5C2
:1048080056AF2B6843F480732B60FEF719FC0746FC
:104818002B68DB053FF54BAFFEF712FCC01B642885
:10482800F6D90320D2E7D36923F08053D3616EE72A
:104838007746FEF705FC4FF00209804615E099FA25
:10484800A9F36A6A99FAA9F3B3FA83F303F01F0389
:1048580007FA03F313427FF450AFFEF7F1FB41F27E
:104868008833A0EB08009842DBD899FAA9F399FAA3
:10487800A9F3002BE3D02A6AE4E700BF0010024046
:10488800007000400081901000285BD038B590F887
:104898003D30044603F0FF02002B35D023682A4937
:1048A800022284F83D208B421A6832D0B3F1804F3F
:1048B80036D001F5A0518B4216D001F580618B42AC
:1048C80012D001F580618B420ED0A569E06861685D
:1048D80022F080022A431A60D862996201225A6142
:1048E800002084F83D2038BD2069A16922F4407277
:1048F800024322F080020A431A60E268DA626268C0
:104908009A6262691A63E9E780F83C20FDF718FCAF
:10491800C4E7A5682069A16922F070022A43E5E787
:10492800A5682069A16922F070022A4322F4407226
:10493800024322F080020A431A60E268DA6262687F
:104948009A62CBE701207047002C0140704700BFF6
:1049580000285BD038B590F83D30044603F0FF02DC
:10496800002B35D023682A49022284F83D208B4247
:104978001A6832D0B3F1804F36D001F5A0518B427E
:1049880016D001F580618B4212D001F580618B420F
:104998000ED0A569E068616822F080022A431A6097
:1049A800D862996201225A61002084F83D2038BDFE
:1049B8002069A16922F44072024322F080020A436E
:1049C8001A60E268DA6262689A6262691A63E9E701
:1049D80080F83C20FFF7BAFFC4E7A5682069A16901
:1049E80022F070022A43E5E7A5682069A16922F050
:1049F80070022A4322F44072024322F080020A43E2
:104A08001A60E268DA6262689A62CBE7012070474E
:104A1800002C014090F83C30012B61D0F0B5022306
:104A2800012480F83C4080F83D30142A50D8DFE853
:104A380012F094004F004F004F00CE004F004F007F
:104A48004F0007014F004F004F0015004F004F0067
:104A58004F003B014F004F004F0059000368D1F849
:104A680008E01D6A0F68B44E25F480551D621C6A63
:104A78005D68DA6922F0807224F4005422F4E64278
:104A8800B34244EA0E3442EA072200F04F8106F5A9
:104A9800A056B34200F04A8106F58066B34200F0A2
:104AA800458106F58066B34200F040814E685D603E
:104AB800DA611E641C62DC690D6944F40064DC611F
:104AC800D96921F48061D961DA6942EA0522DA619B
:104AD8000023012280F83D2080F83C301846F0BDC4
:104AE800022070470368D1F808E01D6A0F68924EEB
:104AF80025F480151D621C6A5D685A6D22F080726B
:104B080024F4001422F4E042B34244EA0E5442EA88
:104B1800072200F0FF8006F5A056B34200F0FA80A5
:104B280006F58066B34200F0F58006F58066B3426C
:104B380000F0F0804E685D605A65DE651C625C6D51
:104B48000D6944F400645C65596D21F48061596510
:104B58005A6D42EA05225A65BAE70368D1F808E0B7
:104B68001D6A0F68744E25F001051D621A6A5D689A
:104B78009C6924F4803422F0020224F07304B342C6
:104B880042EA0E0244EA070400F0FA8006F5A0564D
:104B9800B34200F0F58006F58066B34200F0F0807D
:104BA80006F58066B34200F0EB804E685D609C615C
:104BB8005E631A629C690D6944F008049C619969F6
:104BC80021F0040199619A692A439A6180E7036890
:104BD800D1F808E01D6A0F68574E25F010051D62D0
:104BE8001C6A5D689A6922F0807224F0200422F41D
:104BF800E642B34244EA0E1442EA072200F0B180CA
:104C08004E4EB34200F0B4804D4EB34200F0B08037
:104C180006F58066B34200F0AB804E685D609A612D
:104C28009E631C629C690D6944F400649C619969E7
:104C380021F4806199619A6942EA05229A6147E7FD
:104C48000368D1F808E01D6A0F683B4E25F48075AB
:104C58001D621C6A5D68DA6922F4803224F40074EB
:104C680022F07302B34244EA0E2442EA070269D0F2
:104C7800324EB3426DD0324EB3426AD006F58066EA
:104C8800B34266D04E685D60DA61DE631C62DC693F
:104C98000D6944F00804DC61D96921F00401D96187
:104CA800DA692A43DA6113E70368D1F808E01D6A74
:104CB8000F68214E25F480351D621C6A5D685A6DA7
:104CC80022F4803224F4003422F07002B34244EA21
:104CD8000E4442EA070223D006F5A056B3421FD07D
:104CE80006F58066B3421BD006F58066B34217D03E
:104CF8004E685D605A659E651C625C6D0D6944F086
:104D080008045C65596D21F0040159655A6D2A4300
:104D18005A65DDE64E6925F4802545EA862509E7CA
:104D28004E6925F4803545EA0625E1E74E6925F404
:104D3800804545EA8615B9E6002C0140004001404F
:104D480000440140CE6824F4006444EA062424F4B4
:104D580080644E698F6925F440553E4345EA06153F
:104D680090E7CE6824F0800444EA061424F0400456
:104D78004E698F6925F440653E4345EA86054CE750
:104D8800CE688F6922F0080232434E6925F44075D7
:104D98003E4322F00402354307E700BF90F83C3059
:104DA800012B01D102207047F0B40223046880F877
:104DB8003D30A3684D680E6823F070032B4323F43D
:104DC8008033024623F0070333430120502D82F835
:104DD8003C00A3604CD01FD9602D36D0702D0AD16D
:104DE800CB688D680869A1682B4343EA002321F446
:104DF8007F410B43A360E36823F04003E360E3686B
:104E08000125002123F48043E360084682F83D50E1
:104E180082F83C10F0BC7047402DECD1052E0DD027
:104E2800256A206A0E6920F001002062A36923F038
:104E3800F00343EA0613A3612562DCE7002382F846
:104E48003D0082F83C30F0BC7047206A8D680E69DE
:104E580020F010002062A169236A21F4704123F038
:104E6800A00341EA063143EA0513A1612362C2E7C0
:104E7800256A266A88680F6926F001062662A369F2
:104E880025F00A0123F0F003014343EA0713A36165
:104E98002162B0E790F83C30012B20D070B4036851
:104EA800174C022280F83D200125A3425A6880F859
:104EB8003C509D6815D00C6822F070022243B3F173
:104EC800804F5A6016D00F4A934213D00023012214
:104ED80080F83D2080F83C3070BC184670470220AE
:104EE800704791E8500022F47002324322F07002B9
:104EF80022435A608A6825F0800515439D60E5E7DE
:104F0800002C01400040014090F83C30012B29D092
:104F1800F0B491E8E000CB680C6923F440733B439C
:104F280023F48063334323F400632B4323F4805337
:104F38000246234348698E6A124D8C6923F4005354
:104F4800034323F480431068334323F47023A842B7
:104F580043EA044308D000214364F0BC084682F8C1
:104F68003C107047022070474D6ACC69096A23F4E7
:104F7800700343EA055323F08073234323F000733F
:104F88000B43E8E7002C0140436ADA0710B406D562
:104F98000168846A4A6822F4003222434A609C0706
:104FA80006D50168C46A4A6822F4803222434A60FE
:104FB800590706D50168046B4A6822F48022224307
:104FC8004A601A0706D50168446B4A6822F4004211
:104FD80022434A60DC0606D50168846B8A6822F49D
:104FE800805222438A60990606D50168C46B8A6894
:104FF80022F4005222438A605A0609D50168046CDB
:105008004A6822F480122243B4F5801F4A600BD00C
:105018001B0606D50268816C536823F400230B43F2
:1050280053605DF8044B70474A68446C22F4C00230
:1050380022434A60ECE700BF70B500230546C3670A
:10504800FDF7FEFF2B681A680646100709D41A6890
:1050580050072AD4202300206B6785F87000AB67BF
:1050680070BDDC6914F40014F1D1FDF7E9FF2B6879
:10507800801BB0F1007F1A6829D25107F1D5DA698F
:105088001205EED54FF400621A621A6822F4D07243
:105098001A609968202221F00101996003206A674B
:1050A80085F87040AA67EA6770BDDC6914F480046B
:1050B800D0D1FDF7C5FF2B68801BB0F1007F1A68BF
:1050C80005D25107F1D5DA691205EED5DAE722F4EF
:1050D800D0721A609A68202122F001029A60032097
:1050E800696785F87040A96770BD00BF002800F0A7
:1050F800B880F8B5436F0446002B2FD02368276982
:105108006669E0697649242262671D68A26825F00D
:1051180001051D601D683A433243294002430A4392
:105128001A605968E668A269276A6E4D21F44051F1
:105138003143596099683A4321F430610A43AB42DC
:105148009A603ED0684A93420DD002F5806293423D
:1051580009D00023236663660120F8BD80F870300B
:10516800FDF752F8CAE7B0F5004F4BD0FFF75CFAED
:10517800636800EB5300B0FBF3F080B2A0F11002BB
:105188004FF6EF739A42E4D82368D860616A002228
:105198002266626681B95A6822F490425A609A6817
:1051A80022F02A029A601A6842F0010220461A6028
:1051B800BDE8F840FFF740BF2046FFF7E5FE23684B
:1051C800E9E74A4B4A4A1B6B03F00303B0F5004F6B
:1051D800D35C48D1082BBCD801A252F823F000BFF9
:1051E8000D52000865520008515200085B51000832
:1051F8004B5200085B5100085B5100085B510008E6
:105208003B520008FFF710FA6268530803EB4003AB
:10521800B3FBF2F39BB2A3F110014FF6EF72914288
:1052280097D823F00F01C3F3420223680A43DA60D8
:10523800ACE76268530803F58033B3FBF2F39BB223
:10524800E9E7FFF7B7F9DFE76268530803F5740386
:1052580003F51053B3FBF2F39BB2DCE7FFF7FCF95D
:10526800D2E701207047082B3FF673AF01A252F82E
:1052780023F000BF75510008A1520008D55200085C
:105288005B510008C35200085B5100085B510008DD
:105298005B510008B3520008FFF7DEF9636800EBC2
:1052A8005300B0FBF3F080B268E76368580800F574
:1052B8000040B0FBF3F080B260E7FFF77BF963686A
:1052C80000EB5300B0FBF3F080B257E7636858086F
:1052D80000F5F40000F59050B0FBF3F080B24DE714
:1052E800F369FFEF0038014000440040001002401D
:1052F800047D0008C0887047C388408803FB00F01D
:10530800000C704710B40B14028809B203FB03F4B5
:1053180002FB02F201FB0144944285B019D990F8CE
:10532800B220C2EB1464E4B200EB4400828802FBB2
:1053380001F1002902FB03F3BCBF01F5FF417F31F6
:10534800002BBCBF03F5FF437F3341F3CF3143F359
:10535800CF3389B200209BB261F30F0063F31F4083
:1053680005B05DF8044B7047014481F83020704760
:10537800014491F83000704700EB41014A867047BC
:1053880000EB4101B1F93200704700BF00234382AE
:105398000375437580F8963080F8973080F8983018
:1053A80080F8993080F89A3080F81B3180F81C31E9
:1053B80080F81D31704700BF18B180E80E00009BCF
:1053C800C3607047A8B110B444780378234454B13B
:1053D800013CE4B202340444421C12F8011F0B449D
:1053E80094429BB2F9D15DF8044B03EB132303F00D
:1053F800FF00704710B54FF480720446002102F098
:10540800FBFA0023C4F8003110BD00BFB0F800213A
:10541800531C9BB27F2B88BF002330B420F8121096
:1054280000F1FE05A0F80221A0F800310022831E39
:1054380033F9024FAB422244FAD1002AB8BF7F3277
:10544800D211A0F8042130BC08467047B0F9040115
:10545800704700BF038A428B9A4201D208207047E6
:10546800828B9A4201D8C08A70470020704700BFDB
:1054780000230382704700BF037823B10022438AC8
:10548800C2820382704710B504460430FCF746FB1D
:1054980084F826002046FFF7EBFF10BD03781BB108
:1054A8000023C3821846704710B5044690F82600BA
:1054B800FCF706FC4FF6FF73984207D0228B238A2D
:1054C800511E01FB0300B0FBF2F020822046FFF7DB
:1054D800C1FFE08210BD00BF037813B1808A00B21B
:1054E8007047038A016AB0F91E20808C5B1A03FB9F
:1054F80002F3002BBCBF03F57F43FF3300EB2340CF
:1055080000B2704700230168028C416042848360C6
:105518008362704781807047C1807047B0F904008A
:10552800704700BFB0F90600704700BF8160704740
:10553800008B7047408B704741847047B0F9220058
:10554800704700BFB0F90420B0F9063070B401FB11
:1055580002F2B0F91440B0F9165063B1866801FB45
:1055680003F18B191DD4002E26DBC1688B4203DCA6
:1055780001698B4200DB1946868BC38B324141FAA5
:1055880003F31344A34209DCAB42B6BFEA1A002274
:105598002B461144816070BC18B27047E21A23464A
:1055A800F7E7002EE1DD0029DFDDC1686FF0004379
:1055B8009942E1D10B46DEE7024E33EA210328BFC8
:1055C8003346D2E701000080D0F80C21118BD38933
:1055D80070B506469589D28AD0F81001D6F80841E8
:1055E80013FB01F315FB0235FFF786FE002D0F4B69
:1055F8000F4904FB00F0B8BF05F57F4583FB002386
:10560800B8BFFF35C0172D14C0EBA31303FB05F378
:1056180003EB43035B0081FB0321DB173046C3EB3D
:10562800A141BDE87040FFF7F1BE00BFB5814E1B38
:1056380067666666174BDA69D20714D54FF0804360
:105648005A68596821F0700141F020015960596980
:1056580041F001015961596802F0700221F07001AE
:105668000A435A607047DA6942F00102DA61DA697E
:1056780082B04FF0804102F001020192019A4A691A
:1056880042F001024A61DA6922F00102DA6102B0ED
:10569800704700BF0010024070B4046804F0700442
:1056A800602C19D0551C6D086D01ADB26FF0020663
:1056B80006611A7800240F2A0CD802699207FCD5D3
:1056C8000134A4B20661A5421A78F4D80F2AF2D898
:1056D80001230B8070BC7047520102F12005E5E7F9
:1056E8004368184770B4B0F85050028E0B1483B05A
:1056F80005FB03F30191C3EBC37309B202FB01F18C
:105708005B005E1A194401EBD17406EBD672641083
:105718004FEA62024BD4002AC0F29580A41A44BF13
:1057280004F57F3404F2FF34002EBCBF06F57F3643
:1057380006F2FF360029B8BF01F57F314FEA95051B
:1057480005EBA444B8BF01F2FF3104EBA646A2B2B0
:10575800A4EBA1440123B6B2A1B280F83A308687FF
:10576800C287A0F84010B0F84E304286012B8686DA
:10577800C18618D1B0F94830B0F94A40002BB0F8CA
:105788005430CCBFD218D21A92B24286B0F94C200B
:10579800002CCCBFF618F61A002AB6B2CCBFC9182E
:1057A800C91A8686C186836903B070BC1847002A67
:1057B80023DB002B6BDDE41A48BF04F57F344FF080
:1057C800020248BF04F2FF340029B8BF01F57F3157
:1057D80080F83A204FEA950202EBA444B8BF01F2E0
:1057E800FF31A4EBA14101EB6346B6B289B2A2B284
:1057F8008687C187A0F84020B5E7A41A44BF04F5FE
:105808007F3404F2FF340029BCBF01F57F3101F277
:10581800FF31002EB8BF06F57F364FEA950505EB38
:10582800A444B8BF06F2FF36A4EBA14104EBA64698
:10583800042389B2A2B2B6B280F83A308187C2870F
:10584800A0F840608FE7002B46DD002180F83A1071
:10585800311EB8BF01F57F31A3EB0204B8BF01F2D6
:10586800FF31AA08002B02EBA442B8BF03F5FF33AF
:1058780002EBA141B8BF03F2FF138EB2A1EB634163
:1058880092B289B28287C687A0F840106BE79C1A4B
:1058980044BF04F57F3404F2FF34002EBCBF06F584
:1058A8007F3606F2FF36AA08002B02EBA442B8BFE7
:1058B80003F5FF3302EBA646B8BF03F2FF1303213B
:1058C800A6EB634380F83A10B6B299B292B28187D8
:1058D800C687A0F8402046E70029B8BF01F57F3108
:1058E8004FEA9502B8BF01F2FF31E41A002B02EB30
:1058F800A444B8BF03F5FF33A4EBA146B8BF03F235
:10590800FF13B1B206EB63460525A2B2B6B280F822
:105918003A508287C187A0F8406024E78368184717
:10592800C368184710B5044682B099B1012902D05E
:10593800002002B010BDB0F84430C3B1013B9BB2A7
:10594800A0F84430002BF3D10369019198470199DD
:105958000846EEE7FFF7E2FFB4F85230A4F8443007
:10596800002BE5D12046236998470120E1E7084646
:1059780002B010BD43691847C3691847F0B5436FB3
:1059880090F83A405D6803EB8403052C5A6ADE6B95
:10599800136836686A6822F070026A603CD801228F
:1059A80002FA04F414F0210F1BD114F0060F43D0AF
:1059B800C26D534DD41AAC4275DA2C460D802F4671
:1059C80048F20103426EB21A121BB2F5004F74DAA4
:1059D8004B4CA2427DDB0FFA82FEA1F802E092B2A4
:1059E80021E0046E464DE41AAC4246DBB4F5004FA4
:1059F80053DB47F6FF731A464B801C469E46456E9E
:105A0800731B1C1BB4F5004F3DDA3D4FBC4240DA16
:105A18000F8048F2010306E0B1F90070B1F902E025
:105A2800BBB21FFA8EF213445B42A0F84C30A0F8C8
:105A38004870A0F84AE0F0BD14F0180FECD0C46D1F
:105A4800A2F50042E41A944241DBB4F5004FA6BF28
:105A580047F6FF730B800C80026E294B921B9A420B
:105A68003CDBB2F5004F41DBB1F9007047F6FF733C
:105A78004B801A469E46BBB2D5E72C464D80AE46B3
:105A880048F20102BBE747F6FF7423460C8027461D
:105A9800C9E727B20F80A3B2C5E70FFA84FEA1F8C1
:105AA80002E0A2B2ABE7B4F5004F0CDB47F6FF7299
:105AB80013460A801446174684E747F6FF742246C1
:105AC8004C80A646AFE727B20F80A3B27AE70A80D8
