:020000040800F2
:10000000D0040020CD190008A9190008AB19000878
:10001000AD190008AF190008B11900080000000070
:10002000000000000000000000000000B3190008FC
:10003000B519000800000000B7190008B919000838
:10004000011A0008051A0008091A00080D1A00080C
:10005000111A0008151A0008191A00081D1A0008BC
:10006000211A0008251A0008291A00082D1A00086C
:10007000311A0008351A0008391A00083D1A00081C
:10008000411A0008451A0008491A00084D1A0008CC
:10009000511A0008551A0008591A00085D1A00087C
:1000A000611A0008651A0008691A00086D1A00082C
:1000B000711A00080000000000000000751A000816
:1000C000791A00087D1A0008811A00080000000053
:1000D000851A0008891A00088D1A0008911A00086C
:1000E000951A0008991A00089D1A000800000000DF
:1000F0000000000000000000000000000000000000
:10010000000000000000000000000000A11A00082C
:100110000000000000000000A51A00080000000018
:1001200000000000000000000000000000000000CF
:1001300000000000000000000000000000000000BF
:10014000A91A0008AD1A0008000000000000000015
:10015000000000000000000000000000000000009F
:10016000B11A0008B51A0008B91A0008BD1A00082B
:10017000C11A00080000000000000000000000009C
:1001800000000000C51A000838B5040001D10120A4
:1001900032BD00F021F818B900F01AF800F0CEFADC
:1001A000FFE702206870211D206800F01BF9012084
:1001B0006870002032BD38B5040001D1012032BD85
:1001C00000F00AF818B900F003F800F027FBE8E7A0
:1001D000002129702046704704F13C05687870477B
:1001E00070B500F090F801D1022070BD00F098F8D1
:1001F00052B1042A1BD0082A2CD00C2A3DD0102A38
:100200004ED0142A60D073E03068294600F022F9FD
:100210003068816941F0080100F071F821F00401B3
:10022000816131688A69286902438A6160E03068C7
:10023000294600F046F93068816941F4006100F018
:100240005EF821F4806100F05AF82A6941EA02213F
:1002500081614DE03068294600F065F93068C16978
:1002600041F0080100F047F821F00401C161316854
:10027000CA6928690243CA613AE03068294600F039
:1002800083F93068C16941F4006100F034F821F469
:10029000806100F030F82A6941EA0221C16127E05B
:1002A0003068294600F095F93068416D41F0080149
:1002B00041653068416D21F00401416531684A6D46
:1002C000286902434A6513E03068294600F0A9F91D
:1002D0003068416D41F4006141653068416D21F441
:1002E000806141653068416D2A6941EA02214165BA
:1002F00000F010F870BDC1613068C169704781615C
:10030000306881697047064606F13C040D46207846
:100310000128704701206070002121700020704783
:100320000120207002216170704738B500F04EF84E
:1003300001D1022032BD0120207002226270DFF85C
:100340003C032A689368034093600868020018BF62
:1003500010282DD0202818BF302829D0402823D09D
:10036000502816D0602818D0702803D0B0F5005F50
:1003700007D021E000F025F82868816841F0770176
:1003800005E000F01EF82868816841F48041816032
:1003900012E000F012F850210BE0CA6849682868A2
:1003A00000F08DF9602104E000F007F8402100E042
:1003B0000146286800F095F90EE0CA684968286887
:1003C0006EE1CB684A688968286892E1054605F1C4
:1003D0003C042078012870470120607000212170C2
:1003E000002032BDF0B5DFF898720368DFF8944260
:1003F000DFF89452DFF89462B84218BFB0F1804F32
:1004000001BF23F070034A681343B84208D0B0F12B
:10041000804F18BFB04203D0A84218BFA04203D1FA
:10042000CA6823F4407313434A6923F080031343DB
:100430000360B8428B68C36218BFB0420A68826228
:1004400003D0A84218BFA04201D10969016301226B
:100450004261F0BDF0B5026ADFF824E2DFF82CC299
:10046000894F520852000262066A44688569884AC8
:100470000B6826F0020615408A6816431D43704536
:1004800018BF60457F4B03D0B84218BF98420AD1CD
:10049000CA6826F00806164370451CBF6045B8427E
:1004A00026F0040601D0984205D14B698A6924F4EC
:1004B00040741C431443446085614968416306628B
:1004C000F0BD70B5026A22F010020262046A45684B
:1004D0008369704A0E68134043EA06238A68684EAF
:1004E00024F02004B04244EA021407D1CA6824F080
:1004F000800444EA021424F0400407E0634A904276
:100500001FBF614EB0425F4A904206D14E698A6970
:1005100025F44065164345EA8605456083614968D0
:100520008163046270BD70B5026A594B22F4807217
:100530000262056A4668C4690A681C4014438B68F5
:100540004F4A25F40075904245EA032507D1CA6851
:1005500025F4006545EA022525F4806507E04B4A4D
:1005600090421FBF484B9842464A904206D14B6981
:100570008A6926F44056134346EA03164660C4616E
:100580004968C163056270BD70B5026A22F4805289
:100590000262056A4368C4693E4A00F067F825F4C0
:1005A000005545EA0235B0421CBF384A904205D09A
:1005B000354EB0421CBF334A904204D14A6923F4FD
:1005C000804343EA82134360C46149680164056261
:1005D00070BD70B5026A304B22F480320262066A46
:1005E0004468456D0A681D4015438B68244A26F40B
:1005F000003646EA034690421CBF244B984205D081
:10060000214A90421CBF1F4B984204D14A6924F4EE
:10061000803444EA02244460456549688165066285
:1006200070BD70B5026A22F480120262056A4368E6
:10063000446D1A4A00F01AF825F4001545EA0255EF
:10064000B0421CBF114A904205D00F4EB0421CBFB1
:100650000C4A904204D14A6923F4802343EA82235E
:10066000436044654968C165056270BD0E68144009
:1006700044EA06248A68024E704700008800FEFFA4
:10068000002C01400048014000440140004001406E
:100690008CFFFEFFFF8CFFFE8FFFFEFFFF8FFFFE34
:1006A00010B5036A046A64086400046223F00A0354
:1006B000846924F0F00444EA0214846123E010B554
:1006C000036A23F0100303628369046A23F470430E
:1006D00043EA023324F0A004836144EA0114046273
:1006E00010BD826822F07002114341F00701816061
:1006F000704710B5846824F47F442143114341EAD4
:100700000321816010BD1943016210BD3E4882B0D3
:10071000016841F001010160026802F001020092EB
:100720000099426842F080524260406800F0805078
:1007300000900098072002B000F09BB881B00068DC
:100740003249884209D13048026842F400620260AE
:10075000006800F400600090009801B0704710B588
:1007600086B000F04AF821682848814218D128480C
:10077000016841F4802101604FF40051006800F4E9
:1007800080200090022200982248019102920021CC
:100790000391032206210591049201A900F0B2F809
:1007A00006B010BD10B586B000F027F821681A48D1
:1007B000814220D11648816841F40031816081680E
:1007C00001F4003100910099026842F400320260A5
:1007D0000C21006800F40030009002220098019182
:1007E00002920021039104914FF09040072105915E
:1007F00001A900F087F806B010BD044614220021BC
:1008000001A800F057B9000018100240002C014068
:10081000141002400004004800440040704730B407
:10082000002513E050F8042BD30744BFA9F10103BE
:100830009A18091F042942F8045BFAD213468C0760
:1008400044BF15809B1CC90748BF1D7050F8041B8E
:100850000029E7D130BC70470901020002D42448C6
:1008600081547047234B02F00F021A4402F8041C13
:100870007047214B19684FF6FF020002114000F447
:10088000E06008431D4908431860704770B51A4B73
:100890001C68C4F302230124C3F10705052D2EBFF4
:1008A0000F2504FA05F56D1E1E1D072E34BF00230B
:1008B000DB1E2940994004FA03F3BDE870405B1E3B
:1008C0001A401143C8E710B5401EB0F1807F01D334
:1008D000012010BD0A4C60600F214FF0FF30FFF780
:1008E000BBFF0021A16007202060002010BD000098
:1008F00000E400E018ED00E00CED00E00000FA0577
:1009000010E000E02DE9F84F4FF0000E634A644B11
:10091000DFF890814FF00F0982460F4633E0624DB9
:10092000AA4514BF052503258D40254343F82C50C7
:10093000C143146801EA040C7C68E50348BF40EA3F
:100940000C0CC2F800C0546801EA040C7C68A503D2
:1009500048BF40EA0C0CC2F804C0946801EA040CD9
:100960007C68E50248BF40EA0C0CC2F808C0D468B5
:1009700001EA040C79688C0248BF40EA0C0CC2F80A
:100980000CC00EF1010E396831FA0EF000F08380D0
:10099000012000FA0EFC1CEA0100F2D07C68022C57
:1009A00018BF122C4FEA8E0110D14FEADE040AEB79
:1009B000840401F01C05266A09FA05FB26EA0B06E9
:1009C000D7F810B00BFA05F5354325624FEA4E040F
:1009D0000325DAF8006097F804B0A540ED430BF06A
:1009E000030B2E400BFA04FB4BEA0606CAF8006024
:1009F0007E68012E18BF022E03D0112E18BF122EB2
:100A000017D1DAF80860D7F80CB02E400BFA04FBC7
:100A10004BEA0606CAF80860DAF8046026EA0C0C0D
:100A20007E68C6F3001606FA0EF646EA0C06CAF809
:100A30000460DAF80C603540BE6806FA04F42C4312
:100A4000CAF80C407C68E4009BD5D8F8004044F01C
:100A50000104C8F800404FEA9E0CD8F8005005F099
:100A60000105009501F00C01009C53F82C5009FA87
:100A700001F425EA0404BAF1904F08BF002509D01B
:100A80000A4DAA4508BF012504D0094DAA457FF4A7
:100A900046AF022548E7BDE8F18F000000040140A1
:100AA0000800014018100240000C004800040048F3
:100AB0000008004810B5044610460A460146204684
:100AC00000F002F8204610BD62F30F2262F31F42CD
:100AD000401810F0030308D0C91A1FD3DB0748BF22
:100AE00000F8012D28BF20F8022D130030B4144661
:100AF0001546103928BF20E93C00FAD8490728BF1D
:100B000020E90C0048BF40F8042D890028BF20F8D8
:100B1000022D48BF00F8012D30BC7047C91818BF1E
:100B200000F8012DCB0728BF00F8012D704730B425
:100B30000EE00268436802440830DC0744BFA9F1B4
:100B40000104E31852F8045B43F8045B091FF9D170
:100B500050F8041B0029ECD130BC70472DE9F84354
:100B6000040019D02078DFF85854C10716D56868FA
:100B700000F00C0004280AD0686800F00C00082877
:100B800002BF686800F48030B0F5803F41D100F0CA
:100B9000E8F918B16068002800F05F812078DFF87C
:100BA000306481071BD5686810F00C0F07D06868A7
:100BB00000F00C0008286CD16868C10369D428686B
:100BC000C0F3400000281CBF2069012840F0458187
:100BD0002968606921F0F80141EAC00129602178A3
:100BE000080740F18C80A069DFF8E813002878D06E
:100BF00001220A6000F00CFA0746686AC0F3400060
:100C000000287CD100F004FAC01B0228F5D903208B
:100C100026E16068B0F5803F04D1286840F4803058
:100C2000286014E008B928680AE0B0F5A02F286809
:100C300006D140F480202860296841F4803105E025
:100C400020F480302860296821F480212960E86A36
:100C5000A168000941EA0010E862606860B100F034
:100C6000D7F9064600F07DF9002897D100F0D0F9B9
:100C7000801B6528F6D3CAE700F0CAF9064600F0E3
:100C800070F900288AD000F0C3F9801B6528F6D3DC
:100C9000BDE72069B0B10121316000F0B9F9074624
:100CA0002868C0F3400028B900F0B2F9C01B022840
:100CB000F6D9ACE72868616920F0F80040EAC10085
:100CC00028608CE7306000F0A3F907462868C0F37D
:100CD0004000002883D000F09BF9C01B0228F5D902
:100CE00095E7086000F094F90746686AC0F3400091
:100CF00028B100F08DF9C01B0228F6D987E72078CB
:100D0000410763D5E8690027C10009D4E86940F0CC
:100D10008050E8610127E86900F080500090009859
:100D2000DFF8B482D8F80000C10513D4D8F8000069
:100D300040F48070C8F8000000F06AF98146D8F8E5
:100D40000000C10506D400F063F9A0EB0900652896
:100D5000F5D35CE7E068012808D008B9286A09E003
:100D60000528286A06D140F004002862286A40F06D
:100D7000010005E0400840002862286A20F00400D5
:100D8000286241F28938E06868B100F041F9814693
:100D9000286AC0F34000A0B900F03AF9A0EB0900BE
:100DA0004045F5D333E700F033F98146286AC0F3B4
:100DB000400030B100F02CF9A0EB09004045F5D31C
:100DC00025E71FB1E86920F08050E861E06900285C
:100DD00045D0696801F00C01082931D0022822D1E0
:100DE00000F040F807462868C0F3406028B100F0E2
:100DF0000FF9C01B0228F6D909E76868616A226A00
:100E000020F47410084310436860012000F02BF8B0
:100E100004462868C0F3406008BB00F0F9F8001BE6
:100E20000228F6D9F3E600F01DF804462868C0F35E
:100E30004060A0B100F0ECF8001B0228F6D9E6E60D
:100E400001280AD06868226A00F48031914202BF0A
:100E500000F47010616A884201D0012000E0002097
:100E6000BDE8F2830020306600F0D2B82DE9F041F1
:100E70000400884645D0594E306800F007004045D0
:100E800002D200F064F83CD120784D4D810705D5A1
:100E90006A68A06822F0F00202436A602178C807FD
:100EA00027D56168012902D100F05BF804E002292E
:100EB000286803D1C0F3406018B922E0C0F34000B5
:100EC000F8B16868800841EA8001696000F0A0F824
:100ED00007466868616800F00C00B0EB810F08D02D
:100EE00000F096F8C01B41F289318842F1D303200B
:100EF0002BE0306800F00700804504D200F027F8AE
:100F000001D0012021E02078410705D56A68E0681A
:100F100022F4E06202436A602178080706D5696816
:100F2000206921F4605141EAC001696000F01EF8B7
:100F30006A682B49234BC2F30312895CC8401860CE
:100F40002248006800F06AF80020BDE8F0813168AE
:100F5000C90848EAC1013160306800F00700404527
:100F600070472868C0F340407047000010B51D4925
:100F70000A6802F00C00082814D100BF1CA3C2F3B9
:100F80008340D203185C896A09D500BF1CA40E4BAC
:100F900001F00F01625CB3FBF2F2504310BD124945
:100FA000484310BD084810BD06480E4A0068136843
:100FB0000E49C3F30222FFE7895CC8407047000076
:100FC000001002400C00002000127A0008000020EF
:100FD0000000424280044242007000400020024073
:100FE000E01800080410024000093D00F81900084C
:100FF00002030405060708090A0B0C0D0E0F10105A
:101000000102030405060708090A0B0C0D0E0F1058
:1010100001484068704700BF0000002038B50D4D02
:101020000D4B2A7804464FF47A711868B1FBF2F23E
:10103000B0FBF2F0FFF747FC50B9102C08D20022A9
:1010400021464FF0FF30FFF721FCAC60002032BD9D
:10105000012032BD000000200C00002038B5040043
:1010600009D004F17005696809B900F028F800F0AA
:101070000DF8012801D1012032BD606A08B100F0ED
:1010800023F800F014F821F02A0109E02421696016
:1010900020680268520852000260204600F01EB824
:1010A000816000F014F8BDE8324000F024B92068F7
:1010B000416821F4904141602068816870470020B8
:1010C00028702046FFF76EBB204600F0B1B82068BC
:1010D000016841F0010101602046704770B5044687
:1010E0004C4823681E68A168064020690E43616968
:1010F0000643E0690E4306431E6000225968E0681B
:1011000021F440510143596000259E68A169206A7D
:1011100026F430660E43404906438B429E600FD151
:101120003E48036803F00303032B11D8DFE803F004
:101130000E04060202200CE004200AE0082008E069
:10114000374883421CBF3748834201D1002000E06A
:101150001020E169B1F5004F4FF6F0762CD130B197
:10116000022807D004280AD0082811D018E0FFF779
:101170001BFF06E060682C4901EB50010CE0FFF713
:10118000F5FE61684A0802EB4002B2FBF1F205E0AD
:101190006068410801F58031B1FBF0F292B200E0E5
:1011A0000125A2F11000B0422ED21640C2F3420037
:1011B00006432068C66028E030B1022807D0042822
:1011C0000AD0082810D017E0FFF7EEFE06E06068AE
:1011D000164901EB50010BE0FFF7C8FE616800EB18
:1011E0005100B0FBF1F205E06068410801F50041F3
:1011F000B1FBF0F292B200E00125A2F11000B04282
:1012000002D22168CA6000E00125002020666066E5
:10121000284670BDF369FFEF0038014030100240EE
:1012200000440040004800400024F40000127A000E
:1012300090F82410CA0706D502685368816A23F41F
:1012400000330B43536090F824108A0706D50268D8
:101250005368C16A23F480330B43536090F8241021
:101260004A0706D502685368016B23F480230B43B9
:10127000536090F824100A0706D502685368416B42
:1012800023F400430B43536090F82410CA0606D59C
:1012900002689368816B23F480530B43936090F84A
:1012A00024108A0606D502689368C16B23F40053A4
:1012B0000B43936090F824104A0610D502685368D7
:1012C000016C23F480130B435360036CB3F5801F50
:1012D00005D15368416C23F4C0030B43536090F86D
:1012E00024100A0606D501684A68806C22F40022A0
:1012F00002434A607047F8B5044604F170050020C7
:10130000E8606FF07E47FFF783FE064620680168BD
:101310000A0708D50097334600224FF400112046F3
:1013200000F016F860B9206801684A070AD50097EE
:10133000334600224FF48001204600F009F808B13E
:101340000320F2BD20206860A86000202870F2BD54
:101350002DE9F041069C05460E4690461F4628683A
:10136000C1693140B1420CBF01200020404520D16D
:1013700014F1010FF3D0FFF74BFEC01B844200D3E2
:1013800034B900F018F8002101700320BDE8F081A5
:10139000286801684A07E2D5C1690805DFD54FF41E
:1013A00000612A681162002200F005F8C160027035
:1013B000EBE70020EAE72868016821F4D0710160BA
:1013C0002868816849084900816005F17000202182
:1013D000416081607047000030B599B000F0F4F8CA
:1013E00000F0B8F81422002101A8FFF763FB53486E
:1013F000534D016841F4002101604FF4005402682C
:1014000002F4002200920099026842F48002026015
:10141000036803F4800300930099026842F40032E9
:101420000260036803F400330093009902684549A1
:1014300042F4802202600022006800F480200090C4
:101440000098414802910392019401A9FFF75AFACA
:101450003E4828604FF416410C2000226861696004
:10146000AA60EA602A61AA61EA612A626A62284681
:10147000FFF7F4FD1022002115A8FFF71BFB0C223B
:1014800000216846FFF716FB1C2200210EA8FFF77B
:1014900011FB2C22002103A8FFF70CFB2C48C5F8F8
:1014A000800040F2E73105F18400002243F67F63BB
:1014B000016042608360C2600261426180352846FB
:1014C000FEF762FE4FF48050159015A92846FEF7EE
:1014D0002CFF2846FEF76FFE00200090019002903E
:1014E0006946284600F0A3F8602041F63F710E904F
:1014F0000F910022109211921292139214920EA93F
:101500002846FEF76DFE00210391059107910A918F
:1015100000224FF000710B910492069209920C92F6
:101520000D92089403A9284600F0AFF82846FFF76B
:1015300016F90021284600F064F8FEE71410024076
:101540001000002000002110000800480044004066
:10155000002C014080B59CB02822002105A8FFF78F
:10156000A9FA142200216846FFF7A4FA34220021C8
:101570000FA8FFF79FFA022101220591099210217D
:1015800002220A910C9200214FF400220D910E923A
:1015900005A8FFF7E3FA022101910F204FF48061C3
:1015A0000090002203910292049200216846FFF706
:1015B0005DFC4FF4805100220F9117920FA800F0AC
:1015C000B9F81DB000BD000080B50748016841F0C2
:1015D000100101600320FFF74CF90020FFF71EFD0A
:1015E000FFF794F8002002BD0020024003D00868F5
:1015F00040F001000860002010BD04460022206871
:101600008AE010B504460422FFF7F9FF00F004F861
:1016100018BFB2F5803FE9E72168486C40F400400C
:1016200048648A68DFF8E4000240062A7047F0B593
:1016300000F13C042278012A01D10220F0BD0122F0
:101640002270022363700568DFF8C4C06E68AF685B
:10165000654503D14B6826F470061E430A6826F0E0
:10166000700616436E60026862451EBFB2F1804F7D
:101670002848824204D1886827F080070743976092
:101680000121617000202070F0BD10B590F83C2061
:10169000012A01D1022010BD012280F83C20CC6833
:1016A0008B684A6824F440741C4324F48064144317
:1016B0000B680A6924F400641C4324F48054144326
:1016C0004B698A6A24F400541C4324F48044144374
:1016D0008B690F4A24F4702444EA0344036893425C
:1016E0000CD14A6A24F4700444EA0254CA69096AB3
:1016F00024F08074144324F000740C435C640022D2
:1017000080F83C20002010BD000000000700010010
:10171000002C01400040014010B501F01F01036A98
:1017200004248C40A343036202FA01F1036A1943C3
:10173000016210BD2DE9FC410546DFF87C61286897
:10174000C10353D5B0690024C10009D4B06940F089
:101750008050B0610124B06900F080500090009882
:10176000DFF858713868C10511D4386840F48070CA
:101770003860FFF74DFC80463868C10507D4FFF795
:1017800047FCA0EB08006528F6D3032092E0F0693F
:1017900010F440701EBF696801F4407188421AD08D
:1017A000DFF81C11F06901220A60002320F4407068
:1017B0000B60F061C0070ED5FFF72AFC0746F06901
:1017C000C0F3400038B9FFF723FCC01B41F2893158
:1017D0008842F4D3D9E7F269686822F44072024380
:1017E000F2611CB1B06920F08050B0612878C10767
:1017F00005D5F26AA868920840EA8202F262297866
:10180000880605D5F16AE86821F010010143F1620C
:101810002968880305D53168286B21F480010143CC
:1018200031602978480605D5F16A286921F0200140
:101830000143F1622968080405D5F16A686921F05D
:1018400040010143F1622968880505D53168E869DE
:1018500021F40001014331602978080605D5B16AF9
:10186000A86921F4F8710143B1622968C80405D55B
:10187000F16A286A21F480710143F1622968480302
:1018800005D5F16A686A21F480610143F162296833
:10189000080305D5F16AA86A21F400610143F162E9
:1018A0002968C80205D5F16AE86A21F400510143AC
:1018B000F1620020BDE8F681041002400070004093
:1018C000400442420448054A016841F47001016045
:1018D0004FF000601060704788ED00E008ED00E018
:1018E00000000000000000000102030406070809D0
:1018F00010B5074979441831064C7C44163404E08D
:101900000A68081D114488470146A142F8D110BD5C
:101910002C0000004C0000004EF68851CEF2000171
:10192000086840F470000860BFF34F8FBFF36F8FFB
:101930004FF00070E1EE100A70470000E3EEFFFF89
:10194000C00000001000002000000000E3F1FFFFD5
:1019500010000000880000000000002000000000CF
:1019600000F00DF8002801D0FFF7C2FFAFF30080B0
:101970000020AFF30080FFF72FFD00F002F80120F8
:10198000704700F001B800000746384600F002F842
:10199000FBE7000080B5AFF30080024A1100182079
:1019A000ABBEFBE7260002007047FEE7FEE7FEE75E
:1019B000FEE770477047704700F000B80248416882
:1019C00002788A1842607047000000200148804772
:1019D00001480047C5180008ED1900080100000083
:1019E000000000001000000000127A00AFF3008039
:1019F000FFF792FFFFF7B4FF0000000001020304AD
:101A0000FFF7FEBFFFF7FEBFFFF7FEBFFFF7FEBF0A
:101A1000FFF7FEBFFFF7FEBFFFF7FEBFFFF7FEBFFA
:101A2000FFF7FEBFFFF7FEBFFFF7FEBFFFF7FEBFEA
:101A3000FFF7FEBFFFF7FEBFFFF7FEBFFFF7FEBFDA
:101A4000FFF7FEBFFFF7FEBFFFF7FEBFFFF7FEBFCA
:101A5000FFF7FEBFFFF7FEBFFFF7FEBFFFF7FEBFBA
:101A6000FFF7FEBFFFF7FEBFFFF7FEBFFFF7FEBFAA
:101A7000FFF7FEBFFFF7FEBFFFF7FEBFFFF7FEBF9A
:101A8000FFF7FEBFFFF7FEBFFFF7FEBFFFF7FEBF8A
:101A9000FFF7FEBFFFF7FEBFFFF7FEBFFFF7FEBF7A
:101AA000FFF7FEBFFFF7FEBFFFF7FEBFFFF7FEBF6A
:101AB000FFF7FEBFFFF7FEBFFFF7FEBFFFF7FEBF5A
:081AC000FFF7FEBFFFF7FEBFB8
:04000005080019EDE9
:00000001FF
