:020000040800F2
:1000000088050020D13A0008AB3A0008AD3A000854
:10001000AF3A0008B13A0008B33A00080000000007
:10002000000000000000000000000000B53A0008D9
:10003000B73A000800000000B93A0008BB3A0008CF
:10004000F53A0008F93A0008FD3A0008013B0008BB
:10005000053B0008093B00080D3B0008113B000868
:10006000153B0008193B00081D3B0008213B000818
:10007000253B0008293B00082D3B0008313B0008C8
:10008000353B0008393B00083D3B0008413B000878
:10009000453B0008493B00084D3B0008513B000828
:1000A000553B0008593B00085D3B0008613B0008D8
:1000B000653B00080000000000000000693B0008EC
:1000C0006D3B0008713B0008753B00080000000014
:1000D000793B00087D3B0008813B0008853B000818
:1000E000893B00088D3B0008913B000800000000A0
:1000F0000000000000000000000000000000000000
:10010000000000000000000000000000953B000817
:100110000000000000000000993B00080000000003
:1001200000000000000000000000000000000000CF
:1001300000000000000000000000000000000000BF
:100140009D3B0008A13B00080000000000000000EB
:10015000000000000000000000000000000000009F
:10016000A53B0008A93B0008AD3B0008B13B0008D7
:10017000B53B000800000000000000000000000087
:1001800000000000B93B00082DE9F14FB2B09946DC
:10019000924600230691CDE900333C9A0F930DF16E
:1001A0004A0114914A7011E0329E57462C4617F8C6
:1001B000011B0698B0470028069000F026810F9892
:1001C000401C641E0F90F2D13296AA449AF80000A7
:1001D000252808D10021002209910A920B910C9246
:1001E0000D910E920FE06A464FF0FF31504601F03C
:1001F0007FF8050002D10F9800F066BED4D5012526
:10020000E3E741F001011AF8010F2028F9D0232873
:100210000CD02B2804D02D2805D0302809D00BE095
:1002200041F00201EFE741F00401ECE741F0080181
:10023000E9E741F01001E6E72A280FD1D9F80020BC
:1002400052F8040BC9F800200028119003D5404251
:10025000119041F004010AF1010A14E01192DFF853
:10026000EC3B0AE01198984205DA00EB800402EBBF
:100270004402303A11920AF1010A9AF80020A2F1E0
:1002800030000A28EED39AF800002E2803D04FF051
:10029000FF32109229E01AF8010F2A2809D1D9F863
:1002A000000050F8042BC9F8000010920AF1010A6E
:1002B0001BE02D280CBF0AF1010A00200022109239
:1002C000DFF8882B0BE040B9109B934205DA03EB73
:1002D000830504EB4504303C10940AF1010A9AF8B6
:1002E0000040A4F130030A2BEDD3ADF848100FF60F
:1002F00060309AF8001001F005F808B11AF8010B07
:100300008DF84A009DF84A00682805D19AF8000047
:1003100068280CD1622106E06C2804BF9AF800001E
:100320006C2804D171218DF84A100AF1010A1FA826
:1003300008901AF801BBBBF125012DD01C3900F043
:100340006181091F022940F25D810E392AD0491FBF
:1003500000F0B284093900F05581891E00F048850B
:10036000491E00F0F484491E022940F24B81091F06
:1003700000F0ED84491F00F0BA80491E00F09C8413
:10038000491E65D0C91E21D0891E00F09584C91E62
:1003900000F0928400F04BBD25238DF87C300121C4
:1003A00009912AE06C208DF84A00D9F8000050F835
:1003B000042BC9F80000002A43D11499487800287A
:1003C0003DD04FF0FF340FF6902012E09DF84A0028
:1003D0006C28EAD0D9F8000050F8044BC9F80000A6
:1003E0000794D4B91499487898B14FF0FF340FF6B8
:1003F000842000F0A1FF201A07D132981FAA04A977
:1004000000F065FD00287FF5E1AE4FF0FF3000F011
:100410005BBD0FF67C200790EFE7109D002D04D503
:10042000204600F0A9FF044607E02A46204600F0D7
:10043000C3FF002814BF041B2C460A94DDE70FF607
:100440005422329804A900F0C8FD0028D5D5DCE775
:10045000D9F8001051F8040BC9F8001020F000047E
:10046000002121F0FF351FABCDE904450793DDE9FD
:10047000042308993C2413B90AB9109898B102F0E2
:100480000F053035641EEEB23A2EA8BF273512098B
:1004900042EA03721B090D5508BF002A03D00798D2
:1004A0000D19A842EBD308190790C4F13C0210982B
:1004B0000A92824209DABDF84810821A4FF6EF70AC
:1004C00001400C92ADF8481097E7002895D59DF8AB
:1004D000480000F0140010288FD1119B09990C9846
:1004E0005B1A1B1A9A1A002A87DD0C9285E7149969
:1004F000487820B14FF0FF340FF69C1079E79DF853
:100500004A00622862D0682819D06A2840D06C2836
:1005100006D071284DD074282DD07A281ED064E0E2
:10052000D9F8001051F8040BC9F8001020B94FF0A9
:10053000FF340FF67C105CE70F9901605DE7D9F896
:10054000001051F8040BC9F8001020B94FF0FF3427
:100550000FF65C104DE70F9901804EE7D9F80010B7
:1005600051F8040BC9F800100028E5D14FF0FF3412
:100570000FF63C103DE7D9F8001051F8040BC9F80C
:1005800000100028D8D14FF0FF340FF6241030E7C8
:10059000D9F8001051F8040BC9F8001020B94FF039
:1005A000FF340FF60C1024E70F9AD317C0E900238D
:1005B00023E7D9F8001051F8040BC9F800100028FF
:1005C000F2D14FF0FF340FF6E80012E7D9F800102F
:1005D00051F8040BC9F8001020B94FF0FF340FF6A2
:1005E000D00006E70F99017007E7D9F8001051F81D
:1005F000040BC9F8001000289ED14FF0FF340FF60D
:10060000B000F6E6D9F80020D21D22F00702C9F8A2
:100610000020D2E900010832C9F80020CDE9040128
:10062000C80F02D009982D210AE0BDF848008107C3
:1006300002D509982B2103E0C00705D50998202190
:100640001FAA1154401C09901FA809994BF02002C1
:100650004318DDE90401CDE92E01612A079315ACA9
:100660000BD01098002802D50620109005E001BF9D
:100670004BF02000672801211091DDE904014800BA
:100680004015401C0A4611D109030FD0ABF161059A
:1006900003201A2D0A9002D20FF6A03101E00FF6C6
:1006A000A0310322184600F0B3FEA6E650B91203AB
:1006B00008D1ABF1610503201A2D0A9016D30FF66D
:1006C0008831EEE7DDE90401CDE93001DDE93023D1
:1006D00023F00047B7F5801F22F000060DD200225C
:1006E000002F08BF002E029203D116E00FF65431FE
:1006F000D7E702AA00F098FE0FE0DFF8F00ADFF873
:10070000F01A00EB17500290DDE930234FF0FF3074
:100710001940DFF8E07A10403943CDE904014BF08D
:10072000200061280DD1079830210170821CBBF197
:10073000610F07920CBF7821582141700998801CE5
:100740000990DDE9040120F0000231F0004308BF08
:10075000002A02D10026002571E14BF02008B8F1F3
:10076000610F40F0BE801098002847BF21210391FF
:10077000401C0390039FDDE92E017F1C0022002313
:10078000DDE9044500F088FE02998DF8542038BF59
:1007900085F00045091F002F02910DF155065DDD22
:1007A000DFF8541ACDE9302140F2FF732E93204632
:1007B00029460022002300F087FE4FD24800400D5A
:1007C00000F11C0315D0002B13DD2E9883420ADBA9
:1007D000DDE9300121F0004005F000420243DDE98F
:1007E0003001114611E06FF31E5141EA03512046DA
:1007F0000BE024F0000035F0004108BF00280FBFD7
:1008000029461C22294600F077FE04460D4600F0DA
:1008100011FFFF1F002F804609DD00F029FF02466F
:100820000B462046294600F035FF04460D46F01DD4
:100830000721B8F1000F0CDD491E5EBF08F00F0262
:1008400000F8012D4FEA2818F3D502E0002200F845
:10085000012D491EFAD5C61D002FA8DC0DF155004B
:10086000361A03988642D8BF304600280DF1550449
:1008700030D4B04206DA0DF155010A5C082AA8BF4F
:100880000F2100DA0021024615AB134400E0401EA0
:1008900013F80159521E8D42F9D00F2904D10DF1E0
:1008A00055018B5C5B1C8B54002A04D50299091DF1
:1008B00015AC401C0291411E0CD46218ABF13A06F3
:1008C00013783033DDB23A2DA8BFF318491E02F871
:1008D0000139F5D51099002940F1AF80421E1092E0
:1008E000ABE00299DFF8142947F29750414391FB9E
:1008F000F2F2DDE92E45029225F00045D2F1070221
:1009000004DD2046294600F04DFC0BE05242002059
:10091000DFF8EC1800F046FC02460B46204629465C
:1009200000F02AFF0446B8F1660F109806BF029F38
:100930000A3706273F18142FC8BF142730208DF818
:1009400054000D460020DFF8BC18CDE92E010DF152
:100950005506002F33DD2046294601F031F80146C7
:100960000A4606F1080304200A26B2FBF6F606EB57
:10097000860EA2EB4E02303203F8012C0A22B6FB9F
:10098000F2F202EB820EA6EB4E063036401E03F862
:10099000026DE9D1083F002F03F10806D9DD0846B2
:1009A00001F022F802460B462046294600F072FE6E
:1009B000DDE92E2301F026F804460D46CBE70DF1C4
:1009C0005500361A0DF1550404E00298401E761EBB
:1009D0000290641C20783028F7D0B8F1660F02D15D
:1009E0000299491C04E0B8F1650F0CBF01210021F8
:1009F000109808188642B8BF701E00281DD4B04257
:100A000004DA215C3429C8BF392100DC30210246D8
:100A1000631E9D1800E0401E15F80169521E8E42AB
:100A2000F9D0392902D1A15C491CA154002A04D56E
:100A30000299491C1C46401C02910646029D00F08A
:100A40005BFC406A0778DDF8408030B2002802DCA9
:100A500001260FF2F8744BF02000662808BF6D1CC9
:100A600016D0672846D128B210F1040F48DB404564
:100A700046DA9DF848006D1C010703D430B24045AA
:100A8000B8BF804628B2B8EB000848BF4FF0000856
:100A90000FFA85FB07980A99BBF1000F00F3B280AB
:100AA0004A1C0A9230234354B8F1000F03DC9DF82E
:100AB0004800010704D50A98411C0A9107990F5470
:100AC00018EB0B0FB8BFC8F100052DB268420D90AE
:100AD000A84432B29045B8BF4646079B0A9836B242
:100AE0000B9632462146184400F092FCA8EB060013
:100AF0000E90CBE0BBF1610F17D14FF0700B19E0F6
:100B000030B2404504DA9DF848100A0758BF8046C5
:100B1000B8F1010848BF4FF00008BBF1670F14BFE0
:100B20004FF0450B4FF0650B04E0BBF1410F08BFE0
:100B30004FF0500B0A98411C0A91B8F1000F079929
:100B400014F8012B0A5403DC9DF8480001071AD55C
:100B50000A98411C0A91B8F1000F07990F5412DD51
:100B6000761E30B2804507980A9BB8BF464632B21F
:100B70002146184400F04CFC0A9936B271180A91CB
:100B8000A8EB06000D9007980A9908442AB2002A9B
:100B900080F800B003D42B224270811C04E02D2188
:100BA00041701546811C6D4200202EAA0A2409E0DE
:100BB0002B4693FBF4F505EB8506A3EB460302F801
:100BC000013B401C2DB2002DF2DC012806DC4BF06D
:100BD0002002652A04BF302201F8012B00282EAA2A
:100BE00008D1302001F8010B06E0401E135C3033C1
:100BF00001F8013B0028F8DC079A0A981044091A0A
:100C00000B9143E0084431B22AB2914219DA32B270
:100C1000214600F0FDFB0A9936B27118ABEB0606CF
:100C2000B8F1000F0A910D9603DC9DF84800020709
:100C300004D5079847540B99491C0B91CDF838807F
:100C400024E0214600F0E4FB0A98761B5844B8F1F2
:100C5000000F0A9003DC9DF848100A0703D5411CD9
:100C60000A9107990F5430B2804507980A9BB8BF84
:100C7000464632B204EB0B01184400F0C9FB0A9857
:100C800036B230180A90A8EB06000D909DF8480087
:100C900000F0140010287FF4B0AB099A0A990D985F
:100CA0008A180B9982180E988A1882181198824215
:100CB000BFF6A3AB821A18E49DF84A00622808D058
:100CC00068280ED06A2814D06C281FD0712810D044
:100CD0001CE0D9F8001051F8040BC9F80010C0B29C
:100CE0001AE0D9F8001051F8040BC9F8001080B2CE
:100CF00012E0D9F80020D21D22F00702C9F8002026
:100D0000D2E900010832C9F8002006E0D9F8001045
:100D100051F8040BC9F800100021CDE904019DF839
:100D2000480001075AD5DDE90423002B08BF002A3B
:100D300054D04BF02000782850D109981FA93022B8
:100D40000A54401C431C099301F800B046E09DF88A
:100D50004A00622808D068280ED06A2814D06C286F
:100D60001FD0712810D01CE0D9F8001051F8040BE6
:100D7000C9F8001040B21AE0D9F8001051F8040B7D
:100D8000C9F8001000B212E0D9F80020D21D22F0FC
:100D90000702C9F80020D2E900010832C9F8002092
:100DA00006E0D9F8001051F8040BC9F80010C1177B
:100DB000CDE90401002902D509982D210AE0BDF8EA
:100DC0004800810702D509982B2103E0C00705D50B
:100DD000099820211FAA1154401C09901FA80999A5
:100DE0000144079104A8594600F057F9FFF705BBE5
:100DF0009DF84A006C280BD001210991D9F8000018
:100E000050F8041BC9F800008DF87C10FFF7F5BA04
:100E1000D9F8000050F8041BC9F8000015914FF0F4
:100E2000FF3210920021169115AAFFF70ABB252167
:100E30000122BBF1000F8DF87C1009923FF4DDAA6E
:100E40008DF87DB00221FFF7ABBA0000CBCCCC0C03
:100E5000686A6C747A4C00007072696E74665F73B5
:100E60003A2062616420256C7320617267756D653C
:100E70006E7400007072696E74665F733A2062610E
:100E80006420257320617267756D656E74000000C3
:100E900000000000000000007072696E74665F73ED
:100EA0003A20256E20646973616C6C6F776564000D
:100EB0007072696E74663A2062616420256E2061EA
:100EC0007267756D656E740033B0BDE8F08F2DE903
:100ED000FC410F46064690467A6B7869396ABC6ACF
:100EE000121AB869521A796A121AF869521A121A41
:100EF00097F83800141B41070FD42020002C8DF8E0
:100F000000000ADD254601236A463946304600F0D6
:100F10007DF900285DD16D1EF5D17B6942463946C9
:100F2000304600F073F9002853D130208DF80000CE
:100F30003D6A002D09DD01236A463946304600F03E
:100F400065F9002845D16D1EF5D1BB69FA683946AF
:100F5000304600F05BF900283BD130208DF80000CE
:100F60007D6A002D08DD01236A463946304600F0CF
:100F70004DF970BB6D1EF6D1F868B969FB6942186E
:100F80003946304600F042F918BB30208DF8000099
:100F9000BD6A002D08DD01236A463946304600F05F
:100FA00035F9B0B96D1EF6D197F8380041070DD567
:100FB0002020002C8DF8000008DD01236A46394608
:100FC000304600F023F920B9641EF6D10020BDE8B8
:100FD000F6814FF0FF30BDE8F6812DE9F8470D4668
:100FE000A3B02F6B002F8246904648BF6FF000479A
:100FF00000F0D9FD696B401801AA0021C2E9001177
:10100000812828BF4FF0FF3044D289461EE0A74216
:1010100030DB6869201881280BD30021696303AA9B
:1010200029465046FFF753FF5FEA000922D400200B
:10103000686103AB6E6922466946981900F0E8F9C9
:10104000A6196E6158F8040BA0B13F1B002F11DDEB
:10105000D8F8001001AA684600F04CF90446002CAC
:1010600005D4D8F800000028D1D1641ECFD54FF0A8
:10107000FF390EE0B9F1000F504604D103AA29460A
:10108000FFF725FF8146B9F1000F02D1002068610A
:101090006863484624B0BDE8F0872DE9FC43074665
:1010A0006F293E6908BF082405D041F02000782848
:1010B00014BF0A2410243C25D7E90023642918BF53
:1010C00069299046994605D1002B03D5D8F100082F
:1010D00069EB4909B9F1000F08BFB8F1000F0CD155
:1010E000386B50B9082C39D197F83800010735D53D
:1010F00030203B2586F83B0030E08DF8001040465C
:1011000049462246E31700F053FD3032D0B26D1E3F
:101110003A28019504DB9DF80000A0F151018A18DE
:101120007255404649462246E31700F041FD80468D
:101130005FEA010908BFB8F1000F03D0F868711920
:101140008842DCD3082C09D197F83800010705D56F
:10115000705D302802D06D1E30207055C5F13C0204
:10116000BA617119F960386B824208DA821A3A6200
:101170004FF6EF70398F01403987BDE8F3830028BF
:101180000ED597F8380000F01400102808D17B6BBA
:101190007969386A5B1A1B1A9A1A002AC8BF3A6220
:1011A000BDE8F3832DE9D04306460F4614464FF0C1
:1011B0000008DFF8549012E0E00707D542464B469E
:1011C0003046394600F01EFC06460F46404649466A
:1011D00042464B4600F016FC641080468946002CBF
:1011E000EAD130463946BDE8D083000002FCFFFF5B
:1011F000FFFF0F800000E03F0000F07FA0860100AD
:101200000000F03F84D7974100002440F8B5054620
:101210000E4617461C4600205CB117F8011BB0684B
:10122000A847B06030B1F06A401CF0620020641E34
:10123000F3D1F2BD4FF0FF30F2BD00006E616E00E1
:101240004E414E00696E6600494E4600300030B493
:10125000002513E050F8042BD30744BFA9F1010384
:101260009A18091F042942F8045BFAD213468C0726
:1012700044BF15809B1CC90748BF1D7050F8041B54
:101280000029E7D130BC70471C48704770B45368E0
:10129000D41801E05B1C491E042B08DA00291FBF8B
:1012A000057804F8015B10F8016B002EF2D1536051
:1012B00070BC704738B514461D4661B1FFF7E6FFB4
:1012C00061686A6B204690476FF00102811A02D074
:1012D000491E01D001E003E005E00021616032BD5C
:1012E0006FF0010032BD4FF0FF3032BDDA6B1047B6
:1012F000024BDFE7014BF9E7014870474800002047
:1013000010000020C9B202788A421AB11CBF10F83E
:10131000012FF9E718BF00207047B1F5807F02D395
:101320004FF0FF3070470170012070470078401E79
:101330008041C043C00F704780B500B906A0054981
:101340000B681BB122220021984701E000F048FD04
:10135000222002BD80010020636F6E737472616988
:101360006E742068616E646C65723A2062616420FC
:101370006D6573736167650000F10103810704D037
:1013800010F8011B820781B1FAD10268A2F1013184
:10139000914311F0803104BF50F8042FF6E709BAE9
:1013A000B1FA81F100EBD100401CC01A704702680D
:1013B000531C036011707047C9B2830706D0521ED8
:1013C00022D310F8013B9942F7D11FE0083A13D31A
:1013D00002F1040241EA012141EA014150F8043BD3
:1013E000121F21BF4B40A3F1013C2CEA030C1CF05F
:1013F000803FF3D0C9B2001F083210F8013B521EE3
:1014000028BF91EA030FF8D818BF0120401E70478B
:101410004AB1000011F8013B521E00F8013B1CBF0D
:1014200011F8013BF8E7704710B5144600F002F8D8
:10143000226010BDC1F30A5343B14A0012F5001FE8
:1014400028D2A3F2FE32A1EB0251704750EA410CC0
:1014500020D001F0004C31EA0C01B1FA81F204BF56
:10146000B0FA80F3D2180B3AB2F120032CBF00FA85
:1014700003F1914041EA0C013EBFC2F1200C20FA79
:101480000CF319439040524240F2FD33D21A01EB63
:1014900003517047002270474FF4001C1CEB410FB2
:1014A00094BF1CEB430F09E041EA030C50EA4C0CDB
:1014B00052EA0C0C03D2994208BF9042704714BF05
:1014C0008B42824270472E004FF4001C1CEB410FF0
:1014D00094BF1CEB430F09E041EA030C50EA4C0CAB
:1014E00052EA0C0C03D28B4208BF8242704714BFF1
:1014F0009942904270474300124254D440F2FF7C1C
:101500001CEA11530FD0634531D09B1863453CBF93
:1015100001EB0251704701F0004141EA0C510020FB
:10152000AFF30080704750EA410320D001F0004C37
:1015300091EA0C011CD0B1FA81F30B3B9A420DD910
:10154000D21A994051EA0C01C3F1200C20FA0CFC8C
:1015500061449840531C40F2FF7CD7E7914041EA38
:101560000C01C2F1200C20FA0CF319439040704793
:10157000B0FA80F31533202BE0D3202AEED3203AA3
:10158000203B9A4209D9D21A00FA03F141EA0C0130
:101590000020531C40F2FF7CB8E700FA02F141EA58
:1015A0000C0100207047524240F2FF7C1CEA1153AC
:1015B0000DD06345DBD0B2EB030C3CBFA1EB025175
:1015C00070470CF1010221EA035141F4801150EA05
:1015D000410CCCD001F0004C352A27DC30B481EA34
:1015E0000C01B2F1200309DAC2F12003044601FA2A
:1015F00003F5D0402843D1409C400CE0C3F12002C9
:10160000450020FA03F418BF44F0010421FA03F066
:1016100091400C43002174F1004550F1000051EB62
:101620000C01244230BC7FF47BAF70476146002040
:1016300076E70000C1F30A5340F2FE329B1A14DD34
:10164000D3F120034FEAE17208DDC90241EA5051AB
:1016500041F00040D84080185040704703F2E1301C
:1016600010B1D24382F00040704700207047000064
:10167000C11768B14840401AB0FA80F29040D21CBD
:10168000C907C2F5846241EA025202EBD02140054B
:101690007047000070B44FF0004591EA030F40F12D
:1016A000AB836B40841A71EB030603D2001BB1417C
:1016B000121973414FF4001C1CEB410F34BF7CEB3B
:1016C000430442E00C0DA4EB1356352E4FDC45EAE3
:1016D000C323DB0A45EAC121C912B6F120050DDD9D
:1016E00063FA05F6EB4086EA0305124218BF45F09F
:1016F0000105C01851F100010CD213E062FA06F5A1
:10170000F2405540F3415A40B340F3405A408018EC
:10171000594107D349085FEA30005FEA350528BF21
:1017200045F0010501F58011420875F1004250F1C4
:10173000000041EB04514E0016F5001F70BC38BF8D
:1017400070470020090D090570471CEB410F10D2AE
:1017500052EA43060BD0BCEB410F05D80C0DAB434E
:10176000661E342EB6DD02E0AB438018594170BCD2
:10177000704770BC70470000F0B540F2FF7581EA19
:10178000030C0CF0004C15EA11541DBF15EA135759
:10179000AC42AF42E5E0BC41C1F31301C3F3130314
:1017A000801A994143F4801304D2641E40004941D9
:1017B00080185941C90241EA5051B1FBF3F603FBCD
:1017C0001611A2FB0675D7EBC020A94102D2761EE6
:1017D00080185941C90241EA5051B1FBF3FE03FBA5
:1017E0001E11A2FB0E75D7EBC020A94103D2AEF1AA
:1017F000010E80185941890241EA9051760546EA66
:101800008E2EB1FBF3F603FB1611A2FB0675D7EB88
:101810008020A94102D2761E80185941C90241EAAE
:1018200050514EEA060EB1FBF3F603FB1611A2FB74
:101830000675D7EBC020A94102D2761E8018594107
:10184000C90241EA5051B1FBF3F703FB1711A2FBA8
:101850000735D3EBC020A94167F100070CBF004258
:1018600047F0010766F3D5274FEA1E31B80814F593
:10187000806412DDBD0775F1004250EB0E5051EB54
:10188000045111F5801F5CBF41EA0C01F0BD4CF022
:101890007F6141F0E0410020F0BDBD076D0840EAE6
:1018A0000E5041F48011D4F10104B4F120060ADA9B
:1018B000C4F120060200E04001FA06F3E1401843BB
:1018C000B24015430EE0342C13DCC6F1200445EA87
:1018D00040056D0820FA06F2154321FA06F0A140F2
:1018E0000D43002175F1004250F1000051EB0C0155
:1018F000F0BD00205FEA0C01F0BDCFB992185B414A
:10190000B3FA83F704BFB2FA82F6BF190B3FB7F1FF
:1019100020062FBF02FA06F3BB40C7F1200622FAC9
:1019200006F638BF3343BA401CB1E419641E33E7EE
:101930007F4231F00041B1FA81F404BFB0FA80F681
:10194000A4190B3CB4F120062FBF00FA06F1A14008
:10195000C4F1200620FA06F638BF3143A0403C1BF4
:101960001AE7AC421ABF05EA1357AF4212E050EA39
:1019700041061CBF52EA4306BFE750EA4107304622
:1019800061461CBF41EA0551F0BD52EA430C08BF55
:10199000C143F0BD00204FF4001616EB410F98BF75
:1019A00016EB430F08BF16EB410F24BFC14305E000
:1019B00016EB430F0CBF61464CEA0551F0BD000029
:1019C000400D491840EA81200CD2490DA1F58061F3
:1019D000491C40F0004005DBD1F11F0154BFC84055
:1019E000C017704700207047014648B1B0FA80F137
:1019F0008840C91CC1F58461090501EBD02140056F
:101A000070470000B0B581EA030C0CF0004C40F2C6
:101A1000FF7515EA11541DBF15EA1357AC42AF42CA
:101A200039E0E41923EA455343F48013C90241F035
:101A3000004141EA505EC7021100A7FB02020028E4
:101A40004FF00000EEFB01204FF00001E3FB072107
:101A500018BF42F00102401800214941E3FB0E018A
:101A6000A4F580640F0302D252004041494154F171
:101A700001046CDD470872F1004250F1000051EBA7
:101A80000451A1F580115CBF41EA0C01B0BD4CEAE4
:101A900005510020B0BD05EA1357AC4214BFAF4258
:101AA00041E050EA410E1CBF52EA430E02E061469B
:101AB0000020B0BD24423C441BD15FEA070EF6D0A3
:101AC000090302BF01460020AEF1140EB1FA81F7FE
:101AD000AEEB070401FA07FE0C37C7F1200100FA4C
:101AE00007F7C8404EEA000E23EA455343F480133B
:101AF000A2E733F00043B3FA83F704BFB2FA82FEE1
:101B000077440B3FE41BB7F1200E2FBF02FA0EF310
:101B1000BB40C7F1200E22FA0EFE38BF43EA0E0387
:101B2000BA40641C82E750EA410E14BF52EA430EE9
:101B30006FF000014FF4001717EB430F8ABF1946EF
:101B400017EB410FB5E74CEA05510020B0BDD4F1C9
:101B50000104B4F120070FDAC4F12007520828BFAE
:101B600042F0010210FA07F501FA07F7E1BF2A4334
:101B7000E0403843E1400FE0352C98DCC7F1200409
:101B800052EA400220FA07F218BF42F0010231FA8D
:101B900007F0A1400A43002172F1004250F1000019
:101BA00051EB0C01B0BD80B5FFF76EFB006C02BDC0
:101BB000BBBBE1B1B2F5803F80F07E80022A1ED926
:101BC0008C46B1FBF2F102FB11C31B0443EA104344
:101BD000B3FBF2FC02FB1C3380B240EA0343B3FBCD
:101BE000F2F002FB103240EA0C4000237047022A58
:101BF00005D98446B0FBF2F002FB10C270474AB12F
:101C000005D100F0010249085FEA30007047002268
:101C10000023704700F0A6B90B000200002100204D
:101C20007047904271EB030CF6D3B3F5803F2FD28F
:101C3000F0B5B3FA83F7B1FA81F4A7F10F0E3D1BAB
:101C40005340CEF1200602FA0EF2F3415340B5F1B3
:101C50000F0746D80F3C2C444140C4F12006A04059
:101C6000F1414140B1FBF3F603FB1611A2FB06451F
:101C7000001BA94102D2761E8018594180EA010258
:101C800021FA0EF362FA0EF200215A403046F0BDFE
:101C900030B4B1FBF3FC03FB1C11A2FB0C45001B91
:101CA000A94103D2ACF1010C8018594130BC024665
:101CB0000B46604600217047B2F1807F65D3F0B5D6
:101CC000B2FA82F7B1FA81F4C7F10F063D1B22FA8E
:101CD00006F307F1110EF24120355A40B5F10F0716
:101CE000B8D94140C4F12006A040F1414140B1FBC8
:101CF000F3FC03FB1C11A2FB0C45001BA94103D202
:101D0000BCF1010C801859410F2F12D30F3FC903AA
:101D100041EA5041B1FBF3F603FB1611A2FB064565
:101D2000D4EBC030A94102D2761E8018594146EA50
:101D3000CC3C07B34140C7F12006B840F1414140D7
:101D4000B1FBF3F603FB1611A2FB0645001BA941EC
:101D500002D2761E8018594180EA010221FA0EF360
:101D6000C7F1200462FA0EF20CFA07F05A402CFA7E
:101D700004F13043F0BD80EA010221FA0EF30021A4
:101D800062FA0EF260465A40F0BD8C46B1FBF2F1A9
:101D900002FB11C31B0243EA1063B3FBF2FC02FB1C
:101DA0001C331B024CEA002043EA1063B3FBF2FC35
:101DB00002FB1C331B024CEA002043EA1063B3FB16
:101DC000F2FC02FB1C331B024CEA002043EA1063C6
:101DD000B3FBF2FC02FB1C324CEA002000237047EC
:101DE000012000F0C1B8000070B44FF0004591EA46
:101DF000030F7FF557AC6B40841A71EB030604D2D6
:101E00006E40001BB141121973414FF4001C1CEBD2
:101E1000410F34BF7CEB430683E00C0DA4EB13565B
:101E2000362E00F37C80012E45EAC32341DC43EAD1
:101E3000525312BFD20292025B08240545EAC12127
:101E400041EA5051D2EBC020994125D407D1B0FAD4
:101E500080F610FA06F162D00020203608E0B1FAD0
:101E600081F6B140C6F1200220FA02F21143B040DF
:101E70004FEAF474B4EB465434F001064FEA7404AC
:101E80000AD8D6F50016760D04F00044F04061FA49
:101E900006F25040F1404840C00A40EA415021F06B
:101EA000004128BF5FEA500550F1000044EBD1210A
:101EB00035E0DB0A45EAC121C90AB6F120050EDD8D
:101EC00042EA0242120CC5F1200603FA06F6EB4084
:101ED00042EA06056D42984161F100010DE062FAA7
:101EE00006F5F240554063FA06FC82EA0C02F34024
:101EF0005A406D42904161EB030111F4801F05D1FE
:101F0000641E620502D06D004041494121F48011F8
:101F1000430875F1004350F1000041EB045170BCDF
:101F200070471CEB410F15D223F0004352EA4306E1
:101F30000BD04FEA4C0CBCEB410F04D80C0D661EC5
:101F4000342EB7DDEBE7801A994150EA410608BF0D
:101F50000021E4E708BF1CEB430F28BF6FF000012E
:101F6000DDE700007047000080B5AFF30080024A53
:101F700011001820ABBEFBE72600020038B50400B4
:101F800001D1012032BD04F14005687820B900215B
:101F90002970204600F0C0FA00F040F8606821681F
:101FA00020F0706008612068816821F40041816040
:101FB000E06821680128A0680CBF40F4004040F4AC
:101FC00004408860E068022803D120684FF4006173
:101FD00041602068416841F0007141F40041416076
:101FE0002068C16821F40041C16060692169A2696B
:101FF0000143206841EA0221C160206AE169226848
:10200000014311602068016841F001010160002076
:102010006860202169702063A87032BD2420687038
:1020200020680168490849000160704700904FF03E
:102030008073FF22704700904FF00073D2B2704758
:102040008146CDF80090192301224FF4004130461B
:1020500000F097B901224FF40041304600F091B9E9
:102060002DE9FE4F00F004F94ED10C9D002D1CBF50
:102070000D9F002F03D14FF4007161603FE0207885
:10208000012841D00121217000F0AEFAFFF7D8FFFE
:10209000002834D1212000F003F900F017F910B125
:1020A000002020702BE0708DFF25B0F5807F19D3C4
:1020B00000F0EFF800F0D8F80E9F4A463946304657
:1020C00000F080F900281AD100F025F811D089B26B
:1020D00079B900F030F890B900F019F805D300F0A4
:1020E000D8F804E000F0CDF8E4E700F0CAF800F01A
:1020F000BBF8708D0028E0D100F0A2F808B10120F3
:1021000003E000F020F800E00220BDE8FE8F708DB3
:10211000B0F5807F7047706A326801789162706AAA
:10212000411C7162708D411E7185308D411E31855B
:10213000708D00287047CDF800903B46002280212A
:10214000304600F01EB931682020C8613168DFF8E0
:1021500078014A6802404A60202161700020A07026
:10216000207070472DE9FE4F00F082F865D10C9D7C
:10217000002D1CBF0D9F002F03D14FF40071616033
:1021800056E02078012858D00121217000F02CFA67
:1021900081463068816908040ED500F025FAA0EB6D
:1021A00009001A28F5D3606840F020006060202103
:1021B00061700020A07006E0222000F071F800F0AD
:1021C000A0F810B10020207032E0718DDFF8F4002B
:1021D000FF25B1F5807F1CD33585FFF727FF00F081
:1021E00043F80E9FCDF800903B4600220421FFF7F4
:1021F00034FF00281CD100F028F898B189B289B9C1
:10220000FFF799FFA0B9FFF782FF07D300F041F86D
:1022100006E0728D3285FFF70EFFE0E700F031F83F
:1022200000F022F8708D0028DCD100F009F808B128
:10223000012003E0FFF787FF00E00220BDE8FE8FEA
:102240004A463946304600F0E5B83068416A706A5F
:102250000170716A308D4A1C411E72623185708D29
:10226000421E7285708D70474146304600F024B999
:10227000064606F1400488466078202892469B4630
:102280007047728D3285002000904FF00073D2B2FB
:1022900070473585002000904FF08073FF22704713
:1022A00060704021A1700020606075627785706366
:1022B0005B460E9900915246CDF804904146304657
:1022C000704700000024008000E800FE2DE9FC417A
:1022D00000F031F84FF08073EAB200F0EDF800F052
:1022E0003EF858B9012D02D000F036F830B900F0B0
:1022F0002CF88021204600F044F800B10120BDE810
:10230000F6812DE9FC4100F016F80023EAB200F056
:10231000D3F800F024F858B9012D02D000F01CF8D1
:1023200030B900F012F84021204600F02AF800B140
:102330000120BDE8F6811746DDF82080099EDFF810
:102340009C2100921D46044670472068FFB28762B8
:1023500000964346002270472168380A8862324658
:10236000414620462EE0006881698A0744BF00216B
:1023700081628169CA0703D4816941F001018161E9
:1023800070472DE9F041069F05460E4690461C46D3
:10239000286881693140B1420CBF012000204045CE
:1023A0000DD114F1010FF3D000F01EF9C01B8442CF
:1023B00001D3002CECD100F021F8012000E0002036
:1023C000BDE8F08170B505460C461646286881695F
:1023D000880711D400F036F808B1012070BD14F15F
:1023E000010FF3D000F000F9801B844201D3002CD0
:1023F000ECD100F003F8F0E7002070BD05F14000DB
:102400002022416841F0200141604270002181702A
:102410000170704770B505460C46164628688169FC
:1024200088060DD400F00EF840B900F0DDF8801BEE
:10243000844201D3002CF1D1FFF7E0FF012070BDF1
:10244000002070BD324621462846FFE770B505469C
:102450000C4628688169C80616462BD5286881690C
:102460008A060FD414F1010FF8D000F0BDF8801BDC
:10247000844201D3002CF1D105F14000416841F0C4
:10248000200111E01021C16120202A68D061284676
:10249000FFF769FF2868124A41681140416005F161
:1024A0004000416841F0040141602022FFF7ADFF88
:1024B000012070BD002070BD70B50068049C4568A7
:1024C000084E46EA5456B543C1F30901294341EA8F
:1024D000024119432143416070BD0000002000808B
:1024E00000E800FEFF63FF033A4882B0016841F054
:1024F00001010160026802F0010200920099426845
:1025000042F080524260406800F080500090009895
:10251000072002B000F07BB810B586B000F053F889
:1025200021682D48814221D12C4C216841F4802121
:1025300021604FF44071206800F480200090122246
:10254000009827480191029201210391032204215E
:102550000591049201A900F0A3F8A06840F40010CE
:10256000A060A06800F400100090009806B010BDB4
:1025700010B586B000F027F821681A48814220D1B2
:102580001648816841F400318160816801F40031AE
:1025900000910099026842F4003202600C21006848
:1025A00000F4003000900222009801910292002174
:1025B000039104914FF090400721059101A900F08B
:1025C0006FF806B010BD04461422002101A800F0E7
:1025D00043B900001810024000540040141002409B
:1025E000000400480044004001484068704700BFB4
:1025F000000000200901020002D4244881547047E1
:10260000234B02F00F021A4402F8041C7047214BBE
:1026100019684FF6FF020002114000F4E060084321
:102620001D4908431860704770B51A4B1C68C4F305
:1026300002230124C3F10705052D2EBF0F2504FA3F
:1026400005F56D1E1E1D072E34BF0023DB1E29401D
:10265000994004FA03F3BDE870405B1E1A40114331
:10266000C8E710B5401EB0F1807F01D3012010BD36
:102670000A4C60600F214FF0FF30FFF7BBFF0021D5
:10268000A16007202060002010BD000000E400E0F1
:1026900018ED00E00CED00E00000FA0510E000E0AD
:1026A0002DE9F84F4FF0000E654A664BDFF8988130
:1026B0004FF00F0982460F4633E0644DAA4514BF20
:1026C000052503258D40254343F82C50C14314684C
:1026D00001EA040C7C68E50348BF40EA0C0CC2F830
:1026E00000C0546801EA040C7C68A50348BF40EAB6
:1026F0000C0CC2F804C0946801EA040C7C68E50282
:1027000048BF40EA0C0CC2F808C0D46801EA040CC7
:1027100079688C0248BF40EA0C0CC2F80CC00EF17C
:10272000010E396831FA0EF000F08380012000FAC2
:102730000EFC1CEA0100F2D07C68022C18BF122C9F
:102740004FEA8E0110D14FEADE040AEB840401F057
:102750001C05266A09FA05FB26EA0B06D7F810B015
:102760000BFA05F5354325624FEA4E040325DAF8E6
:10277000006097F804B0A540ED430BF0030B2E402A
:102780000BFA04FB4BEA0606CAF800607E68012ECD
:1027900018BF022E03D0112E18BF122E17D1DAF84F
:1027A0000860D7F80CB02E400BFA04FB4BEA060683
:1027B000CAF80860DAF8046026EA0C0C7E68C6F3F2
:1027C000001606FA0EF646EA0C06CAF80460DAF8B5
:1027D0000C603540BE6806FA04F42C43CAF80C407D
:1027E0007C68E4009BD5D8F8004044F00104C8F8A8
:1027F00000404FEA9E0CD8F8005005F00105009506
:1028000001F00C01009C53F82C5009FA01F425EA60
:102810000404BAF1904F08BF002509D00C4DAA4519
:1028200008BF012504D00B4DAA457FF446AF022511
:1028300048E7BDE8F18F0AB1816170478162704756
:10284000000401400800014018100240000C00483C
:10285000000400480008004810B5044610460A4627
:102860000146204600F002F8204610BD62F30F2218
:1028700062F31F42401810F0030308D0C91A1FD397
:10288000DB0748BF00F8012D28BF20F8022D1300F8
:1028900030B414461546103928BF20E93C00FAD858
:1028A000490728BF20E90C0048BF40F8042D8900E3
:1028B00028BF20F8022D48BF00F8012D30BC70471A
:1028C000C91818BF00F8012DCB0728BF00F8012D4B
:1028D000704700002DE9F843040019D02078DFF894
:1028E0005854C10716D5686800F00C0004280AD0B7
:1028F000686800F00C00082802BF686800F48030A7
:10290000B0F5803F41D100F0E8F918B160680028C7
:1029100000F05F812078DFF8306481071BD568689C
:1029200010F00C0F07D0686800F00C0008286CD17C
:102930006868C10369D42868C0F3400000281CBF40
:102940002069012840F045812968606921F0F8017B
:1029500041EAC00129602178080740F18C80A06914
:10296000DFF8E813002878D001220A60FFF73CFE68
:102970000746686AC0F3400000287CD1FFF734FEA8
:10298000C01B0228F5D9032026E16068B0F5803F1E
:1029900004D1286840F48030286014E008B9286821
:1029A0000AE0B0F5A02F286806D140F48020286006
:1029B000296841F4803105E020F4803028602968DE
:1029C00021F480212960E86AA168000941EA001029
:1029D000E862606860B1FFF707FE064600F07DF927
:1029E000002897D1FFF700FE801B6528F6D3CAE7C1
:1029F000FFF7FAFD064600F070F900288AD0FFF7CD
:102A0000F3FD801B6528F6D3BDE72069B0B1012135
:102A10003160FFF7E9FD07462868C0F3400028B998
:102A2000FFF7E2FDC01B0228F6D9ACE72868616910
:102A300020F0F80040EAC10028608CE73060FFF722
:102A4000D3FD07462868C0F34000002883D0FFF775
:102A5000CBFDC01B0228F5D995E70860FFF7C4FD40
:102A60000746686AC0F3400028B1FFF7BDFDC01BF0
:102A70000228F6D987E72078410763D5E86900275F
:102A8000C10009D4E86940F08050E8610127E86995
:102A900000F0805000900098DFF8B482D8F8000071
:102AA000C10513D4D8F8000040F48070C8F80000C5
:102AB000FFF79AFD8146D8F80000C10506D4FFF75C
:102AC00093FDA0EB09006528F5D35CE7E0680128D9
:102AD00008D008B9286A09E00528286A06D140F01C
:102AE00004002862286A40F0010005E04008400028
:102AF0002862286A20F00400286241F28938E068E0
:102B000068B1FFF771FD8146286AC0F34000A0B9A3
:102B1000FFF76AFDA0EB09004045F5D333E7FFF767
:102B200063FD8146286AC0F3400030B1FFF75CFDC9
:102B3000A0EB09004045F5D325E71FB1E86920F077
:102B40008050E861E069002845D0696801F00C0117
:102B5000082931D0022822D100F040F80746286821
:102B6000C0F3406028B1FFF73FFDC01B0228F6D933
:102B700009E76868616A226A20F474100843104308
:102B80006860012000F02BF804462868C0F340601C
:102B900008BBFFF729FD001B0228F6D9F3E600F079
:102BA0001DF804462868C0F34060A0B1FFF71CFD83
:102BB000001B0228F6D9E6E601280AD06868226AD6
:102BC00000F48031914202BF00F47010616A8842C3
:102BD00001D0012000E00020BDE8F2830020306633
:102BE000FFF702BD2DE9F0410400884645D0594E5B
:102BF000306800F00700404502D200F064F83CD194
:102C000020784D4D810705D56A68A06822F0F00252
:102C100002436A602178C80727D56168012902D17B
:102C200000F05BF804E00229286803D1C0F340609B
:102C300018B922E0C0F34000F8B16868800841EAA2
:102C400080016960FFF7D0FC07466868616800F0A2
:102C50000C00B0EB810F08D0FFF7C6FCC01B41F29F
:102C600089318842F1D303202BE0306800F007005F
:102C7000804504D200F027F801D0012021E020781F
:102C8000410705D56A68E06822F4E06202436A60A1
:102C90002178080706D56968206921F4605141EA66
:102CA000C001696000F01EF86A682B49234BC2F32B
:102CB0000312895CC84018602248006800F064F87C
:102CC0000020BDE8F0813168C90848EAC1013160DF
:102CD000306800F00700404570472868C0F3404066
:102CE0007047000010B51D490A6802F00C00082862
:102CF00014D100BF1CA3C2F38340D203185C896ABD
:102D000009D500BF1CA40E4B01F00F01625CB3FBA0
:102D1000F2F2504310BD1249484310BD084810BD9F
:102D200006480E4A006813680E49C3F30222FFE703
:102D3000895CC84070470000001002400C00002071
:102D400000127A0008000020000042428004424243
:102D50000070004000200240FC39000804100240CE
:102D600000093D00EC3A00080203040506070809C3
:102D70000A0B0C0D0E0F10100102030405060708C4
:102D8000090A0B0C0D0E0F1038B50D4D0D4B2A789E
:102D900004464FF47A711868B1FBF2F2B0FBF2F01E
:102DA000FFF75FFC50B9102C08D2002221464FF0EB
:102DB000FF30FFF739FCAC60002032BD012032BD8E
:102DC000000000200C00002038B5040009D004F1F8
:102DD0007005696809B900F028F800F00DF80128BD
:102DE00001D1012032BD606A08B100F023F800F083
:102DF00014F821F02A0109E02421696020680268A2
:102E0000520852000260204600F078B8816000F05D
:102E100014F8BDE8324000F07EB92068416821F422
:102E200090414160206881687047002028702046EA
:102E3000FFF79EBB204600F00BB92068016841F007
:102E400001010160204670472DE9FC47054605F168
:102E50007004884660682028174699464BD1B8F11F
:102E6000000F14BF002F012046D02078012842D047
:102E7000012121700020E0602122626005F15006EE
:102E8000FFF7B2FB378082467780A868B0F5805F95
:102E900004BF286900281ABF4046002747468046DD
:102EA0000DE02868B8F1000F12BF18F8011B37F8C1
:102EB000021BC1F3080101857088411E71805346D1
:102EC0007088CDF80090002807D000228021284685
:102ED00000F04EF90028E4D005E000224021284609
:102EE00000F046F908B1032006E0202060600021D0
:102EF0002170002000E00220BDE8F68770B504468E
:102F00004C4823681E68A168064020690E43616929
:102F10000643E0690E4306431E6000225968E068DC
:102F200021F440510143596000259E68A169206A3F
:102F300026F430660E43404906438B429E600FD113
:102F40003E48036803F00303032B11D8DFE803F0C6
:102F50000E04060202200CE004200AE0082008E02B
:102F6000374883421CBF3748834201D1002000E02C
:102F70001020E169B1F5004F4FF6F0762CD130B159
:102F8000022807D004280AD0082811D018E0FFF73B
:102F9000C7FE06E060682C4901EB50010CE0FFF72A
:102FA000A1FE61684A0802EB4002B2FBF1F205E0C3
:102FB0006068410801F58031B1FBF0F292B200E0A7
:102FC0000125A2F11000B0422ED21640C2F34200F9
:102FD00006432068C66028E030B1022807D00428E4
:102FE0000AD0082810D017E0FFF79AFE06E06068C4
:102FF000164901EB50010BE0FFF774FE616800EB2E
:103000005100B0FBF1F205E06068410801F50041B4
:10301000B1FBF0F292B200E00125A2F11000B04243
:1030200002D22168CA6000E00125002020666066A7
:10303000284670BDF369FFEF0038014030100240B0
:1030400000440040004800400024F40000127A00D0
:1030500090F82410CA0706D502685368816A23F4E1
:1030600000330B43536090F824108A0706D502689A
:103070005368C16A23F480330B43536090F82410E3
:103080004A0706D502685368016B23F480230B437B
:10309000536090F824100A0706D502685368416B04
:1030A00023F400430B43536090F82410CA0606D55E
:1030B00002689368816B23F480530B43936090F80C
:1030C00024108A0606D502689368C16B23F4005366
:1030D0000B43936090F824104A0610D50268536899
:1030E000016C23F480130B435360036CB3F5801F12
:1030F00005D15368416C23F4C0030B43536090F82F
:1031000024100A0606D501684A68806C22F4002261
:1031100002434A607047F8B5044604F17005002088
:10312000E8606FF07E47FFF75FFA064620680168A7
:103130000A0708D50097334600224FF400112046B5
:1031400000F016F860B9206801684A070AD50097B0
:10315000334600224FF48001204600F009F808B100
:103160000320F2BD20206860A86000202870F2BD16
:103170002DE9F041069C05460E4690461F462868FC
:10318000C1693140B1420CBF01200020404520D12F
:1031900014F1010FF3D0FFF727FAC01B844200D3CC
:1031A00034B900F018F8002101700320BDE8F08167
:1031B000286801684A07E2D5C1690805DFD54FF4E0
:1031C00000612A681162002200F005F8C1600270F7
:1031D000EBE70020EAE72868016821F4D07101607C
:1031E0002868816849084900816005F17000202144
:1031F000416081607047000038B584B04FF47A7048
:103200000121029001910DF10D05C44C009501239F
:10321000752200F070F89DF80D0068281DD100217E
:103220008DF80C104FF47A70012203A902900192DC
:10323000009101236B2200F012F8072000F015F82E
:10324000192200F00CF800F00FF81C2200F007F82B
:1032500000F00AF81B2200F002F805B030BDD021C2
:1032600004F10C00FEF7FCBE00208DF80C004FF4BA
:103270007A71012203A80291019200900123704704
:1032800078B585B000F087F83B2200F034F89DF85F
:103290000C109DF80D009DF80E209DF8103040EAAE
:1032A00001209DF80F10E08041EA02219DF81120D5
:1032B000218142EA032203B20DB216B200EE903A27
:1032C00001EE105A01EE906A9FED980AF8EEE00ABE
:1032D000B8EEC11AF8EEE11A60EE800A21EE001A8B
:1032E00021EE800AC4ED190A84ED1A1A84ED1B0A36
:1032F000628106B070BDD02104F10C00FEF732BF30
:10330000F8B52DED028B86B000F045F84322FFF7AB
:10331000F2FF03A89DF80C1045789DF811709DF8F8
:103320000F6045EA01258178007947EA002746EADF
:10333000012628B2FEF79CF900F029F800224FF090
:103340008043FEF751FD00F037F9A0659FED788BC3
:1033500030B2FEF78DF900F01AF853EC182BFEF797
:1033600043FD00F029F9E06538B2FEF781F900F07D
:103370000EF853EC182BFEF737FD00F01DF906B0E0
:10338000206625806680A780BDEC028BF1BD0022FF
:10339000694BFEF7F1B94FF47A7006210290019162
:1033A00003AD5E4C00950123704778B58FB000F0F7
:1033B00037F900F0C5F81422002101A8FFF74CFAF4
:1033C0005148524C0168524E41F4002101604FF4C3
:1033D0000055026802F4002200920099026842F44B
:1033E00080020260036803F480030093009902687E
:1033F00042F400320260036803F400330093009942
:10340000026842F4802202600022006800F48020FA
:1034100000904FF4005100982046FFF70CFA3D4908
:10342000029100220392019501A93B48FFF738F968
:1034300001210291002203920492019501A92046E4
:10344000FFF72EF9354C36483649374DE06021619B
:10345000002060610121E06120626062A062E062A0
:10346000A16104F10C00FEF789FD002104F10C00BC
:1034700000F0E8F8002104F10C0000F0F8F82F4803
:1034800028604FF416410C20002268616960AA6030
:10349000EA602A61AA61EA612A626A622846FFF745
:1034A00093FCFFF7A9FEFFF72BFFC82000F00AF9F5
:1034B000FFF7E6FEE06E00F019F9CDE90801A06E15
:1034C00000F014F9CDE90601606E00F00FF9CDE9C6
:1034D0000401206E00F00AF9CDE90201E06D00F070
:1034E00005F9CDE90001A06D00F000F902460B4698
:1034F00031460AA800F01EF982B24FF47A730AA985
:103500002846FFF7A1FCCEE7141002400004004853
:103510007C3900080000211000080048100100203C
:10352000005400400E090020900000200000803868
:10353000000000000000F03F0060604000440040D8
:1035400080B59CB02822002105A8FFF785F9142238
:1035500000216846FFF780F9342200210FA8FFF709
:103560007BF90321059100224FF48031012306915C
:10357000079209930D91102202234FF4E0110A9251
:103580000C930E9105A8FFF7A5F9022101910F20D8
:103590004FF4806100900022039102920492022174
:1035A0006846FFF71FFB202100220F9112920FA8FF
:1035B00000F0E0F81DB000BD01F000428B1AA3F14D
:1035C0006051B1F5801F0ADBB1F17F6F1FD242EA73
:1035D000C102C10071F1004142EB507070470B1500
:1035E000C3F10903212B10D2890241EA90518002D4
:1035F0000128494141F0004121FA03F0C3F12003C1
:10360000994071F1004150417047100070476FF0D0
:10361000000013EB103F5CBF000E42EAC050704741
:1036200080B50748016841F0100101600320FEF7F2
:10363000EEFF0020FFF7A8FBFEF756FF002002BDBB
:103640000020024030B500F140025378202B0CD10D
:103650001478012C09D000F01DF824F480541C606B
:1036600003681D682943196020E0022030BD30B591
:1036700000F140025378202B0AD11478012C07D096
:1036800000F008F824F4706444EA01241C600DE0A2
:10369000022030BD012313702424547003681D6878
:1036A0006D086D001D6003681C6870470068016844
:1036B00041F00101016020205070002111700020B4
:1036C00030BD000038B50446FEF78EFF14F1010F3F
:1036D000054602D0044801786418FEF785FF401BB8
:1036E000A042FAD331BD00BF00000020C0F3C75193
:1036F00081B1FF2906D0C110400721F0E04101F15E
:103700006051704741020CBF40F4E0016FF000418E
:103710000020704700F0004100020AD0B0FA80FC9F
:1037200000FA0CF001F16051A1EB0C5101EBD0213A
:10373000400570470CB430B583B00A4606A9029123
:10374000044600250194009502AB01A9084878447D
:103750001E30FCF719FD019A157000284EBF044673
:103760000198041B204603B030BC5DF80CFB00BF81
:103770003FDCFFFF2DE9FC410546DFF87C6128684E
:10378000C10353D5B0690024C10009D4B06940F029
:103790008050B0610124B06900F080500090009822
:1037A000DFF858713868C10511D4386840F480706A
:1037B0003860FEF719FF80463868C10507D4FEF768
:1037C00013FFA0EB08006528F6D3032092E0F06910
:1037D00010F440701EBF696801F4407188421AD02D
:1037E000DFF81C11F06901220A60002320F4407008
:1037F0000B60F061C0070ED5FEF7F6FE0746F069D4
:10380000C0F3400038B9FEF7EFFEC01B41F289312A
:103810008842F4D3D9E7F269686822F4407202431F
:10382000F2611CB1B06920F08050B0612878C10706
:1038300005D5F26AA868920840EA8202F262297805
:10384000880605D5F16AE86821F010010143F162AC
:103850002968880305D53168286B21F4800101436C
:1038600031602978480605D5F16A286921F02001E0
:103870000143F1622968080405D5F16A686921F0FD
:1038800040010143F1622968880505D53168E8697E
:1038900021F40001014331602978080605D5B16A99
:1038A000A86921F4F8710143B1622968C80405D5FB
:1038B000F16A286A21F480710143F16229684803A2
:1038C00005D5F16A686A21F480610143F1622968D3
:1038D000080305D5F16AA86A21F400610143F16289
:1038E0002968C80205D5F16AE86A21F4005101434C
:1038F000F1620020BDE8F681041002400070004033
:1039000040044242F0B402461068956813185068AB
:1039100003EB5004C0071CD54D441AE013F8017B9B
:1039200005F8017B491EF9D198B113F8011BC6F3C4
:103930008106032E08BF13F8016B01EB06214942F3
:10394000801C294405D011F8016B05F8016B401E5D
:10395000F9D1A3420ED013F8016B16F0030104BF96
:1039600013F8011BC91C30090F28DBD113F8010B18
:103970000F30D7E7F0BC02F10C0070474779726F47
:1039800073636F7065202D583A20252E32662020F3
:10399000202020202D593A20252E3266202020205C
:1039A000202020202D5A3A252E3266200A0A416313
:1039B00063656C65726F6D6574657220252E326665
:1039C0002020202020202D593A20252E326620202C
:1039D0002020202020202D5A3A252E32660000007B
:1039E0000448054A016841F4700101604FF000602D
:1039F0001060704788ED00E008ED00E00000000076
:103A000000000000010203040607080910B5074979
:103A100079441831064C7C44163404E00A68081DC9
:103A2000114488470146A142F8D110BD2C00000086
:103A3000480000004EF68851CEF20001086840F4BC
:103A400070000860BFF34F8FBFF36F8F4FF00070AF
:103A5000E1EE100A70470000F7D7FFFFF400000006
:103A600090000020000000009DFEFFFF50010000BC
:103A70006A0000000000002000F00DF8002801D0CE
:103A8000FFF7C4FFAFF300800020AFF30080FFF723
:103A90008CFC00F002F80120704700F001B8000033
:103AA00007463846FEF760FAFBE77047FEE7FEE799
:103AB000FEE7FEE770477047704700F001B800006E
:103AC0000248416802788A1842607047000000206E
:103AD0000148804701480047E1390008E13A000801
:103AE000AFF30080FFF7A6FFFFF7C6FF000000005E
:103AF00001020304FFF7FEBFFFF7FEBFFFF7FEBFA3
:103B0000FFF7FEBFFFF7FEBFFFF7FEBFFFF7FEBFE9
:103B1000FFF7FEBFFFF7FEBFFFF7FEBFFFF7FEBFD9
:103B2000FFF7FEBFFFF7FEBFFFF7FEBFFFF7FEBFC9
:103B3000FFF7FEBFFFF7FEBFFFF7FEBFFFF7FEBFB9
:103B4000FFF7FEBFFFF7FEBFFFF7FEBFFFF7FEBFA9
:103B5000FFF7FEBFFFF7FEBFFFF7FEBFFFF7FEBF99
:103B6000FFF7FEBFFFF7FEBFFFF7FEBFFFF7FEBF89
:103B7000FFF7FEBFFFF7FEBFFFF7FEBFFFF7FEBF79
:103B8000FFF7FEBFFFF7FEBFFFF7FEBFFFF7FEBF69
:103B9000FFF7FEBFFFF7FEBFFFF7FEBFFFF7FEBF59
:103BA000FFF7FEBFFFF7FEBFFFF7FEBFFFF7FEBF49
:103BB000FFF7FEBFFFF7FEBFFFF7FEBF43010001A7
:103BC000221008F00507127A00321600080452FF8E
:103BD00001E3C6141410010000F614214C1148F33F
:103BE0001620000120022D1300082C431B133C213A
:013BF00001D3
:0400000508003AE1D4
:00000001FF
